:020000040800F2
:1000000078650220C1010008BF5501086527010875
:10001000BD550108F5120008C35002080000000099
:10002000000000000000000000000000C99301086B
:100030007969000800000000A156010871970108C5
:10004000DB010008DB010008DB010008DB01000820
:10005000DB010008DB010008DB010008DB01000810
:10006000DB010008DB010008DB010008DB01000800
:10007000DB010008DB010008DB010008DB010008F0
:10008000DB010008DB010008DB010008DB010008E0
:10009000DB010008DB010008DB010008DB010008D0
:1000A000DB010008DB010008DB010008DB010008C0
:1000B000DB010008DB010008DB010008DB010008B0
:1000C000DB010008DB010008DB010008DB010008A0
:1000D000DB01000879380208DB010008DB010008B9
:1000E000DB010008DB010008DB010008DB01000880
:1000F000DB010008DB010008DB010008DB01000870
:10010000DB010008F97C0108DB010008DB010008C5
:10011000DB010008DB01000809980108DB01000889
:10012000DB010008DB010008DB010008C93D000815
:10013000DB010008DB010008DB010008DB0100082F
:10014000DB010008DB010008DB010008655601083F
:10015000DB010008DB010008DB010008DB0100080F
:10016000DB010008DB0100087D560108715601081B
:10017000DB01000889560108DB010008DB010008EB
:10018000DB010008DB010008DB010008DB010008DF
:10019000DB010008DB010008DB010008DB010008CF
:1001A000DB010008DB010008DB010008DFF80CD0F0
:1001B00000F08AFC00480047F584020878650220B8
:1001C0000648804706480047FEE7FEE7FEE7FEE7F1
:1001D000FEE7FEE7FEE7FEE7FEE7FEE7AD97010874
:1001E000AD0100082DE9F05F0546002092469B46D0
:1001F00088460646814640241BE02846414647463D
:10020000224600F0BAFA53465A46C01A914110D31A
:1002100011461846224600F0A1FA2D1A67EB010894
:100220004F4622460120002100F098FA17EB000902
:100230004E41201EA4F10104DFDC484631462A4627
:100240004346BDE8F09F40EA01039B0703D009E065
:1002500008C9121F08C0042AFAD203E011F8013BB2
:1002600000F8013B521EF9D27047D2B201E000F80B
:10027000012B491EFBD270470022F6E710B513464A
:100280000A4604461946FFF7F0FF204610BD421EFD
:1002900012F8013F002BFBD111F8013B02F8013BA2
:1002A000002BF9D1704710B5044604E00B7800F834
:1002B000013B03B1491C521EF8D2204610BD421C1E
:1002C00010F8011B0029FBD1801A704710B50022DD
:1002D00000E0521C835C8C5CA34201D1002BF8D15E
:1002E000D8B2E1B2401A10BD034611F8012B00F854
:1002F000012B002AF9D11846704770B5064625F043
:10030000A5FD046805460A220021304600F0A6FA41
:100310002C6070BD2DE9FE4F804681EA0300C00FBE
:100320000C46009021F0004123F00045B8EB02009C
:10033000A94105D24046214690461C460B4602463E
:1003400023F00040104347D0270DC7F30A00C3F342
:100350000A510290401A019040286BDAC3F313004F
:1003600040F4801B0098924620B10023D2EB030A90
:1003700063EB0B0B01985946C0F14002504600F068
:10038000EDF906460D4650465946019A00F005FA29
:1003900010EB08006141002487EA115284EAE773F8
:1003A0001A4340D0009A62B3019A012A4FEA0752D9
:1003B00015DC001B61EB02014FF0004202EA07521C
:1003C000CDE90042001C41F5801132462B4600F079
:1003D000C3FA03B0BDE8F08F40462146F9E7001BA1
:1003E00061EB0201001C41F5801300185B412018ED
:1003F000A2F5001747EB030140EAD570B6196D412D
:1004000011E06D084FEA360645EAC0754FEA07521B
:10041000001B61EB0201001C41F5801149084FEA05
:1004200030000019514132462B4603B0BDE8F04F71
:1004300000F083BA0098012240000023D0EB0202B2
:1004400063EBE073009821464FEAE074B8EB0000DC
:1004500061EB0401E9E783F000435BE781F00041D1
:1004600058E72DE9FE4F81EA030404F0004421F02F
:10047000004100944FF0000B23F0004350EA0104C8
:100480005ED052EA03045BD0C3F30A54C1F30A55A9
:100490002C44A4F2F3340194A0FB0254C1F31301E1
:1004A00041F48011C3F3130343F4801301FB0244AE
:1004B00000FB034E840A970A44EA815447EA8357B3
:1004C000A4FB076802958D0A05FB07854FEA932C6C
:1004D00004FB0C542705029D4FEA065847EA1637DD
:1004E000B5EB08056EEB070C870E920E47EA8117F5
:1004F00042EA8312A7FB0201B6EB0B0164EB000496
:100500002B0D43EA0C335E1844EB1C50DA4651467F
:10051000E7FB0201C5F313044FEA0B3343EA14531C
:100520004FEA0432019C43EA0603A4F10C0402944E
:10053000009CCDE900B400F00FFA03B0BDE8F08FE5
:1005400000200146F9E72DE9F04D81EA030404F0AB
:10055000004B21F0004514464FF0000A23F0004103
:1005600050EA050220D054EA01021DD0C5F30A5713
:100570000246C5F31303C1F31300C1F30A5640F456
:10058000801543F48013A7EB0608101BD64608F22B
:10059000FD3873EB050002D308F1010801E0921861
:1005A0005B41B8F1000F03DA00200146BDE8F08D91
:1005B00000204FF48011064684460EE0171B73EBB3
:1005C000050705D3121B63EB050306434CEA010C38
:1005D00049084FEA300092185B4150EA0107EDD11B
:1005E00052EA030012D082EA040083EA05010843BC
:1005F00005D0101BAB4106D20122002306E00022E9
:100600004FF0004302E06FF0010253101AEB0600B6
:100610004CEB085110EB0A0041EB0B01BDE8F04D2B
:1006200000F08BB90EB540F2334102910021CDE9C3
:1006300000110A460B4600F08FF903B000BDC1F36C
:100640000A5210B5C1F3130140F2FF3341F4801197
:100650009A4201DA002010BD40F233439A42A2F2DE
:10066000334203DC524200F088F810BD904010BDC8
:1006700000F0004230F000400AD0C10D01F5607179
:10068000C0F3160042EA0151C20840071143704707
:10069000002001467047000030B5041E71F10004CF
:1006A00004DB4FF00044404264EB0101141E73F17F
:1006B000000405DB1C464FF00043524263EB040389
:1006C0008B4208BF824230BD30B5041E71F1000478
:1006D00004DB4FF00044404264EB0101141E73F14F
:1006E000000405DB1C464FF00043524263EB040359
:1006F000994208BF904230BD01F0004330B421F070
:10070000004150EA010206D00A0DA2F56072C1F361
:100710001301002A02DC30BC00207047440F44EA79
:10072000C104C100E01830BC00EBC25000F0CEB8EC
:1007300030B50B46014600202022012409E021FAB1
:1007400002F59D4205D303FA02F5491B04FA02F5AE
:100750002844151EA2F10102F1DC30BD202A04DB81
:10076000203A00FA02F1002070479140C2F12003C4
:1007700020FA03F3194390407047202A04DB203A03
:1007800021FA02F00021704721FA02F3D040C2F1B1
:1007900020029140084319467047202A06DBCB17F8
:1007A000203A41FA02F043EAE07306E041FA02F32C
:1007B000D040C2F120029140084319467047000022
:1007C0000FB4002300B589B00CA900910B996FF00C
:1007D0000042CB601E4B06931E4B07930423CDE9CA
:1007E00001321D4A089202466B46002000F020FAB2
:1007F00009B05DF814FB70B586B006464FF0FF30C7
:100800000091CDE90101002015460C4604903246C6
:10081000694604A8FFF7D4FF02460498211825B1C1
:1008200008B1084600E020462860049800280DD052
:10083000002A02DD0098884208D0081B0094CDE908
:1008400001043246694604A8FFF7BAFF06B070BD3E
:10085000690E0008870E0008F50A00082DE9F04728
:1008600091460F4680460446002614F8015B2DB1E0
:1008700000F03CF90068405DC007F6D12B2D02D096
:100880002D2D18D0641E4A463946204600F00CFB38
:1008900027B13968A14201D1C7F8008071054FF036
:1008A00002040BD54042002803DD25F0CFFA046096
:1008B000A007BDE8F08746F48066E4E70028F8DA90
:1008C00025F0C4FA04606FF00040F2E70029A8BFE9
:1008D0007047401C490008BF20F00100704710B469
:1008E000B0FA80FC00FA0CF050EA010404BF10BC1E
:1008F000704749B1CCF1200421FA04F411FA0CF14B
:1009000018BF012121430843A3EB0C01CB1D4FEA83
:1009100000614FEA102042BF002010BC704700EB7E
:10092000C35010440029A4BF10BC7047401C4900AC
:1009300008BF20F0010010BC704710B5141E73F101
:10094000000408DA401C41F1000192185B411A438F
:1009500001D120F0010010BD2DE9F04D92469B46DB
:1009600011B1B1FA81F202E0B0FA80F22032904681
:10097000FFF7F4FE04460F4640EA0A0041EA0B0185
:1009800053465A46084313D0114653EA010019D082
:10099000C8F140025046FFF7F0FE05460E465046AD
:1009A00059464246FFF7DAFE084305D0012004E02D
:1009B00020463946BDE8F08D0020054346EAE07642
:1009C0002C4337430A986305E40AA0EB0800002291
:1009D000FD0A44EA47540A3002D500200146E9E7FF
:1009E000010510196941DDE9084500196941BDE8B3
:1009F000F04DA2E72DE9F04D00231A461B1A8A415B
:100A000003DB00200146BDE8F08DC1F30A52C1F3BB
:100A1000130141F480154FF0000BD10702D10018EB
:100A20006D41521E0027044640F2FF11384601EB8B
:100A3000620A3E468046024600204FF48011FFF7CE
:100A40009CFEC2197141BB1846EB0100B4EB030CCC
:100A500075EB000C04D3E41A65EB000517460E464F
:100A6000241908F101006D4180463428E3DDF919AD
:100A700046EB0600091BA84103D24FF0FF32134694
:100A800001E0002213461BEB070046EB0A51BDE8CC
:100A9000F04DFFF752BFC1F30A52C1F3130140F208
:100AA000FF3341F480119A4202DA00200146704778
:100AB00040F233439A42A2F2334202DC5242FFF741
:100AC0005CBEFFF74BBE0000064C074D06E0E06839
:100AD00040F0010394E8070098471034AC42F6D385
:100AE000FFF768FB242A0708442A070800487047D4
:100AF000AC29070810B50446FFF7F8FF0068005D51
:100B000000F0010010BD00002DE9FF4F087883B010
:100B10009946FF2805D0491C2D2804D00024002028
:100B200008E000200BE00124F9E700EB800003EB74
:100B30004000491C0B78FF2BF7D104B14042002341
:100B40000293147819461D462D2C01D02B2C04D16C
:100B5000521C2D2C13D000240294AA461478FF2C8A
:100B60000FD00A25A3FB057801FB05814FF0000C8F
:100B700003FB0C11521CE3194AEB0101EEE70124BF
:100B8000EAE7814453EA010002D019F5C87F06DA8A
:100B900003980021C0E9001107B0BDE8F08F0025DF
:100BA000AE4E2F46DFF8B882184600F0DAF9CDE9EC
:100BB0000001B9F1000002DAC9F1000400E00446C6
:100BC0000023A74A1AEB030B42EB045A12E0E0079A
:100BD00007D02A46334638464146FFF742FC0746CF
:100BE00088462A46334610461946FFF73AFC054622
:100BF0000E466410002CEAD1DDE90001B9F1000FC6
:100C00005A46534606DAFFF79EFC3A464346FFF73C
:100C10009AFC05E0FFF725FC3A464346FFF721FC26
:100C2000029A0AB181F00041039AC2E90001B3E7D8
:100C30002DE9FF4F1F468DB0D7E901464FF0FF3831
:100C40002E2045464FF000090B90B9696D1C0E9897
:100C50008847396A824688470028F6D1BAF1FF3FB3
:100C60000AD024F4D064002E11DDBAF12B0F08D085
:100C7000BAF12D0F0BD102E0404611B08DE744F4DC
:100C80008064B9696D1C0E9888478246761E694655
:100C9000600501D52D2000E02B208DF8000001F12A
:100CA000010B0DF1200809E0B9696D1C0E98884709
:100CB00082460F9844F40074761E0560002E02DD13
:100CC000BAF1300FF0D00B998A453ED144F0800440
:100CD00006E00F99681CA9F1010944F4007408604A
:100CE000B9696D1C761E0E98884782463028F0D070
:100CF0002BE00B998A4505D1200603D444F08004EB
:100D0000761E18E0504625F0DFF908B30DF1130107
:100D1000761E44F400748B4508D2AAF130000BF81B
:100D2000010B200607D5A9F1010003E0200602D43B
:100D300009F101008146A00502D50F99681C0860E1
:100D4000B9696D1C0E9888478246002ED1DC53E0AD
:100D5000002E51DDBAF1650F02D0BAF1450F4BD12B
:100D6000A00549D5B9696D1C24F44074761E0E980F
:100D700088478246002E0CDD2B2804D0BAF12D0FB7
:100D800007D144F48074B9696D1C0E988847824677
:100D9000761EE00501D52D2100E02B2108F8011B6E
:100DA000CDF82C8021E00DF12901761E44F4007469
:100DB00088450CD2AAF1300010F0FF0088F800003E
:100DC00002D10B99884509D908F1010806E0E00530
:100DD00001D5244801E042F20F708146B9696D1CCB
:100DE0000E98884782460F980560002E04DD504615
:100DF00025F06AF90028D6D1F9690E988847FF20B6
:100E00008BF8000088F800000020069007904B4601
:100E10006A4608A906A8FFF777FEA00502D46FF07E
:100E200001002AE714F0240F0AD0E00714D1DDE90D
:100E300006123868031D3B600068C0E900120BE031
:100E4000DDE90601FFF758FC0146E00704D13868E8
:100E5000021D3A600068016028460EE70000144059
:100E60000000F03FF1D8FFFF426842B1016811F87D
:100E7000013B23B1521EC0E9001218467047012100
:100E8000C160881E704742685AB1C368016843B99F
:100E900083688B4205D0491E521CC0E90012002015
:100EA00070474FF0FF3070472DE9F05F82460078C1
:100EB000002715468B460AF10104B946302801D0B7
:100EC0009DB113E014F8010B0127782803D05828AE
:100ED00001D045B10AE00DB1102D07D10027102532
:100EE00014F8010B02E0082500E00A250026B046B0
:100EF0000EE005FB080005FB06F1012701EB10469B
:100F00001FFA80F8B6F5803F00D3B94614F8010BFC
:100F1000294600F018F80028EBDABBF1000F05D0E5
:100F20000FB1641E00E05446CBF80040B9F1000F49
:100F300006D024F08BFF02210160C81EBDE8F09F9F
:100F400048EA0640FAE73A2800D2303820F020027A
:100F5000412A01D3A2F13700884201D34FF0FF307C
:100F600070470EB540F2334202920022CDE90022D2
:100F70001346FFF7F1FC03B000BD70B58C1810F8F4
:100F8000015B15F0070301D110F8013B2A1106D1CE
:100F900010F8012B03E010F8016B01F8016B5B1EE8
:100FA000F9D12B0705D40023521E0DD401F8013BC3
:100FB000FAE710F8013BCB1A921C03E013F8015B2F
:100FC00001F8015B521EF9D5A142D8D3002070BDB3
:100FD000164910B5887A0A2827D2DFE800F01A26C9
:100FE000222626262626051EC87AC97B114A00EB32
:100FF000C1015339C9B29FED0E0A02EB810152388B
:1010000081ED000AC0B227F07DFCBDE8104018F069
:10101000EDB9BDE8104029F0A9BEBDE8104028F0A8
:1010200031BABDE8104018F051BF10BD3C0200209D
:1010300000000000F4FF00200029816802D041F088
:10104000010101E021F0010181607047084B10B5FA
:10105000D3F8042307490A40D0E900142143D0E91A
:101060000240044321431143C3F8041310BD0000A0
:1010700000200140E030FCFF0029816802D041F4EB
:10108000807101E021F480718160704700298168DE
:1010900002D041F4007101E021F4007181607047D9
:1010A00030B542680F4B0C791A400B6842EA0422B3
:1010B0001343436082680C4B4D791A40D1E90343D6
:1010C00023438C6844EA4504234313438360C26A84
:1010D000097D22F47002491EC9B242EA0151C1627F
:1010E00030BD0000FFFEFFFCFDF7FFC070B5072616
:1010F00009290AD9C568A1F10A0404EB4404A640F1
:10110000B543A3401D43C56007E0056901EB4104F9
:10111000A640B543A3401D4305611F23072A09D2FA
:10112000446B521E02EB820293409C4391400C435D
:10113000446370BD0D2A09D2046BD21F02EB8202F8
:1011400093409C4391400C43046370BDC46A0D3AC4
:1011500002EB820293409C4391400C43C46270BDF9
:10116000816841F08041816070470000F0B5344BE8
:101170009FED320AA3F20C7783ED010A9FED310A4D
:10118000002183ED020ADFED2C0A08462E4EA3F162
:10119000A00597F833200AE017F800C0BCF1000F53
:1011A00003D155F820C0B4450CDB401CC0B28242CC
:1011B000F2D8012C06D0C3ED000AC3ED010AC3ED3D
:1011C000020AF0BD0020214C2AE017F800C0BCF153
:1011D000000F23D105EB800C9CED000A10EE10CA25
:1011E000B4451BDA04EB800C491C9CED001AC9B213
:1011F00030EE410A93ED011A70EE200AB4EEC10AF6
:10120000F1EE10FA01DD83ED010A93ED021AB4EE5E
:10121000C10AF1EE10FA01D283ED020A401CC0B2FD
:101220008242D2D800EE101AB8EE400A80EE801A40
:1012300083ED001AF0BD000000000000000048C36C
:10124000200A012000E0F94400E0F944F4FF002006
:101250000A48817A0D290BD2DFE801F00A0A0A0A4E
:10126000070D0D0D0D0A0A0A0B00C07A332802D0B3
:1012700070470348007825F0C1BD00003C02002003
:101280003000002000210D4A0846135C012B00D1DC
:101290000121401CC0B22828F7D30948012908D1F0
:1012A0000649503991F82A10012902D105490978D7
:1012B00011B1002118F0EABB0121FBE76403012012
:1012C00000040140460200201CB54FF4807001214B
:1012D00000908DF8041000208DF806008DF807109E
:1012E0008DF805006946024811F0E4F91CBD0000C4
:1012F00000000240FEE7000010B5074C0121204627
:1013000018F0C4FB4FF6FF7005F09AFB2046BDE8CD
:101310001040002118F0BABB0004014010B504468B
:1013200039202CF013F9E0B22CF034F9C4F3072083
:101330002CF030F9C4F307402CF02CF9200E2CF0DF
:1013400029F92CF0F3F8BDE8104024F099BC70B5F1
:10135000064614460D463C202CF0F8F8E8B22CF076
:1013600019F9280A2CF016F92CF0E0F80CB100203D
:1013700011E024F085FC1E280FD1304600F030F932
:1013800005463D202CF0E2F82CF0D0F82E44002C3D
:10139000EFD0208828442080EBE770BD10B514F012
:1013A000BFF908B100F069F8BDE81040302000F046
:1013B000B2B8312000F0AFB80146362000F09EB838
:1013C00010B508B100F0C5F8BDE81040342000F0B9
:1013D000A2B870B5054600F0A7F804000DD001468C
:1013E000284600F021F8412807D0142803D04228CD
:1013F00000D1B32070BD432070BD2819BDE87040F6
:10140000FFF7DEBF10B5044600F0A3F820785C2893
:1014100001D02F2803D10021642000F0F7F8BDE8A7
:101420001040322000F077B870B50E460021054616
:10143000012401E0641CE4B2285D5C2813D02F284D
:1014400011D00028F6D100246818FFF7DBFF002C2C
:1014500008D0B44206D041280AD0142806D0422829
:1014600000D1B32070BD641CE4B2EDE7432070BD31
:101470002146E1E7FF21FFF7D7BF10B522202CF06E
:1014800065F8322005F0DCFA2CF056F804462CF012
:101490004DF8204610BD2DE9F0412CF04DF80646E0
:1014A0002CF04AF805462CF047F804462CF044F896
:1014B00007462CF03BF846EA052040EA044040EAA3
:1014C0000760BDE8F08110B504460C202CF03EF812
:1014D00020462CF05FF8BDE81040FFF7DCBF10B5E8
:1014E00004460A202CF032F820462CF053F82CF059
:1014F00023F804462CF01AF8204610BD10B50C460F
:101500002CF024F820462CF045F82CF00FF8BDE81C
:10151000104024F0B5BB10B52CF018F82CF006F8EC
:10152000BDE8104024F0ACBB014600E0491C0A783D
:10153000002AFBD105E011F8012D5C2A03D02F2AE7
:1015400001D08142F7D1814200D0491C081AC0B2B3
:10155000704770B5054601202BF0F8FF2BF0ECFF2B
:10156000432828D22B20FFF7BAFF102823D22F20A0
:101570002BF0ECFF00202CF00DF83220FFF7CBFF12
:10158000142818D1CF20FFF7AAFF040013D04C2055
:10159000FFF799FF00EB04214C2000F037F85020B2
:1015A000FFF791FF00EB0421502000F02FF80021FD
:1015B000702000F02BF82F202BF0C8FF2C7806E0CD
:1015C00015F8014F5C2C01D02F2C00D100242046AF
:1015D0002BF0E0FF002CF3D1BDE870402BF0A6BF4C
:1015E00070B505462D202BF0B1FF2BF0A5FF04466A
:1015F000260007D028782BF0CDFF641E6D1C14F058
:10160000FF04F7D12BF092FF304670BD70B5054650
:101610000C460D202BF09AFF28462BF0BBFFE0B2C2
:101620002BF0B8FFC4F307202BF0B4FFC4F307403E
:101630002BF0B0FF200E2BF0ADFFBDE870402BF07B
:1016400075BF00002DE9F04188B00121812014F020
:1016500073F80121080314F0ABF8DFF8C880052205
:101660001146404611F062F805220621404611F06D
:101670005DF805220721404611F058F802258DF843
:1016800005508DF80450002420278DF8064000975F
:101690008DF807406946404611F00CF84020009054
:1016A0006946404611F006F88020009069464046A1
:1016B00011F000F81020012600908DF804608DF8DC
:1016C00006406946404610F0F5FF8DF8044000974B
:1016D0008DF807606946144810F0ECFFADF808403B
:1016E0004FF48270ADF80A00ADF810602802ADF832
:1016F00012003820ADF81400ADF80C40ADF81640DB
:1017000007200A4CADF81800ADF80E5002A920468B
:1017100017F0CBFD0121204617F0C4FB08B0BDE84F
:10172000F081000000000240001C02400030014037
:10173000F0B5FF231A46002518E0445D62400024FE
:1017400002F0010613F0010F4FEA53034FEA520271
:1017500001D042F080021EB183F0A00382F00102AA
:10176000641CE4B2082CEBD36D1CEDB28D42E4D3C3
:1017700042EA0320F0BD00002DE9F047FE48FF4F8C
:10178000FF4C00784FF482754FF4AA764FF47048FE
:101790004FF4A57940B1012874D0022873D00328F2
:1017A00072D0042871D025E32078012801D028B117
:1017B0000FE0882012F016FB384603E0882012F074
:1017C00011FB404612F02AFBEEA20A21642011F020
:1017D00033FF6078012801D028B10FE0882012F093
:1017E00001FB384603E0882012F0FCFA404612F074
:1017F00015FBE5A20A21B42011F01EFFA0780128F4
:1018000001D028B10FE0882012F0ECFA384603E04E
:10181000882012F0E7FA404612F000FBDBA20A2112
:10182000284611F009FFE078012801D028B10FE027
:10183000882012F0D7FA384603E0882012F0D2FA56
:10184000404612F0EBFAD2A20A21304611F0F4FE23
:101850002079012801D028B10FE0882012F0C2FAC7
:10186000384603E0882012F0BDFA404612F0D6FA5E
:10187000C8A24946642011F0DFFE6079012805D036
:1018800048B113E039E0CEE063E133E2882012F0A2
:10189000A9FA384603E0882012F0A4FA404612F074
:1018A000BDFABDA24946B42011F0C6FEA0790128B8
:1018B00001D028B10FE0882012F094FA384603E0F6
:1018C000882012F08FFA404612F0A8FAB3A24946D7
:1018D000284611F0B1FEE079012801D028B189E253
:1018E000882012F07FFA384603E0882012F07AFA56
:1018F000404612F093FAAAA278E2207A01284FF02B
:10190000880070D012F06EFA404612F087FAA5A255
:101910000A21642011F090FE607A01284FF08800BF
:1019200065D012F05FFA404612F078FA9EA20A21C2
:10193000B42011F081FEA07A01284FF088005AD01F
:1019400012F050FA404612F069FA98A20A2128468D
:1019500011F072FEE07A01284FF088004FD012F0AB
:1019600041FA404612F05AFA91A20A21304611F08B
:1019700063FE207B01284FF0880044D012F032FA39
:10198000404612F04BFA8BA24946642011F054FEF7
:10199000607B01284FF0880039D012F023FA4046CE
:1019A00012F03CFA84A24946B42011F045FEA07B17
:1019B00001284FF088002ED012F014FA404612F0A1
:1019C0002DFA7EA24946284611F036FEE07B01281A
:1019D0004FF0880023D012F005FA404612F01EFAAC
:1019E00077A203E2FFE712F0FDF938468DE712F027
:1019F000F9F9384698E712F0F5F93846A3E712F0FE
:101A0000F1F93846AEE712F0EDF93846B9E712F0D1
:101A1000E9F93846C4E712F0E5F93846CFE712F0A5
:101A2000E1F93846DAE7207C01284FF0880070D0D1
:101A300012F0D8F9404612F0F1F962A20A216420AE
:101A400011F0FAFD607C01284FF0880065D012F09B
:101A5000C9F9404612F0E2F95BA20A21B42011F064
:101A6000EBFDA07C01284FF088005AD012F0BAF9A3
:101A7000404612F0D3F955A20A21284611F0DCFDA8
:101A8000E07C01284FF088004FD012F0ABF94046BF
:101A900012F0C4F94EA20A21304611F0CDFD207D8E
:101AA00001284FF0880044D012F09CF9404612F013
:101AB000B5F948A24946642011F0BEFD607D0128B9
:101AC0004FF0880039D012F08DF9404612F0A6F997
:101AD00041A24946B42011F0AFFDA07D01284FF08E
:101AE00088002ED012F07EF9404612F097F93BA202
:101AF0004946284611F0A0FDE07D01284FF08800FE
:101B000023D012F06FF9404612F088F934A26DE14B
:101B1000FFE712F067F938468DE712F063F93846AF
:101B200098E712F05FF93846A3E712F05BF9384600
:101B3000AEE712F057F93846B9E712F053F93846D4
:101B4000C4E712F04FF93846CFE712F04BF93846A8
:101B5000DAE7207E01284FF088007DD012F042F9AC
:101B6000404612F05BF91FA20A21642011F064FDC7
:101B7000607E012838E000004802002093551700DD
:101B80001403012030303100303032003030330067
:101B900030303400303035003030360030303700EF
:101BA00030303800303039003031300030313100E1
:101BB00030313200303133003031340030313500D3
:101BC00030313600303137003031380030313900B3
:101BD00030323000303231003032320030323300B7
:101BE00030323400303235004FF0880066D012F0C9
:101BF000F9F8404612F012F999A20A21B42011F026
:101C00001BFDA07E01284FF088005BD012F0EAF89F
:101C1000404612F003F993A20A21284611F00CFD68
:101C2000E07E01284FF0880050D012F0DBF84046EB
:101C300012F0F4F88CA20A21304611F0FDFC207F4E
:101C400001284FF0880045D012F0CCF8404612F041
:101C5000E5F886A2494600E02CE0642011F0ECFC97
:101C6000607F01284FF0880038D012F0BBF8404662
:101C700012F0D4F87EA24946B42011F0DDFCA07F1A
:101C800001284FF088002DD012F0ACF8404612F039
:101C9000C5F878A24946284611F0CEFCE07F01281D
:101CA0004FF0880022D012F09DF8404612F0B6F8AE
:101CB00071A29BE012F096F8384652E712F092F8C3
:101CC000384697E712F08EF83846A2E712F08AF805
:101CD0003846ADE712F086F83846B8E712F082F8D9
:101CE0003846C5E712F07EF83846D0E712F07AF8A9
:101CF0003846DBE794F8200001284FF088007DD0BB
:101D000012F070F8404612F089F85CA20A216420B3
:101D100011F092FC94F8210001284FF088006ED059
:101D200012F060F8404612F079F855A20A21B4206A
:101D300011F082FC94F8220001284FF0880074D042
:101D400012F050F8404612F069F84EA20A212846D7
:101D500011F072FC94F8230001284FF0880068D03D
:101D600012F040F8404612F059F847A20A213046D6
:101D700011F062FC94F8240001284FF088005CD038
:101D800012F030F8404612F049F840A2494664206B
:101D900011F052FC94F8250001284FF0880050D033
:101DA00012F020F8404612F039F839A24946B42022
:101DB00011F042FC94F8260001284FF0880044D02E
:101DC00012F010F8404612F029F832A2494628468F
:101DD00011F032FC94F8270001284FF0880038D029
:101DE00012F000F8404612F019F82BA2494630468E
:101DF00011F022FC29490120C87001E00CE010E03C
:101E0000FFF77AFA94F8300038B325A005F0F2FA1B
:101E1000BDE8F04717F0EABA11F0E4FF384672E780
:101E200003E011F0DFFF38467DE711F0DBFF3846B5
:101E300089E711F0D7FF384695E711F0D3FF384610
:101E4000A1E711F0CFFF3846ADE711F0CBFF3846E0
:101E5000B9E711F0C7FF3846C5E714A0D6E7000080
:101E6000303236003032370030323800303239000C
:101E70003033300030333100303332003033330010
:101E800030333400303335003033360030333700F0
:101E9000303338003033390030343000C401002092
:101EA0004368616E6E656C2073657400CDA8B5C023
:101EB000C9E8D6C3000000002DE9F05FFA48DFF85A
:101EC000ECA3FB4C00784FF482754FF496764FF4F8
:101ED000AA784FF4BE794FF4704B10B101286ED040
:101EE0003EE32078012801D028B10FE0882011F0CE
:101EF00079FF504603E0882011F074FF584611F036
:101F00008DFFECA20A21642001F006FC6078012814
:101F100001D028B10FE0882011F064FF504603E0A3
:101F2000882011F05FFF584611F078FFE2A20A21E5
:101F30008C2001F0F1FBA078012801D028B10FE03E
:101F4000882011F04FFF504603E0882011F04AFF2F
:101F5000584611F063FFD9A20A21B42001F0DCFB3E
:101F6000E078012801D028B10FE0882011F03AFF75
:101F7000504603E0882011F035FF584611F04EFF1F
:101F8000CFA20A21DC2001F0C7FB2079012801D073
:101F900028B10FE0882011F025FF504603E088208B
:101FA00011F020FF584611F039FFC6A20A21284639
:101FB00001F0B2FB6079012802D030B110E0C8E135
:101FC000882011F00FFF504603E0882011F00AFF2F
:101FD000584611F023FFBCA20A21304601F09CFBB9
:101FE000A079012801D028B10FE0882011F0FAFE75
:101FF000504603E0882011F0F5FE584611F00EFF20
:10200000B2A20A21404601F087FBE079012801D005
:1020100028B10FE0882011F0E5FE504603E088204B
:1020200011F0E0FE584611F0F9FEA9A20A21484637
:1020300001F072FB94F8330008286FD9207A4FF42E
:10204000A577012801D028B10FE0882011F0CAFE41
:10205000504603E0882011F0C5FE584611F0DEFE20
:102060009CA23946642001F057FB607A012801D018
:1020700028B10FE0882011F0B5FE504603E088201B
:1020800011F0B0FE584611F0C9FE93A239468C20DB
:1020900001F042FBA07A012801D028B10FE088208E
:1020A00011F0A0FE504603E0882011F09BFE584638
:1020B00011F0B4FE89A23946B42001F02DFBE07A7C
:1020C000012801D028B10FE0882011F08BFE504686
:1020D00003E0882011F086FE584611F09FFE80A292
:1020E0003946DC2001F018FB207B012801D028B103
:1020F0000FE0882011F076FE504603E0882011F0B2
:1021000071FE584611F08AFE76A23946284601F043
:1021100003FB607B012802D030B110E039E0882059
:1021200011F060FE504603E0882011F05BFE584637
:1021300011F074FE6CA23946304601F0EDFAA07B36
:10214000012801D028B10FE0882011F04BFE504645
:1021500003E0882011F046FE584611F05FFE63A2AE
:102160003946404601F0D8FAE07B012801D028B179
:102170000FE0882011F036FE504603E0882011F071
:1021800031FE584611F04AFE59A23946484601F040
:10219000C3FA94F8330010286FD9207C4FF4CD7720
:1021A000012801D028B10FE0882011F01BFE504615
:1021B00003E0882011F016FE584611F02FFE4DA2C4
:1021C0003946642001F0A8FA607C012801D028B1CA
:1021D0000FE0882011F006FE504603E0882011F041
:1021E00001FE584611F01AFE43A239468C2001F038
:1021F00093FAA07C012801D028B10FE0882011F0CB
:10220000F1FD504603E0882011F0ECFD584611F036
:1022100005FE3AA23946B42001F07EFAE07C01289E
:1022200001D028B10FE0882011F0DCFD504603E01A
:10223000882011F0D7FD584611F0F0FD30A2394644
:10224000DC2001F069FA207D012801D028B10FE0DF
:10225000882011F0C7FD504603E0882011F0C2FD30
:10226000584611F0DBFD27A23946284601F054FA02
:10227000607D012802D030B110E071E1882011F0BA
:10228000B1FD504603E0882011F0ACFD584611F036
:10229000C5FD1DA23946304601F03EFAA07D012859
:1022A00034D000B142E036E04802002093551700D8
:1022B0001403012030303100303032003030330030
:1022C00030303400303035003030360030303700B8
:1022D00030303800303039003031300030313100AA
:1022E000303132003031330030313400303135009C
:1022F000303136003031370030313800303139007C
:10230000303230003032310030323200882011F06B
:1023100069FD504603E0882011F064FD584611F035
:102320007DFDBAA23946404601F0F6F9E07D01286C
:1023300001D028B114E1882011F054FD504603E08B
:10234000882011F04FFD584611F068FDB0A23946C3
:1023500003E1207E01284FF088007CD011F042FD7F
:10236000584611F05BFDABA20A21642001F0D4F9BC
:10237000607E01284FF088006ED011F033FD584682
:1023800011F04CFDA4A20A218C2001F0C5F9A07E19
:1023900001284FF088007DD011F024FD584611F03F
:1023A0003DFD9EA20A21B42001F0B6F9E07E01288D
:1023B0004FF088006FD011F015FD584611F02EFD3A
:1023C00097A20A21DC2001F0A7F9207F01284FF015
:1023D00088007DD011F006FD584611F01FFD91A236
:1023E0000A21284601F098F9607F01284FF0880003
:1023F0006FD011F0F7FC584611F010FD8AA20A21A7
:10240000304601F089F9A07F01284FF088007DD087
:1024100011F0E8FC584611F001FD84A20A21404663
:1024200001F07AF9E07F01284FF088006FD011F0B9
:10243000D9FC584611F0F2FC7DA20A21484601F071
:102440006BF994F8200001284FF088007ED011F03D
:10245000C9FC584601E092E096E011F0DFFC75A25D
:10246000D221642001F058F994F8210001284FF09E
:1024700088006CD011F0B6FC584611F0CFFC6EA26B
:10248000D2218C2001F048F994F8220001284FF065
:10249000880001E07CE07FE075D011F0A3FC584695
:1024A00011F0BCFC65A2D221B42001F035F994F8FA
:1024B000230001284FF0880072D011F093FC584699
:1024C00011F0ACFC5EA2D221DC2001F025F901E084
:1024D00067E06AE094F8240001284FF0880070D08B
:1024E00011F080FC584611F099FC56A2D2212846E2
:1024F00001F012F994F8250001284FF0880077D0F8
:1025000011F070FC584611F089FC01E051E054E0F4
:102510004DA2D221304601F0FFF894F826000128A0
:102520004FF0880068D011F05DFC584611F076FC41
:1025300046A2D221404601F0EFF894F82700012886
:102540004FF088005CD011F04DFC01E03BE03EE034
:10255000584611F063FC3EA2D221484601F0DCF857
:102560003C490120C870FEF7C7FE94F8300048B31C
:1025700039A004F03FFFBDE8F05F16F037BF11F05F
:1025800031FC5046EDE626E011F02CFC5046F7E613
:1025900011F028FC504602E711F024FC50460DE7EC
:1025A0001EE011F01FFC504617E711F01BFC5046CF
:1025B00022E711F017FC50462DE711F013FC5046AE
:1025C00038E711E020E011F00DFC504642E711F031
:1025D00009FC504651E711F005FC504660E707E062
:1025E00011F000FC50466BE711F0FCFB50467AE717
:1025F00011F0F8FB504686E711F0F4FB504695E7E2
:1026000011F0F0FB5046A4E716A0B2E730323300D9
:10261000303234003032350030323600303237005C
:10262000303238003032390030333000303331004E
:102630003033320030333300303334003033350040
:102640003033360030333700303338003033390020
:1026500030343000C40100204368616E6E656C2028
:1026600073657400CDA8B5C0C9E8D6C300000000EA
:102670002DE9F05FF84CDFF8E4A34FF4704B2078BD
:10268000012801D028B10FE0882011F0ABFB5046A3
:1026900003E0882011F0A6FB584611F0BFFBF0A222
:1026A0000A21642001F06EF86078012801D028B179
:1026B0000FE0882011F096FB504603E0882011F0CF
:1026C00091FB584611F0AAFBE6A20A218C2001F0EA
:1026D00059F8A078012801D028B10FE0882011F026
:1026E00081FB504603E0882011F07CFB584611F036
:1026F00095FBDDA20A21B42001F044F8E07801281E
:1027000001D028B10FE0882011F06CFB504603E0A7
:10271000882011F067FB584611F080FBD3A20A21F4
:10272000DC2001F02FF820794FF48275012801D0C8
:1027300028B10FE0882011F055FB504603E08820B7
:1027400011F050FB584611F069FBC9A20A21284636
:1027500001F018F860794FF49676012801D028B17D
:102760000FE0882011F03EFB504603E0882011F076
:1027700039FB584611F052FBBEA20A21304601F047
:1027800001F8A0794FF4AA79012801D028B10FE00F
:10279000882011F027FB504603E0882011F022FB2F
:1027A000584611F03BFBB4A20A21484600F0EAFF6C
:1027B000E0794FF4BE78012801D028B10FE08820DD
:1027C00011F010FB504603E0882011F00BFB584637
:1027D00011F024FBA9A20A21404600F0D3FF94F88F
:1027E0003300082872D9207A012801D028B10FE0DF
:1027F000882011F0F7FA504603E0882011F0F2FA31
:10280000584611F00BFB9EA28621642000F0BAFF0F
:10281000607A012801D028B10FE0882011F0E2FA97
:10282000504603E0882011F0DDFA584611F0F6FA20
:1028300094A286218C2000F0A5FFA07A012801D067
:1028400028B10FE0882011F0CDFA504603E088202F
:1028500011F0C8FA584611F0E1FA8BA28621B42093
:1028600000F090FFE07A012801D028B10FE0882025
:1028700011F0B8FA504603E0882011F0B3FA584638
:1028800011F0CCFA81A28621DC2000F07BFF207BB6
:10289000012801D028B10FE0882011F0A3FA50469A
:1028A00003E0882011F09EFA584611F0B7FA78A29A
:1028B0008621284600F066FF607B012801D030B1F8
:1028C00010E0882011F08EFA504604E034E08820B1
:1028D00011F088FA584611F0A1FA6EA2862130460E
:1028E00000F050FFA07B012801D028B10FE0882024
:1028F00011F078FA504603E0882011F073FA584638
:1029000011F08CFA64A28621484600F03BFFE07B80
:10291000012801D028B10FE0882011F063FA504659
:1029200003E0882011F05EFA584611F077FA5BA2B6
:102930008621404600F026FF94F8330010286FD916
:10294000207C4FF48177012801D028B10FE0882046
:1029500011F048FA504603E0882011F043FA584637
:1029600011F05CFA4EA23946642000F00BFF607C47
:10297000012801D028B10FE0882011F033FA504629
:1029800003E0882011F02EFA584611F047FA45A2CC
:1029900039468C2000F0F6FEA07C012801D028B139
:1029A0000FE0882011F01EFA504603E0882011F055
:1029B00019FA584611F032FA3BA23946B42000F019
:1029C000E1FEE07C012801D028B10FE0882011F061
:1029D00009FA504603E0882011F004FA584611F035
:1029E0001DFA32A23946DC2000F0CCFE207D012801
:1029F00001D028B10FE0882011F0F4F9504603E02F
:102A0000882011F0EFF9584611F008FA28A239464B
:102A1000284600F0B7FE607D012802D030B110E0FA
:102A2000C6E1882011F0DEF9504603E0882011F05D
:102A3000D9F9584611F0F2F91EA23946304600F095
:102A4000A1FEA07D012801D028B140E0882011F02E
:102A5000C9F9504634E02FE01403012093551700C4
:102A6000303031003030320030303300303034001C
:102A700030303500303036003030370030303800FC
:102A800030303900303130003031310030313200F7
:102A900030313300303134003031350030313600E0
:102AA00030313700303138003031390030323000C9
:102AB0003032310030323200882011F093F958461C
:102AC00011F0ACF9C3A23946484600F05BFEE07D48
:102AD000012801D028B10FE0882011F083F9504679
:102AE00003E0882011F07EF9584611F097F9BAA258
:102AF0003946404600F046FE207E4FF4BF7701285D
:102B000001D028B10FE0882011F06CF9504603E0A5
:102B1000882011F067F9584611F080F9AFA23946C4
:102B2000642000F02FFE607E012801D028B10FE064
:102B3000882011F057F9504603E0882011F052F92F
:102B4000584611F06BF9A6A239468C2000F01AFE07
:102B5000A07E012801D028B10FE0882011F042F9B1
:102B6000504603E0882011F03DF9584611F056F91F
:102B70009CA23946B42000F005FEE07E012801D079
:102B800028B10FE0882011F02DF9504603E088208D
:102B900011F028F9584611F041F993A23946DC208A
:102BA00000F0F0FD207F012801D028B10FE088203F
:102BB00011F018F9504603E0882011F013F9584637
:102BC00011F02CF989A23946284600F0DBFD607F20
:102BD000012801D028B10FE0882011F003F95046F8
:102BE00003E0882011F0FEF8584611F017F980A292
:102BF0003946304600F0C6FDA07F012801D028B13B
:102C00000FE0882011F0EEF8504603E0882011F024
:102C1000E9F8584611F002F976A23946484600F024
:102C2000B1FDE07F012801D028B10FE0882011F02C
:102C3000D9F8504603E0882011F0D4F8584611F036
:102C4000EDF86DA23946404600F09CFD94F8200056
:102C50004FF4FD77012801D028B10FE0882011F052
:102C6000C1F8504603E0882011F0BCF8584611F036
:102C7000D5F862A23946642000F084FD94F8210062
:102C8000012801D028B10FE0882011F0ABF85046A0
:102C900003E0882011F0A6F8584611F0BFF858A2BA
:102CA00039468C2000F06EFD94F82200012801D0F6
:102CB00028B10FE0882011F095F8504603E08820F5
:102CC00011F090F8584611F0A9F84EA23946B420F8
:102CD00000F058FD94F82300012801D028B10FE03E
:102CE000882011F07FF8504603E0882011F07AF830
:102CF000584611F093F844A23946DC2000F042FD1A
:102D000094F82400012801D028B10FE0882011F0A8
:102D100069F8504603E0882011F064F8584611F035
:102D20007DF83AA23946284600F02CFD94F825009B
:102D3000012801D028B10FE0882011F053F8504647
:102D400003E0882011F04EF8584611F067F830A2E1
:102D50003946304600F016FD94F82600012801D0CF
:102D600028B10FE0882011F03DF8504603E088209C
:102D700011F038F8584611F051F826A23946484665
:102D800000F000FD94F82700012801D028B10FE0E1
:102D9000882011F027F8504603E0882011F022F82F
:102DA000584611F03BF81CA23946404600F0EAFCB8
:102DB0001A490120C870FEF79FFA94F8300030B12C
:102DC00017A004F017FBBDE8F05F16F00FBB17A0CB
:102DD000F7E7000030323300303234003032350053
:102DE000303236003032370030323800303239007D
:102DF0003033300030333100303332003033330081
:102E00003033340030333500303336003033370060
:102E1000303338003033390030343000C401002002
:102E20004368616E6E656C2073657400CDA8B5C093
:102E3000C9E8D6C30000000070B504461A481D4D0D
:102E400000EB840010ED010A184800EB840050EDFF
:102E5000010A174800EB840030EE600A50ED010AC9
:102E6000B4EEE00AF1EE10FA09D3134800EB840047
:102E700050ED010AB4EEE00AF1EE10FA05DD0D485E
:102E8000503890F82C00012807D088216FF07F403F
:102E900010F0AEFF0020285570BD88214FF47F0050
:102EA00010F0A6FF0120F6E780090120F4FF0020C2
:102EB000EC030020640301204C03002070B5374967
:102EC00005460024086810F0450FFBD0410702D5E5
:102ED0000324042003E0C00704D00124204614F09A
:102EE000A5FE59E014F0DEFEA8422BD140F2FF50BF
:102EF00014F09CFE002014F0F7FE294908424BD044
:102F0000002801DA1C2070BD410001D5092070BDE8
:102F1000810001D50A2070BDC10001D50B2070BD14
:102F2000010101D50C2070BD410101D50D2070BDFE
:102F3000C10101D50E2070BD010201D50F2070BD69
:102F4000410201D5102070BD810201D5112070BD54
:102F5000C10201D5122070BD010301D5132070BD3F
:102F6000410301D5142070BD810301D5152070BD2A
:102F7000C10301D5162070BD010401D5172070BD15
:102F8000410401D5182070BD810401D5192070BD00
:102F9000000701D51A2070BD204670BD342C0140B9
:102FA00008E0FFFD10B50B4A0024116811F0450F31
:102FB000FBD0480702D50324042003E0C80705D04E
:102FC0000124204614F032FE204610BD40F2FF508E
:102FD000F8E70000342C014070B50C46194906464C
:102FE0000025086810F0450FFBD0410702D50324E7
:102FF000042003E0C00705D00124204614F016FE8B
:10300000204670BD14F04EFEB04212D140F2FF5087
:1030100014F00CFE002014F067FE10F4604F03D093
:10302000810404D5132070BD000C208007E041040A
:1030300001D5102070BD000401D50F2070BD2846B9
:1030400070BD0000342C01401CB51F481FA1214C4D
:10305000098841811E4861790088401E00EB80008C
:1030600001EB400000EB800101EBC0001A49014474
:1030700015480D390A30FDF70AF918486278817948
:10308000CDE900124379027915A10F4822F0CAFE5A
:103090000D4901F10A00FDF7FAF80B4814A10A30B6
:1030A000FDF7F5F808490A220A31134824F0F2FA2C
:1030B000E07030B111A004F09DF9BDE81C4012F0A1
:1030C00063BC11A0F7E700002C0A0120303A000091
:1030D0002C000020AC010020F82A0120A0020020D2
:1030E0002F25303264253032642530326425640067
:1030F0002E786C7300000000D41A0120B4B4BDA86F
:10310000CAA7B0DC00000000B4B4BDA8CEC4BCFEA9
:10311000B3C9B9A60000000010B50B460C0601F0BB
:103120007F0202EB820100EBC10102D501F58E7135
:1031300001E001F55D710A70DA094A7021F0A7FD1E
:10314000002010BD0A4610B5090602F07F0306D51F
:1031500003EB830100EBC10101F58E7105E002EB89
:10316000820100EBC10101F55D7100248C700B70D0
:10317000D2094A7021F072FD002010BD10B50A0678
:1031800004D501F07F0121F0A5FE01E021F084FECD
:10319000002010BD70B50D460E0601F07F0404EB53
:1031A000840100EBC10102D501F58E7101E001F54A
:1031B0005D71ED090C704D708A60CB7000D0CC80D1
:1031C000022B01D100220A7121F014FD002070BDF4
:1031D00010B501F07F0404EB840100EBC101C1F8DC
:1031E0008833C1F880230023C1F88C3381F875330C
:1031F00081F87443C37801F55D71012B00D10A6138
:1032000014F0FF0F03D021F081FD002010BD21F04C
:1032100082FCFAE70069002261F30A120168114397
:10322000016070470A4610B5090602F07F0306D513
:1032300003EB830100EBC10101F58E7105E002EBA8
:10324000820100EBC10101F55D7101248C700B70EE
:10325000D2094A7021F042FD002010BD70B511F076
:103260007F0404EB840100EBC1014FF0010581F8FC
:103270001D5181F81C41C1F82821C1F82C2101F50C
:103280008E714FF00002C1E9053203D021F03EFDFE
:10329000002070BD21F03FFCFAE700002DE9F0416D
:1032A0000646002421F05FFE074655E0F80751D09E
:1032B0003069E1B20369426BCA4006EB810102F05A
:1032C0000102896943EAC2128D681540E9071AD0E4
:1032D0000125426B05FA04F18A43426306EB840040
:1032E000806985601F48E1B20068426830469047B7
:1032F000F078012807D134B996F81101042802D1D9
:10330000304621F065FC280704D506EB840008252B
:1033100080698560E80604D506EB84001025806985
:103320008560680604D506EB8400402580698560C9
:10333000A80704D506EB840002258069856028066D
:1033400008D52146304600F06CF906EB8401802058
:10335000896988607F08641C002FA7D10120BDE81F
:10336000F0810000700000202DE9F04105460024A6
:1033700021F0FFFD0746DFF8988043E0F8073FD0D3
:10338000E1B2284621F0FBFD0646C00725D005EB3B
:1033900084000126416D8E60E97801290CD1406DD1
:1033A000016904EB840005EBC000C1F31201D0F801
:1033B0007C23511AC0F88C13D8F80000E1B20268DF
:1033C00028469047E878012807D134B995F81101CB
:1033D000052802D1284621F0FBFBB00704D505EBF8
:1033E00084000226406D8660300709D5D8F80000B9
:1033F00081682846884705EB84010820496D88606C
:103400007F08641C002FB9D10120BDE8F0810000C5
:103410007000002070B50546C068816921F0100178
:103420008161E868066A06F00F0000EB800005EB9A
:10343000C004C6F3434004F55D74072821D2DFE8D9
:1034400000F0202004202020150047F6F0700642EE
:1034500017D0C6F30A1632462846E16821F097FDD8
:10346000E0683044E060A069304409E0082205F2D9
:10347000CC51284621F08BFDA069C6F30A110844FF
:10348000A061E868816941F010018161012070BD8F
:1034900038B5044600208DF8000094F812018DF82C
:1034A0000000154800684169204688472069806807
:1034B000E2684FF400615161A17AD1B1C00718D020
:1034C00094F81501012814D19DF80000032810D1AB
:1034D000D4F80C01016841F001010160D4F80C013D
:1034E000016841F0030101600448016841F00601F0
:1034F0000160012038BD00007000002010ED00E0E8
:1035000070B50446006900250126416821F00101DB
:1035100041602946204621F0DDFC0020FF2206E024
:1035200004EB80018B699A60496D8A60401C617868
:103530008142F5D821694FF0FF3088612846216922
:1035400066F30F0066F31F40C861216945F00B0068
:1035500048612169C1F88400216945F00B000861C8
:10356000216948642069016821F4FE6101602046F8
:1035700021F02EFBE1684FF4805048610348006859
:10358000016920468847012070BD000070000020BE
:1035900070B5044621F00CFD0120002384F81201CF
:1035A00084F814311A46402510E002EB820104EB46
:1035B000C10181F81D0181F81C21A1F8222181F8A7
:1035C0001F31C1E94953521CC1F830316178914231
:1035D000EBD8002010E000EB800104EBC10181F882
:1035E000753381F87403A1F87A0381F87733C1E960
:1035F000DF53401CC1F8883361788142EBD8204604
:1036000021F064FA204621F041F90021204621F002
:103610002FFD204621F07AF92046BDE8704021F0C8
:1036200033BC2DE9F0470E4601EB860100EBC104E7
:103630008046D4E94C01401AD4F8241104F58E7464
:10364000814200D20846C01C870808EB86091EE0AC
:10365000451AA068A84200D20546E81C8708ABB20C
:10366000F2B24046E16821F018FDE0682844E060CD
:10367000A0692844A0616169884208D320780121AB
:103680008140D8F81000426B8A4342630BE0D9F8BE
:103690001800806980B2B84205D9D4E90501814299
:1036A00001D20028D4D10120BDE8F0872DE9F041F6
:1036B00015460C468046154E4FF4207719E0802AB7
:1036C0000BD21348B061214640460FF045FFB06968
:1036D0006D1C8088204484B20BE00E48B0612A46FD
:1036E0002146404600F0C2F9B069AD1C80882044F4
:1036F00084B2BC4208D22A78002A05D0B0698088FA
:10370000011989B28142DAD2BDE8F0811C020020A1
:10371000EC0200202C0300202DE9F04115460C4658
:103720008046154E4FF4207719E0802A0BD21348BB
:10373000B061214640460FF00FFFB0696D1C8088D4
:10374000204484B20BE00E48B0612A462146404630
:103750000FF018FFB069AD1C8088204484B2BC42D1
:1037600008D22A78002A05D0B0698088011989B268
:103770008142DAD2BDE8F0811C020020E402002080
:103780001C0300202DE9F04115460C468046154EDD
:103790004FF4207719E0802A0BD21348B0612146FC
:1037A00040460FF0D9FEB0696D1C8088204484B279
:1037B0000BE00E48B0612A462146404600F0FCF876
:1037C000B069AD1C8088204484B2BC4208D22A78FB
:1037D000002A05D0B0698088011989B28142DAD205
:1037E000BDE8F0811C020020D40200203403002038
:1037F0002DE9F04F334EDFF8D0A0DFF8D080DFF8AE
:10380000D09085B0002443F2FF3B8821084610F099
:10381000EFFAC4EBC40000EB800000F12805202380
:10382000C8222946462010F003F88821584610F097
:10383000DFFA621C27A103A822F0F4FA284603AAA3
:103840000A210FF0C3FE284623A232210FF0BEFE4C
:103850007079671C874202D15146002001E088211F
:10386000504610F0C5FAB8F8000000EB800004EBF9
:10387000400000EB800101EBC00101EB090228468A
:103880004621823A0FF0A2FEFCB20A2CBDD3882159
:10389000504610F0ADFAB379B8F800200FA1684691
:1038A00022F0C0FA6A464FF4FA714FF4C8700FF074
:1038B0008DFE0C490D20087008F0CEF905B0BDE86A
:1038C000F08F0000AC01002000FFFF002C00002062
:1038D000343A0120256400002E00000025642F25C5
:1038E00064000000460200202DE9F0472A4EDFF870
:1038F000AC90DFF8AC80DFF8ACA086B00024882163
:10390000484610F075FA621C27A103A822F08AFA33
:10391000C4EBC40000EB80002830054603AA0A214E
:103920000FF054FE284621A232210FF04FFE70798D
:10393000671C874202D14946002001E088214846A1
:1039400010F056FAB8F8000000EB800004EB4000DD
:1039500000EB800101EBC00101EB0A022846462181
:10396000823A0FF033FEFCB20A2CC8D388214846B5
:1039700010F03EFA3379B8F800200DA1684622F025
:1039800051FA6A464FF4FA714FF4C8700FF01EFEF8
:1039900006B0BDE8F0870000AC01002000FFFF008A
:1039A0002C000020F82A0120256400002E000000D1
:1039B00025642F25640000002DE9F04116460F46CE
:1039C000804600240D4D0FE032788A420AD105EB83
:1039D000400271785078814204D139464046921CA9
:1039E0000FF09CFE641CA4B204EB440000EB041036
:1039F00015F810108029E7D8BDE8F08189F705088F
:103A00002DE9F04115460C468046154E4FF42077BF
:103A100019E0802A0BD21348B061214640460FF0CE
:103A20009BFDB0696D1C8088204484B20BE00E4879
:103A3000B0612A462146404600F018F8B069AD1C36
:103A40008088204484B2BC4208D22A78002A05D05B
:103A5000B0698088011989B28142DAD2BDE8F0816B
:103A60001C02002004030020240300202DE9F04163
:103A700016460F46804600240C4D0EE032788A42EE
:103A800009D1421971785078814204D139464046B3
:103A9000921C0FF043FE641CA4B204EB8400C0EB44
:103AA0008410295C8029E9D8BDE8F08144DA050852
:103AB0002DE9F04115460C468046154E4FF420770F
:103AC00019E0802A0BD21348B061214640460FF01E
:103AD00043FDB0696D1C8088204484B20BE00E4821
:103AE000B0612A4621464046FFF7C0FFB069AD1CD1
:103AF0008088204484B2BC4208D22A78002A05D0AB
:103B0000B0698088011989B28142DAD2BDE8F081BA
:103B10001C0200200C030020240300202DE9F041AA
:103B2000204E15460C4680466BB3012B38D18821B8
:103B3000084610F05DF928239022414620460FF0F8
:103B400077FEBDE8F04188216FF07F4010F050B95A
:103B5000802A0BD21448B061214640460FF0FCFC8D
:103B6000B0696D1C8088204484B20EE00F48B061BB
:103B70002A46214640460FF005FDB069AD1C8088FD
:103B8000204484B201E04FF42077BC4208D22A7866
:103B9000002A05D0B0698088011989B28142D7D244
:103BA000BDE8F0811C020020F40200201C0300206C
:103BB0002DE9F041204E15460C4680466BB3012B93
:103BC00038D18821084610F013F91C2360224146A1
:103BD00020460FF02DFEBDE8F04188216FF07F40B8
:103BE00010F006B9802A0BD21448B0612146404635
:103BF0000FF0B2FCB0696D1C8088204484B20EE0E6
:103C00000F48B0612A46214640460FF0BBFCB06920
:103C1000AD1C8088204484B201E04FF42077BC4280
:103C200008D22A78002A05D0B0698088011989B2A3
:103C30008142D7D2BDE8F0811C020020FC020020A6
:103C40001C0300202DE9F041204E15460C4680460D
:103C50006BB3012B38D18821084610F0C9F8142322
:103C60003222414620460FF0E3FDBDE8F0418821B5
:103C70006FF07F4010F0BCB8802A0BD21448B061BE
:103C8000214640460FF068FCB0696D1C80882044D6
:103C900084B20EE00F48B0612A46214640460FF03C
:103CA00071FCB069AD1C8088204484B201E04FF4FF
:103CB0002077BC4208D22A78002A05D0B0698088D3
:103CC000011989B28142D7D2BDE8F0811C020020DF
:103CD000DC0200201C03002010B50121CC05204689
:103CE00011F036FD2046BDE81040002111F030BD36
:103CF000034A0146002052680A4200D00120704762
:103D000000B0024030B52A4B00241968294A1140FE
:103D100019601968026811431960596B21F0070195
:103D20005963596B426811435963416841B3012992
:103D30002DD0022930D00329C16832D00A0101698F
:103D40004469090224038568214315430D43996B97
:103D50000D439D638169D963196C6FF30D0119647B
:103D6000196CC26911431964818C5A6C02F040428B
:103D70005A645A6C006A024342EA01425A6430BDF6
:103D8000C168047D0A02018A09042406DBE7C168D0
:103D90000A02018A0904D6E7C1684A010169C90219
:103DA000D1E74A01016944698902E403CBE70000D5
:103DB00000B00240FCE0FCFF0248016841F0010154
:103DC0000160704700B0024014F06EBE074A904296
:103DD00001D2074801E005481038064A8B0001EA85
:103DE000020101D5C16070478160704710640240D4
:103DF000006002407D0F7D0F0029016802D041F074
:103E0000010101E021F00101016070472DE9F0435B
:103E1000016821F0010101600021016041608160C1
:103E2000C1600161212141613C493C4A3D25103975
:103E3000904202D18D60BDE8F083384A4FF4746639
:103E40001832904201D18E60F5E7344A4FF474176E
:103E50003032904201D18F60EDE7304A4FF0746C00
:103E60004832904202D1C1F808C0E4E72B4B2C4AFB
:103E70006033984201D1CA60DDE7284C294B783481
:103E8000A04201D1CB60D6E7DFF89080264C08F144
:103E90009008404501D1CC60CDE7DFF880804FF03D
:103EA0003D5908F1A808404502D1C1F80C90C2E77D
:103EB0001E49DFF878800839404501D10D60BAE726
:103EC0001A4D1835A84201D10E60B4E7174D3035B0
:103ED000A84201D10F60AEE7144D4835A84202D187
:103EE000C1F800C0A7E7114D10496035091FA8426D
:103EF00001D10A609FE70D4A7832904201D10B60F0
:103F000099E70A4A9032904201D10C6093E7074A40
:103F1000A83290428FD1C1F800908CE71060024027
:103F20003D000020400F002000003D2010640240B2
:103F30000029016802D041F0200101E021F02001B8
:103F4000016070470B0607D5436912B143F0800347
:103F500001E023F080034361802908D0002A026831
:103F600001F01E0101D00A4300E08A43026070475D
:103F700030B50368124ACC6813400A682243D1E97D
:103F800005452C432243CC6922430C6A22434C6AE8
:103F900022438C6A22434C6B22438C6B22431A438C
:103FA0000260426922F00703D1E90B2422431A433D
:103FB00042610A6942604A6882608968C16030BDB6
:103FC0003F801CF00548807A052803D0062801D0E0
:103FD000082802D102A023F0EBBF70473C0200206A
:103FE0002E0000002DE9F04FFB4CFC4D2146A07A3D
:103FF00091F80BC0A1B00D282ED2DFE810F03000F0
:1040000044132D002D00DC0BD60D81142D00A811BA
:104010002D002D002D000D0095F83300082802D04A
:10402000102802D004E0102000E0082085F83300BA
:1040300015F0DCF96FF07F400FF0F0FE88200FF0F4
:10404000D1FE95F83320E6A1684621F0EBFE6A46E2
:10405000AA2132200FF0BAFA21B0BDE8F08FDE4875
:104060004FF4CD774FF48179017BDC484FF4BF7A70
:104070004FF4FD7B90F82D2090F827301F93C37FDD
:104080001E93C37D1D93C37B1C9390F826301B9316
:10409000837F1A93837D1993837B189390F825303F
:1040A0001793437F1693437D1593437B149390F8A6
:1040B00024301393037F1293037D1193037B10939A
:1040C00090F823300F93C37E0E93C37C0D93C37A75
:1040D0000C9390F822300B93837E0A93837C099390
:1040E000837A089390F821300793437E0693437CAC
:1040F0000593437A049390F82030039390F818E0E6
:10410000037C007A4FF4A576BCF1290FA4D2DFE836
:104110001CF02900C5004B013302B9024E031D04F7
:10412000B404470556069206D0060D074C078E07C5
:10413000D007160858088308AD08D70804093209C3
:1041400060098E09B909D109E909010A1A0A340A74
:104150004E0A680A810A9A0AB30ACC0AE60A010BD7
:104160001C0B370BA0480FF059FE88200FF03AFEC9
:1041700095F82900022812D0012812D0032812D065
:10418000042812D0052812D0062812D0072812D0F1
:10419000082812D0092812D00B2812D016E093A2BA
:1041A00010E094A20EE095A20CE096A20AE097A27D
:1041B00008E098A206E099A204E09AA202E09BA27D
:1041C00000E09CA264212F200FF000FA95F82D004A
:1041D00020B1012835D002284FD04AE0207B40B1E1
:1041E00001280BD002280ED0032811D0042814D0A7
:1041F0001CE0287823F00AFD90A213E0287A23F02F
:1042000005FD8FA20EE0287C23F000FD8DA209E0C1
:10421000287E23F0FBFC8CA204E095F8200023F01C
:10422000F5FC8AA20A2164200FF006FA95F8300006
:1042300028B187A003F0DEF8012001F0BABA87A008
:10424000F8E7207B10B1012805D020E0287823F082
:10425000DDFC7AA203E0287E23F0D8FC7AA20A21B2
:104260006420FFF759FA12E07CA000E078A003F088
:10427000C1F8012005F03CF9EEE6207B38B928783A
:1042800023F0C4FC6DA20A216420FFF77BFA012011
:10429000E07295F830000028E8D1E5E74F4F02269C
:1042A0003F783AB1012A51D0022AE2D100296DD0DB
:1042B00001F0C3B841B101290BD002290DD0032967
:1042C00010D0042913D0F3E7384623F067FC5BA233
:1042D00011E023F063FC5AA20DE0184623F05EFCC7
:1042E00058A208E0704623F059FC57A203E0039857
:1042F00023F054FC55A20A2164200FF09DF9207B85
:1043000040B101280BD002280ED0032811D0042878
:1043100014D0CDE7687823F079FC53A213E0687AD3
:1043200023F074FC51A20EE0687C23F06FFC50A2D5
:1043300009E0687E23F06AFC4EA204E095F82100B3
:1043400023F064FC4CA20A21B420DEE011B1012963
:104350000DD0ADE7384623F021FC38A20A216420B5
:10436000FFF7DAF9687823F051FC3FA20BE07046C2
:1043700023F014FC34A20A216420FFF7CDF9687EF3
:1043800023F044FC3BA20A218C20E1E0384623F0D4
:1043900005FC2AA20A216420FFF7F4F9687823F0CB
:1043A00035FC31A20A21FAE30C480326407832B1E9
:1043B000012A10D0022A7FF410AF51B178E749B139
:1043C000012960D0022964D0032968D004296CD067
:1043D0006EE7C0E052E09BE03C02002014030120A5
:1043E000253033640000000000FFFF0054432D4BD4
:1043F0000000000054432D540000000054432D4A97
:104400000000000054432D4E0000000054432D4591
:104410000000000054432D530000000054432D526F
:104420000000000054432D42000000005054313081
:1044300030000000317E3556000000003030310081
:10444000303039003031370030323500303333000E
:104450004368616E6E656C2073657400CDA8B5C04D
:10446000C9E8D6C3000000003030320030313000DF
:1044700030313800303236003033340023F08EFBD8
:10448000AFF21C0216E0049823F088FBAFF224027E
:1044900010E0059823F082FBAFF22C020AE00698A8
:1044A00023F07CFBAFF2340204E0079823F076FBA4
:1044B000AFF23C020A21B4200FF0BEF8207B40B1DD
:1044C00001280BD002280ED0032811D0042814D0C4
:1044D000EEE6A87823F09AFBFDA213E0A87A23F079
:1044E00095FBFCA20EE0A87C23F090FBFAA209E069
:1044F000A87E23F08BFBF9A204E095F8220023F0BC
:1045000085FBF7A20A214FF482700FF095F8CFE6F1
:1045100011B101290DD0CBE623F040FBAFF2B80278
:104520000A218C20FFF7F8F8A87823F06FFBE8A2A7
:104530000CE0069823F032FBAFF2C8020A218C206F
:10454000FFF7EAF8A87E23F061FBE4A20A21B42079
:10455000FFF7E2F8ACE623F021FBAFF2F4020A2108
:104560008C20FFF70FF9A87823F050FBD8A20A217E
:10457000F4E3FFF707F99BE6DA480426807832B1C6
:10458000012A53D0022A7FF428AE89B390E641B1C4
:1045900001290AD002290DD0032910D0042913D0F3
:1045A00086E623F0FBFACAA212E0089823F0F6FA96
:1045B000C8A20DE0099823F0F1FAC7A208E00A9812
:1045C00023F0ECFAC5A203E00B9823F0E7FAC4A2AB
:1045D0000A214FF482700FF02FF8207B48B1012898
:1045E0000CD002280FD0032812D0042815D05FE683
:1045F0003BE0E87823F00AFBBBA213E0E87A23F063
:1046000005FBBAA20EE0E87C23F000FBB8A209E0AB
:10461000E87E23F0FBFAB7A204E095F8230023F02C
:10462000F5FAB5A20A214FF4AA706EE711B101297B
:104630000CD03DE623F0B2FAA5A20A21B420FFF780
:104640006BF8E87823F0E2FAA7A20BE00A9823F0CF
:10465000A5FAA2A20A21B420FFF75EF8E87E23F0B3
:10466000D5FAA4A20A21DC2072E723F097FA98A2D7
:104670000A21B420FFF786F8E87823F0C7FA9AA257
:104680000A21F2E39748C07832B1012A59D0022AB0
:104690007FF4F2ADF1B375E041B101290AD00229EE
:1046A0000DD0032910D0042913D01BE023F076FA93
:1046B0008DA212E00C9823F071FA8CA20DE00D98F7
:1046C00023F06CFA8AA208E00E9823F067FA89A218
:1046D00003E00F9823F062FA87A20A214FF4AA7030
:1046E0000EF0AAFF00200FF099FB84480FF07AFB30
:1046F00095F8290002286FD001286ED003286DD0CC
:1047000004286CD005286BD006286AD0072869D009
:10471000082800E03AE06FD009286ED00B286DD051
:1047200003E064212F200EF051FF95F8300008B10E
:1047300073A000E077A002F05DFE07F041FC0020CE
:10474000A4E211B101290CD01CE023F027FA66A2E3
:104750000A21DC20FEF7E0FF287923F057FA71A246
:104760000BE00E9823F01AFA62A20A21DC20FEF771
:10477000D3FF287F23F04AFA6BA20A214FF48270FC
:10478000FEF7CAFF012004F0B3FE67E223F006FA49
:1047900055A20A21DC20FEF7F5FF287923F036FA2E
:1047A00060A20A214FF48270FEF7ECFFEAE74D4861
:1047B0000627007932B1012A5BD0022A7FF40DADC1
:1047C000D1B303E379B1012911D0022917D003290C
:1047D0001AD004291DD0F9E265E267E269E26BE2D2
:1047E0006DE26FE271E223F0D9F94EA215E0109864
:1047F00023F0D4F94DA210E06AE26CE26EE2119867
:1048000023F0CCF94AA208E0129823F0C7F946A297
:1048100003E0139823F0C2F946A2314664200EF05B
:104820000BFF207B48B101280CD002280FD00328B1
:1048300012D0042815D0C9E23BE0687923F0E6F9EC
:104840003DA213E0687B23F0E1F93CA20EE0687D15
:1048500023F0DCF93AA209E0687F23F0D7F939A206
:1048600004E095F8250023F0D1F937A23146B420B1
:10487000C9E011B101290DD0A8E223F08FF929A2D6
:104880000A214FF48270FEF747FF687923F0BEF9E2
:1048900029A20CE0129823F081F923A20A214FF4F7
:1048A0008270FEF739FF687F23F0B0F925A20A2154
:1048B000A7E323F073F91BA20A214FF48270FEF7DD
:1048C00061FF687923F0A2F91BA20A21ACE3000082
:1048D0003030330030313100303139003032370080
:1048E00030333500140301203030340030313200D1
:1048F00030323000303238003033360000FFFF00F5
:10490000546865726D6F636F75706C65206D6F6450
:10491000656C0000C8C8B5E7C5BCD0CDBAC5D1A18B
:10492000D4F10000303035003032390030313300FE
:10493000303231003033370030303600303134001F
:10494000303232003033300030333800F748072738
:10495000407932B1012A59D0022A7FF43EACA9B382
:10496000F7E341B101290BD002290FD0032913D05D
:10497000042917D0EDE323F011F9AFF2440216E059
:10498000149823F00BF9AFF24C0210E0159823F0C5
:1049900005F9AFF254020AE0169823F0FFF8AFF2DF
:1049A0005C0204E0179823F0F9F8AFF26402314694
:1049B000B4200EF041FE207B48B101280CD0022823
:1049C0000FD0032812D0042815D0C2E343E0A87901
:1049D00023F01CF9D6A213E0A87B23F017F9D5A287
:1049E0000EE0A87D23F012F9D3A209E0A87F23F0FE
:1049F0000DF9D2A204E095F8260023F007F9D0A221
:104A000031464FF482700EF017FEA2E311B1012976
:104A10000ED09EE323F0C2F8AFF2E4020A214FF475
:104A20009670FEF779FEA87923F0F0F8C0A20DE0A9
:104A3000169823F0B3F8AFF2F4020A214FF49670FF
:104A4000FEF76AFEA87F23F0E1F8BCA20A211AE370
:104A5000FEF762FE7DE323F0A1F8AFF224120A21F3
:104A60004FF49670FEF78EFEA87923F0CFF8B0A22F
:104A70000A211BE3FEF786FE6BE3AC48807932B176
:104A8000012A55D0022A7FF4F4AB89B385E041B105
:104A900001290AD002290DD0032910D0042913D0EE
:104AA0007BE023F07BF8A2A212E0189823F076F8BE
:104AB000A0A20DE0199823F071F89FA208E01A98BF
:104AC00023F06CF89DA203E01B9823F067F89CA2EA
:104AD00031464FF482700EF0AFFD207B48B10128C3
:104AE0000CD002280FD0032812D0042815D054E08F
:104AF00042E0E87923F08AF892A213E0E87B23F001
:104B000085F891A20EE0E87D23F080F88FA209E0FD
:104B1000E87F23F07BF88EA204E095F8270023F0CD
:104B200075F88CA231464FF4AA700EF085FD34E082
:104B300011B101290DD030E023F030F87CA20A2118
:104B40004FF4AA70FEF7E8FDE87923F05FF87DA244
:104B50000CE01A9823F022F878A20A214FF4AA70E8
:104B6000FEF7DAFDE87F23F051F879A20A214FF42D
:104B7000BE70FEF7D1FD10E023F010F86CA20A2100
:104B80004FF4AA70FEF7FEFDE87923F03FF86DA21E
:104B90000A214FF4BE70FEF7F5FD0820CEE238E39F
:104BA0006248C07932B1012A5AD0022A7FF454AA4D
:104BB00089B3FEE041B101290AD002290DD00329B1
:104BC00010D0042913D049E022F0E8FF5DA212E0E2
:104BD0001C9822F0E3FF5CA20DE01D9822F0DEFF9E
:104BE0005AA208E01E9822F0D9FF59A203E01F98AC
:104BF00022F0D4FF57A231464FF4AA700EF01CFDEC
:104C0000207B48B101280DD0022811D0032815D0EF
:104C1000042819D022E064E0287922F0F7FFAFF2EF
:104C2000FC2217E0287B22F0F1FFAFF2003211E006
:104C3000287D22F0EBFFAFF208320BE0287F22F054
:104C4000E5FFAFF21C3205E095F8240022F0DEFF0C
:104C5000AFF22032314664200EF0EEFC052015E064
:104C6000C1B10129A2D11E9822F098FF38A20A21D1
:104C70004FF4BE70FEF750FD287E22F0C7FFAFF65E
:104C800038020A216420FEF747FD0120E07221B0BE
:104C9000BDE8F08F22F082FF2AA20A214FF4BE70F5
:104CA000FEF73AFD1EE5AFF6BC023AE5AFF6BC02F0
:104CB00037E5AFF6B80234E5AFF6B80231E5AFF646
:104CC000B4022EE5AFF6B4022BE5AFF6B00228E54C
:104CD000AFF6B00225E5AFF6AC0222E5AFF6AC02C6
:104CE0001FE522F05BFF17A20A214FF4BE70FEF70A
:104CF00049FD00200FF092F817480FF073F895F86F
:104D0000290002282BD001282CD003282DD00428DC
:104D10002ED005282FD0062830D0072831D00828DB
:104D200032D0092833D00B2834D039E014030120C5
:104D3000303037003031350030323300303331001D
:104D40003033390030303800303136003032340002
:104D5000303332003034300000FFFF0084E2AFF621
:104D6000741219E0AFF6741216E0AFF6701213E089
:104D7000AFF6701210E0AFF66C120DE0AFF66C12E9
:104D80000AE0AFF6681207E0AFF6681204E0AFF68B
:104D9000641201E0AFF6641264212F200EF016FCBD
:104DA00095F8300040B1AFF2A84002F023FB00209C
:104DB000E07207F005F96AE7AFF2A840F5E70A27C5
:104DC000012A04D0022A7FF454AA21B3C1E111B10F
:104DD00001290ED0BDE122F0E1FEAFF69C12314672
:104DE0006420FEF799FC687A22F010FFAFF6841277
:104DF0000EE0039822F0D2FEAFF6B01231466420E6
:104E0000FEF78AFC95F8210022F000FFAFF6981219
:104E100031468C201CE622F0C1FEAFF6DC12862162
:104E20006420FEF7AFFC687A22F0F0FEAFF6C41201
:104E300086218C201EE60B27012A03D0022AC2D12C
:104E400031B386E111B1012910D082E1049822F03A
:104E5000A5FEAFF6E81231468C20FEF75DFCA87A7D
:104E600022F0D4FEAFF294520FE027E2079822F02E
:104E700095FEAFF6FC1231468C20FEF74DFC95F8FE
:104E8000220022F0C3FEAFF2A8523146B420DFE583
:104E9000049822F083FEAFF62C2286218C20FEF7A8
:104EA00071FCA87A22F0B2FEAFF2D8528621B4206B
:104EB000E0E50C27012A03D0022A84D129B348E176
:104EC00011B101290FD044E1089822F067FEAFF23A
:104ED000FC523146B420FEF71FFCE87A22F096FE21
:104EE000AFF2F8520EE00B9822F058FEAFF21062CB
:104EF0003146B420FEF710FC95F8220022F086FE21
:104F0000AFF20C623146DC20A2E5089822F046FEA2
:104F1000AFF240628621B420FEF734FCE87A22F03A
:104F200075FEAFF238628621DC20A3E50D27012A49
:104F300003D0022AC1D131B30BE111B101290FD045
:104F400007E10C9822F02AFEAFF260623146DC20C5
:104F5000FEF7E2FB287B22F059FEAFF230620EE052
:104F60000F9822F01BFEAFF270623146DC20FEF794
:104F7000D3FB95F8240022F049FEAFF24862314697
:104F80004FF4827064E50C9822F008FEAFF2A46240
:104F90008621DC20FEF7F6FB287B22F037FEAFF2FD
:104FA000746286214FF4827064E50E27012A03D0D3
:104FB000022ABFD141B3CCE011B1012910D0C8E021
:104FC000109822F0EBFDAFF29C6231464FF48270F4
:104FD000FEF7A2FB687B22F019FEAFF2A0620FE0A1
:104FE000139822F0DBFDAFF2B46231464FF48270C9
:104FF000FEF792FB95F8250022F008FEAFF2B862AA
:1050000031464FF4967023E5109822F0C7FDAFF2B9
:10501000E46286214FF48270FEF7B4FB687B22F0D5
:10502000F5FDAFF2E86286214FF4967022E50F2776
:10503000012A03D0022ABCD141B38AE011B101296F
:1050400010D086E0149822F0A9FDAFF2107231461C
:105050004FF49670FEF760FBA87B22F0D7FDAFF20D
:105060002C320FE0179822F099FDAFF224723146EE
:105070004FF49670FEF750FB95F8260022F0C6FD1F
:10508000AFF2443231464FF4AA70E1E4149822F0B2
:1050900085FDAFF2587286214FF49670FEF772FBD1
:1050A000A87B22F0B3FDAFF2743286214FF4AA70D0
:1050B000E0E4012A03D0022ABDD151B33DE011B191
:1050C000012910D039E0189822F068FDAFF29C3227
:1050D00031464FF4AA70FEF71FFBA87B22F096FD25
:1050E000AFF29C320FE01B9822F058FDAFF2B032C5
:1050F00031464FF4AA70FEF70FFB95F8270022F017
:1051000085FDAFF2B03231464FF4BE70FEF704FBBE
:1051100013E0189822F042FDAFF2E83286214FF4F6
:10512000AA70FEF72FFBE87B22F070FDAFF2E832A9
:1051300086214FF4BE70FEF725FB102039E30927C6
:10514000012A03D0022AB7D149B302E021B10129D3
:1051500012D0E772FFF78DB81C9822F01FFDAFF256
:10516000184231464FF4BE70FEF7D6FA287A22F084
:105170004DFDAFF634520FE01F9822F00FFDAFF255
:105180002C4231464FF4BE70FEF7C6FA95F8200067
:1051900022F03CFDAFF64C523146642058E41C9896
:1051A00022F0FCFCAFF2604286214FF4BE70FEF7A5
:1051B000E9FA287A22F02AFDAFF67C528621642093
:1051C00058E41226012A03D0022AC3D189B134E15E
:1051D000184622F0E3FCAFF6945239466420FEF7FD
:1051E0009BFA687C22F012FDAFF67C523946FFF73D
:1051F000CBB8184622F0D2FCAFF6B8524F4649461B
:105200006420FEF7BFFA687C22F000FDAFF6A052E2
:1052100039468C20FFF7ADB91326012A03D0022AA4
:1052200098D189B109E1059822F0B8FCAFF6C052D7
:1052300039468C20FEF770FAA87C22F0E7FCAFF626
:1052400068123946FFF783B9059822F0A7FCAFF63C
:10525000E0524F4649468C20FEF794FAA87C22F093
:10526000D5FCAFF68C123946B420D3E71426012AB8
:1052700003D0022AA9D189B1DFE0099822F08EFC7F
:10528000AFF6AC123946B420FEF746FAE87C22F0BD
:10529000BDFCAFF6A4123946FFF7E5B9099822F034
:1052A0007DFCAFF6CC124F464946B420FEF76AFAB1
:1052B000E87C22F0ABFCAFF6C8123946DC20A9E747
:1052C0001526012A03D0022AAAD199B1B5E00D987A
:1052D00022F064FCAFF6E8123946DC20FEF71CFA37
:1052E000287D22F093FCAFF6B81239464FF4827055
:1052F000FFF72EB90D9822F051FCAFF60C224F4665
:105300004946DC20FEF73EFA287D22F07FFCAFF60E
:10531000E01239464FF482707CE71626012A03D04A
:10532000022AA7D199B188E0119822F037FCAFF694
:10533000002239464FF48270FEF7EEF9687D22F0C4
:1053400065FCAFF6042239464FF49670D0E7119809
:1053500022F024FCAFF628224F4649464FF48270D3
:10536000FEF710FA687D22F051FCAFF62C22394688
:105370004FF496704EE71726012A03D0022AA3D1D4
:1053800099B15AE0159822F009FCAFF64C22394643
:105390004FF49670FEF7C0F9A87D22F037FCAFF20B
:1053A000686239464FF4AA70A2E7159822F0F6FB1E
:1053B000AFF674224F4649464FF49670FEF7E2F975
:1053C000A87D22F023FCAFF2906239464FF4AA7018
:1053D00020E71826012A03D0022AA2D199B12CE095
:1053E000199822F0DBFBAFF2B06239464FF4AA7095
:1053F000FEF792F9E87D22F009FCAFF2B06239467F
:105400004FF4BE7074E7199822F0C8FBAFF2D8626F
:105410004F4649464FF4AA70FEF7B4F9E87D22F0F2
:10542000F5FBAFF2D86239464FF4BE70F2E61126B2
:10543000012A04D0022AA2D191B1E6728AE61D980F
:1054400022F0ACFBAFF2FC6239464FF4BE70FEF7BF
:1054500063F9287C22F0DAFBF84A3946642047E7F2
:105460001D9822F09BFBAFF21C724F4649464FF449
:10547000BE70FEF787F9287C22F0C8FBEF4A394658
:105480006420C7E6022AD9D191B9704622F086FB82
:10549000EA4A5646121D51466420FEF773F9687EAB
:1054A00022F0B4FBE54A314630328C20FEF76AF92F
:1054B0001A207EE1022AC1D191B9069822F06EFB32
:1054C000DE4A5646303251468C20FEF75BF9A87E04
:1054D00022F09CFBAFF6FC323146B420FEF752F9C5
:1054E0001B2066E1022AA9D191B90A9822F056FB45
:1054F000AFF6184256465146B420FEF743F9E87E0F
:1055000022F084FBAFF614423146DC20FEF73AF974
:105510001C204EE1022A91D199B90E9822F03EFB4F
:10552000AFF6304256465146DC20FEF72BF9287F75
:1055300022F06CFBAFF6104231464FF48270FEF75A
:1055400021F91D2035E1022A9DD1A1B9129822F03E
:1055500025FBAFF62C42564651464FF48270FEF7BB
:1055600011F9687F22F052FBAFF6284231464FF422
:105570009670FEF707F91E201BE1022A9BD1A1B904
:10558000169822F00BFBAFF64442564651464FF4B4
:105590009670FEF7F7F8A87F22F038FBAFF66402AA
:1055A00031464FF4AA70FEF7EDF81F2001E1022A00
:1055B00099D1A1B91A9822F0F1FAAFF680025646B5
:1055C00051464FF4AA70FEF7DDF8E87F22F01EFB8B
:1055D000AFF6840231464FF4BE70FEF7D3F82020B8
:1055E000E7E0022A97D199B91E9822F0D7FAAFF6D0
:1055F000A002564651464FF4BE70FEF7C3F8287E0F
:1056000022F004FB8D4A3146121D6420FEF7BAF8E1
:105610001920CEE0022A97D199B9039822F0BEFA58
:10562000864A5E46083259466420FEF7ABF895F884
:10563000210022F0EBFA814A314634328C20FEF709
:10564000A1F82220B5E0022A98D199B9079822F052
:10565000A5FA7A4A5E46343259468C20FEF792F813
:1056600095F8220022F0D2FAAFF68C523146B420DF
:10567000FEF788F823209CE0022A99D199B90B986B
:1056800022F08CFAAFF6A8525E465946B420FEF7D7
:1056900079F895F8230022F0B9FAAFF6A452314612
:1056A000DC20FEF76FF8242083E0022A9AD1A1B90A
:1056B0000F9822F073FAAFF6C0525E465946DC20CE
:1056C000FEF760F895F8240022F0A0FAAFF69C529D
:1056D00031464FF48270FEF755F8252069E0022A22
:1056E00099D1A9B9139822F059FAAFF6B8525E468B
:1056F00059464FF48270FEF745F895F8250022F0E0
:1057000085FAAFF6BC5231464FF49670FEF73AF880
:1057100026204EE0022A97D1A9B9179822F03EFA26
:10572000AFF6DC525E4659464FF49670FEF72AF803
:1057300095F8260022F06AFAAFF6FC1231464FF4D3
:10574000AA70FEF71FF8272033E0022A95D1A9B9E5
:105750001B9822F023FAAFF618225E4659464FF402
:10576000AA70FEF70FF895F8270022F04FFAAFF66F
:105770001C2231464FF4BE70FEF704F8282018E0D2
:10578000022A93D1A1B91F9822F008FAAFF63C2261
:105790005E4659464FF4BE70FDF7F4FF95F82000C1
:1057A00022F034FA254A314608326420FDF7EAFF38
:1057B0002120E072CEE44FF4FA76BCF1320F74D0BF
:1057C00016DCBCF12C0F4BD0BCF12D0F6ED0BCF110
:1057D0002E0F6CD0BCF1310F7FF459AA22F000FAE1
:1057E00095F82E0048B3012870D002286FD07BE1D5
:1057F000BCF15F0F6CD0BCF1610F6AD0BCF1620FDD
:10580000EAD122F0EDF995F83B3095F83A200CA159
:105810006846303520F006FB6A469621F8200DF0E8
:10582000D5FE0A48008827F04DFD2878E0B308A08F
:1058300001F0E0FD3320FFF729BA3FE144440008BE
:1058400025302E32643A25302E3264009C0100202F
:105850005265636F726420696E74657276616C0064
:1058600022F0BEF995F82C00002895F830001FD0E2
:1058700018B3F7A2962132200DF0A8FE22F0D6F937
:1058800095F82A00002895F8300018D0E0B1F0A271
:1058900096215A200DF09AFE95F83000D0B1EDA077
:1058A00001F0A8FD2D20C6E706E144E114E05EE02A
:1058B00008B1ECA2DEE7ECA2DCE7EDA2DAE708B182
:1058C000E8A2E5E7E8A2E3E7E9A2E1E7FDE003E11A
:1058D00097E0C7E0E8A0E3E722F082F995F82A0014
:1058E000002895F8300026D050B3D9A296215A202E
:1058F0000DF06CFEE34801460EF07AFA1F231822E1
:105900007F2196200DF094FF95F82B00052819D0E3
:1059100004284FF000001FD00EF080FADAA29B217D
:105920007F200DF053FE95F83000F0B1D7A001F0C4
:1059300061FD2E207FE708B1CAA2D7E7CAA2D5E74A
:10594000CBA2D3E700200EF069FAD6A296217F20E1
:10595000FDF718FFD4A2E2E70EF060FAD1A296217B
:105960007F20FDF70FFFBEA2D9E7D0A0DFE7882197
:1059700008460EF03DFA1F2318227F2196200DF0D5
:1059800057FF95F82B0005281FD00428BD4826D0C6
:105990000EF044FABCA29B217F200DF017FE22F0EE
:1059A00045F995F83600002895F8300020D020B34E
:1059B000A7A29621AA200DF009FE95F83000F0B1BB
:1059C000BEA001F017FD5F2035E7AE480EF026FAC5
:1059D000B4A296217F20FDF7D5FEB3A2DBE70EF03F
:1059E0001DFAB0A296217F20FDF7CCFE9CA2D2E743
:1059F00008B19CA2DDE79CA2DBE79DA2D9E7B2A09B
:105A0000DFE722F0EDF895F83600002895F8300031
:105A10001FD018B38EA29621AA200DF0D7FD22F038
:105A200005F995F8393095F83820AFF2EC11684651
:105A3000303520F0F7F96A469621D0200DF0C6FDEA
:105A4000287868B1A3A001F0D5FC01206070612026
:105A5000F1E608B183A2DEE783A2DCE784A2DAE7FD
:105A60009EA0F0E722F0BCF895F8393095F8382080
:105A7000AFF234216846303520F0D4F96A469621D9
:105A8000D0200DF0A3FD22F0D1F8EB7AAA7AAFF284
:105A90005021684620F0C6F96A469621F8200DF09C
:105AA00095FD287830B191A001F0A4FC0120607030
:105AB0006220C0E68EA0F7E791A0B9E695F8300025
:105AC00008B193A20CE094A20AE095F8300008B166
:105AD00093A205E093A203E095F8300090B193A261
