:020000040800F2
:1000000078650220C1010008935501083D270108C9
:1000100091550108CD120008FB50020800000000B5
:100020000000000000000000000000009D93010897
:100030005169000800000000755601084597010845
:10004000DB010008DB010008DB010008DB01000820
:10005000DB010008DB010008DB010008DB01000810
:10006000DB010008DB010008DB010008DB01000800
:10007000DB010008DB010008DB010008DB010008F0
:10008000DB010008DB010008DB010008DB010008E0
:10009000DB010008DB010008DB010008DB010008D0
:1000A000DB010008DB010008DB010008DB010008C0
:1000B000DB010008DB010008DB010008DB010008B0
:1000C000DB010008DB010008DB010008DB010008A0
:1000D000DB010008BD380208DB010008DB01000875
:1000E000DB010008DB010008DB010008DB01000880
:1000F000DB010008DB010008DB010008DB01000870
:10010000DB010008CD7C0108DB010008DB010008F1
:10011000DB010008DB010008DD970108DB010008B6
:10012000DB010008DB010008DB010008A13D00083D
:10013000DB010008DB010008DB010008DB0100082F
:10014000DB010008DB010008DB010008395601086B
:10015000DB010008DB010008DB010008DB0100080F
:10016000DB010008DB010008515601084556010873
:10017000DB0100085D560108DB010008DB01000817
:10018000DB010008DB010008DB010008DB010008DF
:10019000DB010008DB010008DB010008DB010008CF
:1001A000DB010008DB010008DB010008DFF80CD0F0
:1001B00000F08AFC00480047158502087865022097
:1001C0000648804706480047FEE7FEE7FEE7FEE7F1
:1001D000FEE7FEE7FEE7FEE7FEE7FEE781970108A0
:1001E000AD0100082DE9F05F0546002092469B46D0
:1001F00088460646814640241BE02846414647463D
:10020000224600F0BAFA53465A46C01A914110D31A
:1002100011461846224600F0A1FA2D1A67EB010894
:100220004F4622460120002100F098FA17EB000902
:100230004E41201EA4F10104DFDC484631462A4627
:100240004346BDE8F09F40EA01039B0703D009E065
:1002500008C9121F08C0042AFAD203E011F8013BB2
:1002600000F8013B521EF9D27047D2B201E000F80B
:10027000012B491EFBD270470022F6E710B513464A
:100280000A4604461946FFF7F0FF204610BD421EFD
:1002900012F8013F002BFBD111F8013B02F8013BA2
:1002A000002BF9D1704710B5044604E00B7800F834
:1002B000013B03B1491C521EF8D2204610BD421C1E
:1002C00010F8011B0029FBD1801A704710B50022DD
:1002D00000E0521C835C8C5CA34201D1002BF8D15E
:1002E000D8B2E1B2401A10BD034611F8012B00F854
:1002F000012B002AF9D11846704770B5064625F043
:10030000B7FD046805460A220021304600F0A6FA2F
:100310002C6070BD2DE9FE4F804681EA0300C00FBE
:100320000C46009021F0004123F00045B8EB02009C
:10033000A94105D24046214690461C460B4602463E
:1003400023F00040104347D0270DC7F30A00C3F342
:100350000A510290401A019040286BDAC3F313004F
:1003600040F4801B0098924620B10023D2EB030A90
:1003700063EB0B0B01985946C0F14002504600F068
:10038000EDF906460D4650465946019A00F005FA29
:1003900010EB08006141002487EA115284EAE773F8
:1003A0001A4340D0009A62B3019A012A4FEA0752D9
:1003B00015DC001B61EB02014FF0004202EA07521C
:1003C000CDE90042001C41F5801132462B4600F079
:1003D000C3FA03B0BDE8F08F40462146F9E7001BA1
:1003E00061EB0201001C41F5801300185B412018ED
:1003F000A2F5001747EB030140EAD570B6196D412D
:1004000011E06D084FEA360645EAC0754FEA07521B
:10041000001B61EB0201001C41F5801149084FEA05
:1004200030000019514132462B4603B0BDE8F04F71
:1004300000F083BA0098012240000023D0EB0202B2
:1004400063EBE073009821464FEAE074B8EB0000DC
:1004500061EB0401E9E783F000435BE781F00041D1
:1004600058E72DE9FE4F81EA030404F0004421F02F
:10047000004100944FF0000B23F0004350EA0104C8
:100480005ED052EA03045BD0C3F30A54C1F30A55A9
:100490002C44A4F2F3340194A0FB0254C1F31301E1
:1004A00041F48011C3F3130343F4801301FB0244AE
:1004B00000FB034E840A970A44EA815447EA8357B3
:1004C000A4FB076802958D0A05FB07854FEA932C6C
:1004D00004FB0C542705029D4FEA065847EA1637DD
:1004E000B5EB08056EEB070C870E920E47EA8117F5
:1004F00042EA8312A7FB0201B6EB0B0164EB000496
:100500002B0D43EA0C335E1844EB1C50DA4651467F
:10051000E7FB0201C5F313044FEA0B3343EA14531C
:100520004FEA0432019C43EA0603A4F10C0402944E
:10053000009CCDE900B400F00FFA03B0BDE8F08FE5
:1005400000200146F9E72DE9F04D81EA030404F0AB
:10055000004B21F0004514464FF0000A23F0004103
:1005600050EA050220D054EA01021DD0C5F30A5713
:100570000246C5F31303C1F31300C1F30A5640F456
:10058000801543F48013A7EB0608101BD64608F22B
:10059000FD3873EB050002D308F1010801E0921861
:1005A0005B41B8F1000F03DA00200146BDE8F08D91
:1005B00000204FF48011064684460EE0171B73EBB3
:1005C000050705D3121B63EB050306434CEA010C38
:1005D00049084FEA300092185B4150EA0107EDD11B
:1005E00052EA030012D082EA040083EA05010843BC
:1005F00005D0101BAB4106D20122002306E00022E9
:100600004FF0004302E06FF0010253101AEB0600B6
:100610004CEB085110EB0A0041EB0B01BDE8F04D2B
:1006200000F08BB90EB540F2334102910021CDE9C3
:1006300000110A460B4600F08FF903B000BDC1F36C
:100640000A5210B5C1F3130140F2FF3341F4801197
:100650009A4201DA002010BD40F233439A42A2F2DE
:10066000334203DC524200F088F810BD904010BDC8
:1006700000F0004230F000400AD0C10D01F5607179
:10068000C0F3160042EA0151C20840071143704707
:10069000002001467047000030B5041E71F10004CF
:1006A00004DB4FF00044404264EB0101141E73F17F
:1006B000000405DB1C464FF00043524263EB040389
:1006C0008B4208BF824230BD30B5041E71F1000478
:1006D00004DB4FF00044404264EB0101141E73F14F
:1006E000000405DB1C464FF00043524263EB040359
:1006F000994208BF904230BD01F0004330B421F070
:10070000004150EA010206D00A0DA2F56072C1F361
:100710001301002A02DC30BC00207047440F44EA79
:10072000C104C100E01830BC00EBC25000F0CEB8EC
:1007300030B50B46014600202022012409E021FAB1
:1007400002F59D4205D303FA02F5491B04FA02F5AE
:100750002844151EA2F10102F1DC30BD202A04DB81
:10076000203A00FA02F1002070479140C2F12003C4
:1007700020FA03F3194390407047202A04DB203A03
:1007800021FA02F00021704721FA02F3D040C2F1B1
:1007900020029140084319467047202A06DBCB17F8
:1007A000203A41FA02F043EAE07306E041FA02F32C
:1007B000D040C2F120029140084319467047000022
:1007C0000FB4002300B589B00CA900910B996FF00C
:1007D0000042CB601E4B06931E4B07930423CDE9CA
:1007E00001321D4A089202466B46002000F00CFAC6
:1007F00009B05DF814FB70B586B006464FF0FF30C7
:100800000091CDE90101002015460C4604903246C6
:10081000694604A8FFF7D4FF02460498211825B1C1
:1008200008B1084600E020462860049800280DD052
:10083000002A02DD0098884208D0081B0094CDE908
:1008400001043246694604A8FFF7BAFF06B070BD3E
:10085000410E00085F0E0008F50A00082DE9F04778
:1008600091460F4680460446002614F8015B2DB1E0
:1008700000F03CF90068405DC007F6D12B2D02D096
:100880002D2D18D0641E4A463946204600F0F8FA4D
:1008900027B13968A14201D1C7F8008071054FF036
:1008A00002040BD54042002803DD25F0E1FA046084
:1008B000A007BDE8F08746F48066E4E70028F8DA90
:1008C00025F0D6FA04606FF00040F2E70029A8BFD7
:1008D0007047401C490008BF20F00100704710B469
:1008E000B0FA80FC00FA0CF050EA010404BF10BC1E
:1008F000704749B1CCF1200421FA04F411FA0CF14B
:1009000018BF012121430843A3EB0C01CB1D4FEA83
:1009100000614FEA102042BF002010BC704700EB7E
:10092000C35010440029A4BF10BC7047401C4900AC
:1009300008BF20F0010010BC704710B5141E73F101
:10094000000408DA401C41F1000192185B411A438F
:1009500001D120F0010010BD2DE9F04D92469B46DB
:1009600011B1B1FA81F202E0B0FA80F22032904681
:10097000FFF7F4FE04460F4640EA0A0041EA0B0185
:1009800053465A46084313D0114653EA010019D082
:10099000C8F140025046FFF7F0FE05460E465046AD
:1009A00059464246FFF7DAFE084305D0012004E02D
:1009B00020463946BDE8F08D0020054346EAE07642
:1009C0002C4337430A986305E40AA0EB0800002291
:1009D000FD0A44EA47540A3002D500200146E9E7FF
:1009E000010510196941DDE9084500196941BDE8B3
:1009F000F04DA2E72DE9F04D00231A461B1A8A415B
:100A000003DB00200146BDE8F08DC1F30A52C1F3BB
:100A1000130141F480154FF0000BD10702D10018EB
:100A20006D41521E0027044640F2FF11384601EB8B
:100A3000620A3E468046024600204FF48011FFF7CE
:100A40009CFEC2197141BB1846EB0100B4EB030CCC
:100A500075EB000C04D3E41A65EB000517460E464F
:100A6000241908F101006D4180463428E3DDF919AD
:100A700046EB0600091BA84103D24FF0FF32134694
:100A800001E0002213461BEB070046EB0A51BDE8CC
:100A9000F04DFFF752BFC1F30A52C1F3130140F208
:100AA000FF3341F480119A4202DA00200146704778
:100AB00040F233439A42A2F2334202DC5242FFF741
:100AC0005CBEFFF74BBE0000064C074D06E0E06839
:100AD00040F0010394E8070098471034AC42F6D385
:100AE000FFF768FB482A0708682A0708004870478C
:100AF000D029070810B50446FFF7F8FF0068005D2D
:100B000000F0010010BD00002DE9FF4F087881B012
:100B10009946FF2805D0491C2D2804D00024002325
:100B200008E000230BE00124F9E703EB830300EB6B
:100B30004303491C0878FF28F7D104B15B42002029
:100B40000090147801462D2C01D02B2C04D1521C7E
:100B50002D2C12D00024009400251678FF2E0ED0E4
:100B60000A24A0FB04C801FB0481002700FB071135
:100B7000521C16EB0C006941EFE70124EBE79944A6
:100B800050EA01020ED00024AA4D2646DFF8A882C2
:100B900000F0D3F982468B46B9F1000009DAC9F1B9
:100BA00000071BE001980021C0E9001105B0BDE875
:100BB000F08F074612E0F80707D022462B46304652
:100BC0004146FFF74EFC0646884622462B46104615
:100BD0001946FFF746FC04460D467F10002FEAD168
:100BE000B9F1000F324643465046594602DAFFF744
:100BF000AAFC01E0FFF735FC009A0AB181F0004140
:100C0000019AC2E90001D1E72DE9FF4F1F468DB0DF
:100C1000D7E901464FF0FF382E2045464FF0000936
:100C20000B90B9696D1C0E988847396A82468847CF
:100C30000028F6D1BAF1FF3F0AD024F4D064002E88
:100C400011DDBAF12B0F08D0BAF12D0F0BD102E054
:100C5000404611B0ABE744F48064B9696D1C0E984E
:100C600088478246761E6946600501D52D2000E042
:100C70002B208DF8000001F1010B0DF1200809E097
:100C8000B9696D1C0E98884782460F9844F4007429
:100C9000761E0560002E02DDBAF1300FF0D00B9900
:100CA0008A453ED144F0800406E00F99681CA9F102
:100CB000010944F400740860B9696D1C761E0E9831
:100CC000884782463028F0D02BE00B998A4505D121
:100CD000200603D444F08004761E18E0504625F028
:100CE00003FA08B30DF11301761E44F400748B452A
:100CF00008D2AAF130000BF8010B200607D5A9F1A4
:100D0000010003E0200602D409F101008146A0059C
:100D100002D50F99681C0860B9696D1C0E98884748
:100D20008246002ED1DC53E0002E51DDBAF1650F72
:100D300002D0BAF1450F4BD1A00549D5B9696D1C58
:100D400024F44074761E0E9888478246002E0CDDEF
:100D50002B2804D0BAF12D0F07D144F48074B9695F
:100D60006D1C0E9888478246761EE00501D52D2120
:100D700000E02B2108F8011BCDF82C8021E00DF1BB
:100D80002901761E44F4007488450CD2AAF1300083
:100D900010F0FF0088F8000002D10B99884509D9AE
:100DA00008F1010806E0E00501D5244801E042F21F
:100DB0000F708146B9696D1C0E98884782460F985E
:100DC0000560002E04DD504625F08EF90028D6D1AE
:100DD000F9690E988847FF208BF8000088F800001A
:100DE0000020069007904B466A4608A906A8FFF720
:100DF0008BFEA00502D46FF001002AE714F0240F47
:100E00000AD0E00714D1DDE906123868031D3B6003
:100E10000068C0E900120BE0DDE90601FFF76CFC99
:100E20000146E00704D13868021D3A60006801609D
:100E300028460EE7000024400000F03FF1D8FFFFF5
:100E4000426842B1016811F8013B23B1521EC0E96A
:100E50000012184670470121C160881E7047426821
:100E60005AB1C368016843B983688B4205D0491EF3
:100E7000521CC0E90012002070474FF0FF3070474D
:100E80002DE9F05F82460078002715468B460AF16F
:100E90000104B946302801D09DB113E014F8010BCC
:100EA0000127782803D0582801D045B10AE00DB1B8
:100EB000102D07D10027102514F8010B02E008259A
:100EC00000E00A250026B0460EE005FB080005FB01
:100ED00006F1012701EB10461FFA80F8B6F5803FB6
:100EE00000D3B94614F8010B294600F018F8002881
:100EF000EBDABBF1000F05D00FB1641E00E05446E1
:100F0000CBF80040B9F1000F06D024F0B1FF022168
:100F10000160C81EBDE8F09F48EA0640FAE73A289B
:100F200000D2303820F02002412A01D3A2F137004C
:100F3000884201D34FF0FF3070470EB540F2334284
:100F400002920022CDE900221346FFF705FD03B00F
:100F500000BD70B58C1810F8015B15F0070301D1C6
:100F600010F8013B2A1106D110F8012B03E010F80C
:100F7000016B01F8016B5B1EF9D12B0705D400232F
:100F8000521E0DD401F8013BFAE710F8013BCB1AD1
:100F9000921C03E013F8015B01F8015B521EF9D5C6
:100FA000A142D8D3002070BD164910B5887A0A280E
:100FB00027D2DFE800F01A26222626262626051E3E
:100FC000C87AC97B114A00EBC1015339C9B29FED00
:100FD0000E0A02EB8101523881ED000AC0B227F0FF
:100FE000A1FCBDE8104018F0EBB9BDE8104029F0B5
:100FF000CDBEBDE8104028F055BABDE8104018F04D
:1010000055BF10BD3C02002000000000F4FF00208E
:101010000029816802D041F0010101E021F00101C5
:1010200081607047084B10B5D3F8042307490A4084
:10103000D0E900142143D0E9024004432143114385
:10104000C3F8041310BD000000200140E030FCFF95
:101050000029816802D041F4807101E021F480719F
:10106000816070470029816802D041F4007101E07D
:1010700021F400718160704730B542680F4B0C79E4
:101080001A400B6842EA04221343436082680C4B07
:101090004D791A40D1E9034323438C6844EA45045F
:1010A000234313438360C26A097D22F47002491E00
:1010B000C9B242EA0151C16230BD0000FFFEFFFC2F
:1010C000FDF7FFC070B5072609290AD9C568A1F147
:1010D0000A0404EB4404A640B543A3401D43C56085
:1010E00007E0056901EB4104A640B543A3401D4359
:1010F00005611F23072A09D2446B521E02EB8202AC
:1011000093409C4391400C43446370BD0D2A09D227
:10111000046BD21F02EB820293409C4391400C432C
:10112000046370BDC46A0D3A02EB820293409C4393
:1011300091400C43C46270BD816841F08041816080
:1011400070470000F0B5344B9FED320AA3F20C77E4
:1011500083ED010A9FED310A002183ED020ADFEDE4
:101160002C0A08462E4EA3F1A00597F833200AE07A
:1011700017F800C0BCF1000F03D155F820C0B445EA
:101180000CDB401CC0B28242F2D8012C06D0C3ED69
:10119000000AC3ED010AC3ED020AF0BD0020214C94
:1011A0002AE017F800C0BCF1000F23D105EB800C3A
:1011B0009CED000A10EE10CAB4451BDA04EB800C5B
:1011C000491C9CED001AC9B230EE410A93ED011A98
:1011D00070EE200AB4EEC10AF1EE10FA01DD83EDE3
:1011E000010A93ED021AB4EEC10AF1EE10FA01D22F
:1011F00083ED020A401CC0B28242D2D800EE101A1F
:10120000B8EE400A80EE801A83ED001AF0BD0000AF
:1012100000000000000048C3200A012000E0F9445B
:1012200000E0F944F4FF00200A48817A0D290BD22E
:10123000DFE801F00A0A0A0A070D0D0D0D0A0A0A75
:101240000B00C07A332802D070470348007825F09D
:10125000E5BD00003C0200203000002000210D4AC6
:101260000846135C012B00D10121401CC0B2282884
:10127000F7D30948012908D10649503991F82A10B5
:10128000012902D10549097811B1002118F0EEBBFE
:101290000121FBE764030120000401404602002015
:1012A0001CB54FF48070012100908DF804100020CF
:1012B0008DF806008DF807108DF805006946024884
:1012C00011F0E4F91CBD000000000240FEE7000040
:1012D00010B5074C0121204618F0C8FB4FF6FF70EF
:1012E00005F09AFB2046BDE81040002118F0BEBB77
:1012F0000004014010B5044639202CF039F9E0B261
:101300002CF05AF9C4F307202CF056F9C4F3074027
:101310002CF052F9200E2CF04FF92CF019F9BDE801
:10132000104024F0BFBC70B5064614460D463C2064
:101330002CF01EF9E8B22CF03FF9280A2CF03CF909
:101340002CF006F90CB1002011E024F0ABFC1E28B3
:101350000FD1304600F030F905463D202CF008F959
:101360002CF0F6F82E44002CEFD020882844208062
:10137000EBE770BD10B514F0BDF908B100F069F8E5
:10138000BDE81040302000F0B2B8312000F0AFB816
:101390000146362000F09EB810B508B100F0C5F83F
:1013A000BDE81040342000F0A2B870B5054600F04A
:1013B000A7F804000DD00146284600F021F8412886
:1013C00007D0142803D0422800D1B32070BD432099
:1013D00070BD2819BDE87040FFF7DEBF10B50446A8
:1013E00000F0A3F820785C2801D02F2803D1002139
:1013F000642000F0F7F8BDE81040322000F077B824
:1014000070B50E4600210546012401E0641CE4B2DB
:10141000285D5C2813D02F2811D00028F6D1002495
:101420006818FFF7DBFF002C08D0B44206D0412833
:101430000AD0142806D0422800D1B32070BD641C05
:10144000E4B2EDE7432070BD2146E1E7FF21FFF75D
:10145000D7BF10B522202CF08BF8322005F0DCFA33
:101460002CF07CF804462CF073F8204610BD2DE9D2
:10147000F0412CF073F806462CF070F805462CF07D
:101480006DF804462CF06AF807462CF061F846EA3D
:10149000052040EA044040EA0760BDE8F08110B54D
:1014A00004460C202CF064F820462CF085F8BDE8AA
:1014B0001040FFF7DCBF10B504460A202CF058F8A6
:1014C00020462CF079F82CF049F804462CF040F82E
:1014D000204610BD10B50C462CF04AF820462CF0E2
:1014E0006BF82CF035F8BDE8104024F0DBBB10B5EC
:1014F0002CF03EF82CF02CF8BDE8104024F0D2BBC4
:10150000014600E0491C0A78002AFBD105E011F8E9
:10151000012D5C2A03D02F2A01D08142F7D18142CC
:1015200000D0491C081AC0B2704770B505460120AA
:101530002CF01EF82CF012F8432828D22B20FFF7AD
:10154000BAFF102823D22F202CF012F800202CF004
:1015500033F83220FFF7CBFF142818D1CF20FFF744
:10156000AAFF040013D04C20FFF799FF00EB0421E1
:101570004C2000F037F85020FFF791FF00EB0421DA
:10158000502000F02FF80021702000F02BF82F20C1
:101590002BF0EEFF2C7806E015F8014F5C2C01D003
:1015A0002F2C00D1002420462CF006F8002CF3D17B
:1015B000BDE870402BF0CCBF70B505462D202BF058
:1015C000D7FF2BF0CBFF0446260007D028782BF05E
:1015D000F3FF641E6D1C14F0FF04F7D12BF0B8FF6D
:1015E000304670BD70B505460C460D202BF0C0FF8F
:1015F00028462BF0E1FFE0B22BF0DEFFC4F307201A
:101600002BF0DAFFC4F307402BF0D6FF200E2BF0AF
:10161000D3FFBDE870402BF09BBF00002DE9F041E7
:1016200088B00121812014F071F80121080314F021
:10163000A9F8DFF8C88005221146404611F062F88B
:1016400005220621404611F05DF80522072140469B
:1016500011F058F802258DF805508DF8045000243B
:1016600020278DF8064000978DF8074069464046D0
:1016700011F00CF8402000906946404611F006F841
:10168000802000906946404611F000F810200126A5
:1016900000908DF804608DF806406946404610F0D1
:1016A000F5FF8DF8044000978DF8076069461448EF
:1016B00010F0ECFFADF808404FF48270ADF80A006E
:1016C000ADF810602802ADF812003820ADF8140013
:1016D000ADF80C40ADF8164007200A4CADF81800E4
:1016E000ADF80E5002A9204617F0C9FD0121204691
:1016F00017F0C2FB08B0BDE8F08100000000024016
:10170000001C024000300140F0B5FF231A460025BE
:1017100018E0445D6240002402F0010613F0010F5E
:101720004FEA53034FEA520201D042F080021EB149
:1017300083F0A00382F00102641CE4B2082CEBD316
:101740006D1CEDB28D42E4D342EA0320F0BD0000EF
:101750002DE9F047FE48FF4FFF4C00784FF48275AB
:101760004FF4AA764FF470484FF4A57940B10128A0
:1017700074D0022873D0032872D0042871D025E3D6
:101780002078012801D028B10FE0882012F014FB46
:10179000384603E0882012F00FFB404612F028FB89
:1017A000EEA20A21642011F031FF6078012801D0F7
:1017B00028B10FE0882012F0FFFA384603E08820B5
:1017C00012F0FAFA404612F013FBE5A20A21B42007
:1017D00011F01CFFA078012801D028B10FE088206B
:1017E00012F0EAFA384603E0882012F0E5FA4046A3
:1017F00012F0FEFADBA20A21284611F007FFE0787A
:10180000012801D028B10FE0882012F0D5FA38461F
:1018100003E0882012F0D0FA404612F0E9FAD2A292
:101820000A21304611F0F2FE2079012801D028B1BA
:101830000FE0882012F0C0FA384603E0882012F04A
:10184000BBFA404612F0D4FAC8A24946642011F00F
:10185000DDFE6079012805D048B113E039E0CEE023
:1018600063E133E2882012F0A7FA384603E08820CB
:1018700012F0A2FA404612F0BBFABDA24946B420CB
:1018800011F0C4FEA079012801D028B10FE0882012
:1018900012F092FA384603E0882012F08DFA4046A2
:1018A00012F0A6FAB3A24946284611F0AFFEE0793D
:1018B000012801D028B189E2882012F07DFA38464B
:1018C00003E0882012F078FA404612F091FAAAA2BA
:1018D00078E2207A01284FF0880070D012F06CFA7C
:1018E000404612F085FAA5A20A21642011F08EFE6E
:1018F000607A01284FF0880065D012F05DFA40460A
:1019000012F076FA9EA20A21B42011F07FFEA07A8E
:1019100001284FF088005AD012F04EFA404612F0DB
:1019200067FA98A20A21284611F070FEE07A012891
:101930004FF088004FD012F03FFA404612F058FAAC
:1019400091A20A21304611F061FE207B01284FF060
:10195000880044D012F030FA404612F049FA8BA2C7
:101960004946642011F052FE607B01284FF0880048
:1019700039D012F021FA404612F03AFA84A24946D0
:10198000B42011F043FEA07B01284FF088002ED038
:1019900012F012FA404612F02BFA7EA2494628466F
:1019A00011F034FEE07B01284FF0880023D012F0C4
:1019B00003FA404612F01CFA77A203E2FFE712F0A6
:1019C000FBF938468DE712F0F7F9384698E712F040
:1019D000F3F93846A3E712F0EFF93846AEE712F014
:1019E000EBF93846B9E712F0E7F93846C4E712F0E8
:1019F000E3F93846CFE712F0DFF93846DAE7207C22
:101A000001284FF0880070D012F0D6F9404612F04D
:101A1000EFF962A20A21642011F0F8FD607C012830
:101A20004FF0880065D012F0C7F9404612F0E0F997
:101A30005BA20A21B42011F0E9FDA07C01284FF03F
:101A400088005AD012F0B8F9404612F0D1F955A2E8
:101A50000A21284611F0DAFDE07C01284FF08800C9
:101A60004FD012F0A9F9404612F0C2F94EA20A2155
:101A7000304611F0CBFD207D01284FF0880044D086
:101A800012F09AF9404612F0B3F948A24946642090
:101A900011F0BCFD607D01284FF0880039D012F0B4
:101AA0008BF9404612F0A4F941A24946B42011F046
:101AB000ADFDA07D01284FF088002ED012F07CF9FA
:101AC000404612F095F93BA24946284611F09EFD8A
:101AD000E07D01284FF0880023D012F06DF94046D8
:101AE00012F086F934A26DE1FFE712F065F938468D
:101AF0008DE712F061F9384698E712F05DF9384643
:101B0000A3E712F059F93846AEE712F055F9384616
:101B1000B9E712F051F93846C4E712F04DF93846EA
:101B2000CFE712F049F93846DAE7207E01284FF076
:101B300088007DD012F040F9404612F059F91FA2FA
:101B40000A21642011F062FD607E012838E0000067
:101B50004802002093551700140301203030310053
:101B60003030320030303300303034003030350027
:101B70003030360030303700303038003030390007
:101B8000303130003031310030313200303133000B
:101B900030313400303135003031360030313700EB
:101BA00030313800303139003032300030323100DD
:101BB00030323200303233003032340030323500CF
:101BC0004FF0880066D012F0F7F8404612F010F996
:101BD00099A20A21B42011F019FDA07E01284FF02E
:101BE00088005BD012F0E8F8404612F001F993A2A9
:101BF0000A21284611F00AFDE07E01284FF08800F6
:101C000050D012F0D9F8404612F0F2F88CA20A2116
:101C1000304611F0FBFC207F01284FF0880045D0B2
:101C200012F0CAF8404612F0E3F886A2494600E0F6
:101C30002CE0642011F0EAFC607F01284FF088005E
:101C400038D012F0B9F8404612F0D2F87EA24946D8
:101C5000B42011F0DBFCA07F01284FF088002DD0CC
:101C600012F0AAF8404612F0C3F878A24946284676
:101C700011F0CCFCE07F01284FF0880022D012F058
:101C80009BF8404612F0B4F871A29BE012F094F871
:101C9000384652E712F090F8384697E712F08CF881
:101CA0003846A2E712F088F83846ADE712F084F81B
:101CB0003846B8E712F080F83846C5E712F07CF8ED
:101CC0003846D0E712F078F83846DBE794F8200081
:101CD00001284FF088007DD012F06EF8404612F0D7
:101CE00087F85CA20A21642011F090FC94F821008E
:101CF00001284FF088006ED012F05EF8404612F0D6
:101D000077F855A20A21B42011F080FC94F8220043
:101D100001284FF0880074D012F04EF8404612F0BF
:101D200067F84EA20A21284611F070FC94F82300AF
:101D300001284FF0880068D012F03EF8404612F0BB
:101D400057F847A20A21304611F060FC94F82400AD
:101D500001284FF088005CD012F02EF8404612F0B7
:101D600047F840A24946642011F050FC94F8250041
:101D700001284FF0880050D012F01EF8404612F0B3
:101D800037F839A24946B42011F040FC94F82600F7
:101D900001284FF0880044D012F00EF8404612F0AF
:101DA00027F832A24946284611F030FC94F8270063
:101DB00001284FF0880038D011F0FEFF404612F0A5
:101DC00017F82BA24946304611F020FC2949012082
:101DD000C87001E00CE010E0FFF77AFA94F83000E8
:101DE00038B325A005F0F2FABDE8F04717F0E8BADD
:101DF00011F0E2FF384672E703E011F0DDFF3846EC
:101E00007DE711F0D9FF384689E711F0D5FF384654
:101E100095E711F0D1FF3846A1E711F0CDFF384624
:101E2000ADE711F0C9FF3846B9E711F0C5FF3846F4
:101E3000C5E714A0D6E70000303236003032370054
:101E40003032380030323900303330003033310036
:101E50003033320030333300303334003033350028
:101E60003033360030333700303338003033390008
:101E700030343000C40100204368616E6E656C2010
:101E800073657400CDA8B5C0C9E8D6C300000000D2
:101E90002DE9F05FFA48DFF8ECA3FB4C00784FF433
:101EA00082754FF496764FF4AA784FF4BE794FF4CA
:101EB000704B10B101286ED03EE32078012801D08C
:101EC00028B10FE0882011F077FF504603E088200A
:101ED00011F072FF584611F08BFFECA20A2164202A
:101EE00001F006FC6078012801D028B10FE08820BD
:101EF00011F062FF504603E0882011F05DFF584664
:101F000011F076FFE2A20A218C2001F0F1FBA0780B
:101F1000012801D028B10FE0882011F04DFF504674
:101F200003E0882011F048FF584611F061FFD9A264
:101F30000A21B42001F0DCFBE078012801D028B1AF
:101F40000FE0882011F038FF504603E0882011F0A0
:101F500033FF584611F04CFFCFA20A21DC2001F0DC
:101F6000C7FB2079012801D028B10FE0882011F0AB
:101F700023FF504603E0882011F01EFF584611F061
:101F800037FFC6A20A21284601F0B2FB607901287A
:101F900002D030B110E0C8E1882011F00DFF5046AA
:101FA00003E0882011F008FF584611F021FFBCA281
:101FB0000A21304601F09CFBA079012801D028B10C
:101FC0000FE0882011F0F8FE504603E0882011F061
:101FD000F3FE584611F00CFFB2A20A21404601F070
:101FE00087FBE079012801D028B10FE0882011F0AB
:101FF000E3FE504603E0882011F0DEFE584611F063
:10200000F7FEA9A20A21484601F072FB94F83300BA
:1020100008286FD9207A4FF4A577012801D028B17C
:102020000FE0882011F0C8FE504603E0882011F030
:10203000C3FE584611F0DCFE9CA23946642001F034
:1020400057FB607A012801D028B10FE0882011F0F9
:10205000B3FE504603E0882011F0AEFE584611F062
:10206000C7FE93A239468C2001F042FBA07A0128DA
:1020700001D028B10FE0882011F09EFE504603E009
:10208000882011F099FE584611F0B2FE89A2394617
:10209000B42001F02DFBE07A012801D028B10FE037
:1020A000882011F089FE504603E0882011F084FE5C
:1020B000584611F09DFE80A23946DC2001F018FB45
:1020C000207B012801D028B10FE0882011F074FE98
:1020D000504603E0882011F06FFE584611F088FE4C
:1020E00076A23946284601F003FB607B012802D026
:1020F00030B110E039E0882011F05EFE504603E078
:10210000882011F059FE584611F072FE6CA2394633
:10211000304601F0EDFAA07B012801D028B10FE094
:10212000882011F049FE504603E0882011F044FE5B
:10213000584611F05DFE63A23946404601F0D8FAD8
:10214000E07B012801D028B10FE0882011F034FE97
:10215000504603E0882011F02FFE584611F048FE4B
:1021600059A23946484601F0C3FA94F833001028C2
:102170006FD9207C4FF4CD77012801D028B10FE032
:10218000882011F019FE504603E0882011F014FE5B
:10219000584611F02DFE4DA23946642001F0A8FAF0
:1021A000607C012801D028B10FE0882011F004FEE6
:1021B000504603E0882011F0FFFD584611F018FE4C
:1021C00043A239468C2001F093FAA07C012801D06B
:1021D00028B10FE0882011F0EFFD504603E0882081
:1021E00011F0EAFD584611F003FE3AA23946B42038
:1021F00001F07EFAE07C012801D028B10FE08820B0
:1022000011F0DAFD504603E0882011F0D5FD584664
:1022100011F0EEFD30A23946DC2001F069FA207D94
:10222000012801D028B10FE0882011F0C5FD5046EB
:1022300003E0882011F0C0FD584611F0D9FD27A217
:102240003946284601F054FA607D012802D030B1A9
:1022500010E071E1882011F0AFFD504603E08820C6
:1022600011F0AAFD584611F0C3FD1DA239463046B3
:1022700001F03EFAA07D012834D000B142E036E002
:10228000480200209355170014030120303031001C
:1022900030303200303033003030340030303500F0
:1022A00030303600303037003030380030303900D0
:1022B00030313000303131003031320030313300D4
:1022C00030313400303135003031360030313700B4
:1022D00030313800303139003032300030323100A6
:1022E00030323200882011F067FD504603E088202C
:1022F00011F062FD584611F07BFDBAA23946404606
:1023000001F0F6F9E07D012801D028B114E1882020
:1023100011F052FD504603E0882011F04DFD584663
:1023200011F066FDB0A2394603E1207E01284FF08E
:1023300088007CD011F040FD584611F059FDABA249
:102340000A21642001F0D4F9607E01284FF0880052
:102350006ED011F031FD584611F04AFDA4A20A21B9
:102360008C2001F0C5F9A07E01284FF088007DD0B7
:1023700011F022FD584611F03BFD9EA20A21B42027
:1023800001F0B6F9E07E01284FF088006FD011F01F
:1023900013FD584611F02CFD97A20A21DC2001F014
:1023A000A7F9207F01284FF088007DD011F004FDAF
:1023B000584611F01DFD91A20A21284601F098F916
:1023C000607F01284FF088006FD011F0F5FC58466F
:1023D00011F00EFD8AA20A21304601F089F9A07F92
:1023E00001284FF088007DD011F0E6FC584611F02E
:1023F000FFFC84A20A21404601F07AF9E07F01281F
:102400004FF088006FD011F0D7FC584611F0F0FC67
:102410007DA20A21484601F06BF994F820000128BA
:102420004FF088007ED011F0C7FC584601E092E0E2
:1024300096E011F0DDFC75A2D221642001F058F97C
:1024400094F8210001284FF088006CD011F0B4FC02
:10245000584611F0CDFC6EA2D2218C2001F048F933
:1024600094F8220001284FF0880001E07CE07FE032
:1024700075D011F0A1FC584611F0BAFC65A2D2212A
:10248000B42001F035F994F8230001284FF08800BA
:1024900072D011F091FC584611F0AAFC5EA2D22134
:1024A000DC2001F025F901E067E06AE094F82400FF
:1024B00001284FF0880070D011F07EFC584611F0D2
:1024C00097FC56A2D221284601F012F994F8250073
:1024D00001284FF0880077D011F06EFC584611F0BB
:1024E00087FC01E051E054E04DA2D221304601F0DA
:1024F000FFF894F8260001284FF0880068D011F00A
:102500005BFC584611F074FC46A2D221404601F013
:10251000EFF894F8270001284FF088005CD011F004
:102520004BFC01E03BE03EE0584611F061FC3EA26E
:10253000D221484601F0DCF83C490120C870FEF782
:10254000C7FE94F8300048B339A004F03FFFBDE85F
:10255000F05F16F035BF11F02FFC5046EDE626E097
:1025600011F02AFC5046F7E611F026FC504602E72F
:1025700011F022FC50460DE71EE011F01DFC504604
:1025800017E711F019FC504622E711F015FC5046F0
:102590002DE711F011FC504638E711E020E011F072
:1025A0000BFC504642E711F007FC504651E711F092
:1025B00003FC504660E707E011F0FEFB50466BE776
:1025C00011F0FAFB50467AE711F0F6FB504686E729
:1025D00011F0F2FB504695E711F0EEFB5046A4E7F0
:1025E00016A0B2E7303233003032340030323500DA
:1025F0003032360030323700303238003032390075
:102600003033300030333100303332003033330078
:102610003033340030333500303336003033370058
:10262000303338003033390030343000C4010020FA
:102630004368616E6E656C2073657400CDA8B5C08B
:10264000C9E8D6C3000000002DE9F05FF84CDFF8C0
:10265000E4A34FF4704B2078012801D028B10FE09B
:10266000882011F0A9FB504603E0882011F0A4FB5C
:10267000584611F0BDFBF0A20A21642001F06EF86B
:102680006078012801D028B10FE0882011F094FB78
:10269000504603E0882011F08FFB584611F0A8FB4C
:1026A000E6A20A218C2001F059F8A078012801D077
:1026B00028B10FE0882011F07FFB504603E088200E
:1026C00011F07AFB584611F093FBDDA20A21B420E9
:1026D00001F044F8E078012801D028B10FE088200B
:1026E00011F06AFB504603E0882011F065FB584664
:1026F00011F07EFBD3A20A21DC2001F02FF8207913
:102700004FF48275012801D028B10FE0882011F024
:1027100053FB504603E0882011F04EFB584611F061
:1027200067FBC9A20A21284601F018F860794FF426
:102730009676012801D028B10FE0882011F03CFBEB
:10274000504603E0882011F037FB584611F050FB4B
:10275000BEA20A21304601F001F8A0794FF4AA790F
:10276000012801D028B10FE0882011F025FB504648
:1027700003E0882011F020FB584611F039FBB4A289
:102780000A21484600F0EAFFE0794FF4BE780128BC
:1027900001D028B10FE0882011F00EFB504603E075
:1027A000882011F009FB584611F022FBA9A20A214A
:1027B000404600F0D3FF94F83300082872D9207AFD
:1027C000012801D028B10FE0882011F0F5FA504619
:1027D00003E0882011F0F0FA584611F009FB9EA2A0
:1027E0008621642000F0BAFF607A012801D028B168
:1027F0000FE0882011F0E0FA504603E0882011F045
:10280000DBFA584611F0F4FA94A286218C2000F0ED
:10281000A5FFA07A012801D028B10FE0882011F08F
:10282000CBFA504603E0882011F0C6FA584611F062
:10283000DFFA8BA28621B42000F090FFE07A012815
:1028400001D028B10FE0882011F0B6FA504603E01D
:10285000882011F0B1FA584611F0CAFA81A28621F7
:10286000DC2000F07BFF207B012801D028B10FE0A5
:10287000882011F0A1FA504603E0882011F09CFA5C
:10288000584611F0B5FA78A28621284600F066FF76
:10289000607B012801D030B110E0882011F08CFA63
:1028A000504604E034E0882011F086FA584611F0D2
:1028B0009FFA6EA28621304600F050FFA07B0128CF
:1028C00001D028B10FE0882011F076FA504603E0DD
:1028D000882011F071FA584611F08AFA64A2862114
:1028E000484600F03BFFE07B012801D028B10FE013
:1028F000882011F061FA504603E0882011F05CFA5C
:10290000584611F075FA5BA28621404600F026FF7A
:1029100094F8330010286FD9207C4FF48177012878
:1029200001D028B10FE0882011F046FA504603E0AC
:10293000882011F041FA584611F05AFA4EA2394651
:10294000642000F00BFF607C012801D028B10FE06B
:10295000882011F031FA504603E0882011F02CFA5B
:10296000584611F045FA45A239468C2000F0F6FE93
:10297000A07C012801D028B10FE0882011F01CFABA
:10298000504603E0882011F017FA584611F030FA4B
:102990003BA23946B42000F0E1FEE07C012801D0E2
:1029A00028B10FE0882011F007FA504603E0882094
:1029B00011F002FA584611F01BFA32A23946DC2017
:1029C00000F0CCFE207D012801D028B10FE0882046
:1029D00011F0F2F9504603E0882011F0EDF9584665
:1029E00011F006FA28A23946284600F0B7FE607DAD
:1029F000012802D030B110E0C6E1882011F0DCF9E6
:102A0000504603E0882011F0D7F9584611F0F0F94C
:102A10001EA23946304600F0A1FEA07D012801D05B
:102A200028B140E0882011F0C7F9504634E02FE08B
:102A3000140301209355170030303100303032003C
:102A40003030330030303400303035003030360034
:102A5000303037003030380030303900303130001D
:102A60003031310030313200303133003031340018
:102A700030313500303136003031370030313800F8
:102A800030313900303230003032310030323200F3
:102A9000882011F091F9584611F0AAF9C3A23946DD
:102AA000484600F05BFEE07D012801D028B10FE030
:102AB000882011F081F9504603E0882011F07CF95C
:102AC000584611F095F9BAA23946404600F046FE44
:102AD000207E4FF4BF77012801D028B10FE0882075
:102AE00011F06AF9504603E0882011F065F9584664
:102AF00011F07EF9AFA23946642000F02FFE607E0F
:102B0000012801D028B10FE0882011F055F9504676
:102B100003E0882011F050F9584611F069F9A6A297
:102B200039468C2000F01AFEA07E012801D028B181
:102B30000FE0882011F040F9504603E0882011F0A2
:102B40003BF9584611F054F99CA23946B42000F0E4
:102B500005FEE07E012801D028B10FE0882011F0A9
:102B60002BF9504603E0882011F026F9584611F061
:102B70003FF993A23946DC2000F0F0FD207F0128C8
:102B800001D028B10FE0882011F016F9504603E07B
:102B9000882011F011F9584611F02AF989A2394616
:102BA000284600F0DBFD607F012801D028B10FE04E
:102BB000882011F001F9504603E0882011F0FCF85C
:102BC000584611F015F980A23946304600F0C6FD8E
:102BD000A07F012801D028B10FE0882011F0ECF887
:102BE000504603E0882011F0E7F8584611F000F94C
:102BF00076A23946484600F0B1FDE07F012801D0B9
:102C000028B10FE0882011F0D7F8504603E0882063
:102C100011F0D2F8584611F0EBF86DA23946404653
:102C200000F09CFD94F820004FF4FD77012801D0BE
:102C300028B10FE0882011F0BFF8504603E088204B
:102C400011F0BAF8584611F0D3F862A23946642060
:102C500000F084FD94F82100012801D028B10FE094
:102C6000882011F0A9F8504603E0882011F0A4F85C
:102C7000584611F0BDF858A239468C2000F06EFD80
:102C800094F82200012801D028B10FE0882011F02B
:102C900093F8504603E0882011F08EF8584611F062
:102CA000A7F84EA23946B42000F058FD94F823004E
:102CB000012801D028B10FE0882011F07DF850469E
:102CC00003E0882011F078F8584611F091F844A2FA
:102CD0003946DC2000F042FD94F82400012801D0A0
:102CE00028B10FE0882011F067F8504603E08820F3
:102CF00011F062F8584611F07BF83AA2394628469E
:102D000000F02CFD94F82500012801D028B10FE037
:102D1000882011F051F8504603E0882011F04CF85B
:102D2000584611F065F830A23946304600F016FDDD
:102D300094F82600012801D028B10FE0882011F076
:102D40003BF8504603E0882011F036F8584611F061
:102D50004FF826A23946484600F000FD94F82700B7
:102D6000012801D028B10FE0882011F025F8504645
:102D700003E0882011F020F8584611F039F81CA221
:102D80003946404600F0EAFC1A490120C870FEF7B7
:102D90009FFA94F8300030B117A004F017FBBDE89B
:102DA000F05F16F00DBB17A0F7E7000030323300DC
:102DB00030323400303235003032360030323700B5
:102DC00030323800303239003033300030333100A7
:102DD0003033320030333300303334003033350099
:102DE0003033360030333700303338003033390079
:102DF00030343000C40100204368616E6E656C2081
:102E000073657400CDA8B5C0C9E8D6C30000000042
:102E100070B504461A481D4D00EB840010ED010A00
:102E2000184800EB840050ED010A174800EB8400BD
:102E300030EE600A50ED010AB4EEE00AF1EE10FA4D
:102E400009D3134800EB840050ED010AB4EEE00A08
:102E5000F1EE10FA05DD0D48503890F82C000128ED
:102E600007D088216FF07F4010F0ACFF002028557C
:102E700070BD88214FF47F0010F0A4FF0120F6E719
:102E800080090120F4FF0020EC03002064030120EE
:102E90004C03002070B5374905460024086810F03F
:102EA000450FFBD0410702D50324042003E0C007EF
:102EB00004D00124204614F0A3FE59E014F0DCFEF7
:102EC000A8422BD140F2FF5014F09AFE002014F0DB
:102ED000F5FE294908424BD0002801DA1C2070BDBC
:102EE000410001D5092070BD810001D50A2070BDC7
:102EF000C10001D50B2070BD010101D50C2070BDB2
:102F0000410101D50D2070BDC10101D50E2070BD5C
:102F1000010201D50F2070BD410201D5102070BD06
:102F2000810201D5112070BDC10201D5122070BDF2
:102F3000010301D5132070BD410301D5142070BDDC
:102F4000810301D5152070BDC10301D5162070BDC8
:102F5000010401D5172070BD410401D5182070BDB2
:102F6000810401D5192070BD000701D51A2070BD5C
:102F7000204670BD342C014008E0FFFD10B50B4A1F
:102F80000024116811F0450FFBD0480702D5032437
:102F9000042003E0C80705D00124204614F030FEC9
:102FA000204610BD40F2FF50F8E70000342C0140ED
:102FB00070B50C46194906460025086810F0450F03
:102FC000FBD0410702D50324042003E0C00705D04D
:102FD0000124204614F014FE204670BD14F04CFE6F
:102FE000B04212D140F2FF5014F00AFE002014F05B
:102FF00065FE10F4604F03D0810404D5132070BD2A
:10300000000C208007E0410401D5102070BD0004B1
:1030100001D50F2070BD284670BD0000342C014042
:103020001CB51F481FA1214C098841811E486179A8
:103030000088401E00EB800001EB400000EB8001A7
:1030400001EBC0001A49014415480D390A30FDF75B
:103050001EF9184862788179CDE900124379027926
:1030600015A10F4822F0F0FE0D4901F10A00FDF70D
:103070000EF90B4814A10A30FDF709F908490A2294
:103080000A31134824F016FBE07030B111A004F0AF
:103090009DF9BDE81C4012F061BC11A0F7E70000EB
:1030A0002C0A0120303A00002C000020AC01002046
:1030B000F82A0120A00200202F253032642530326A
:1030C00064253032642564002E786C7300000000A3
:1030D000D41A0120B4B4BDA8CAA7B0DC0000000017
:1030E000B4B4BDA8CEC4BCFEB3C9B9A600000000EC
:1030F00010B50B460C0601F07F0202EB820100EBDB
:10310000C10102D501F58E7101E001F55D710A7012
:10311000DA094A7021F0D7FD002010BD0A4610B52B
:10312000090602F07F0306D503EB830100EBC10122
:1031300001F58E7105E002EB820100EBC10101F5A2
:103140005D7100248C700B70D2094A7021F0A2FDD1
:10315000002010BD10B50A0604D501F07F0121F052
:10316000D5FE01E021F0B4FE002010BD70B50D4683
:103170000E0601F07F0404EB840100EBC10102D5CF
:1031800001F58E7101E001F55D71ED090C704D7076
:103190008A60CB7000D0CC80022B01D100220A7152
:1031A00021F044FD002070BD10B501F07F0404EB58
:1031B000840100EBC101C1F88833C1F880230023EA
:1031C000C1F88C3381F8753381F87443C37801F505
:1031D0005D71012B00D10A6114F0FF0F03D021F0C3
:1031E000B1FD002010BD21F0B2FCFAE70069002219
:1031F00061F30A1201681143016070470A4610B575
:10320000090602F07F0306D503EB830100EBC10141
:1032100001F58E7105E002EB820100EBC10101F5C1
:103220005D7101248C700B70D2094A7021F072FD1F
:10323000002010BD70B511F07F0404EB840100EB99
:10324000C1014FF0010581F81D5181F81C41C1F801
:103250002821C1F82C2101F58E714FF00002C1E93F
:10326000053203D021F06EFD002070BD21F06FFC0F
:10327000FAE700002DE9F0410646002421F08FFE18
:10328000074655E0F80751D03069E1B20369426B57
:10329000CA4006EB810102F00102896943EAC212C9
:1032A0008D681540E9071AD00125426B05FA04F133
:1032B0008A43426306EB8400806985601F48E1B25F
:1032C0000068426830469047F078012807D134B949
:1032D00096F81101042802D1304621F095FC280708
:1032E00004D506EB8400082580698560E80604D5CE
:1032F00006EB8400102580698560680604D506EB1E
:103300008400402580698560A80704D506EB840009
:10331000022580698560280608D52146304600F0E0
:103320006CF906EB84018020896988607F08641C41
:10333000002FA7D10120BDE8F0810000700000201F
:103340002DE9F0410546002421F02FFE0746DFF865
:10335000988043E0F8073FD0E1B2284621F02BFEE9
:103360000646C00725D005EB84000126416D8E601E
:10337000E97801290CD1406D016904EB840005EB6B
:10338000C000C1F31201D0F87C23511AC0F88C138D
:10339000D8F80000E1B2026828469047E878012892
:1033A00007D134B995F81101052802D1284621F03A
:1033B0002BFCB00704D505EB84000226406D866027
:1033C000300709D5D8F8000081682846884705EB02
:1033D00084010820496D88607F08641C002FB9D1E2
:1033E0000120BDE8F08100007000002070B50546A6
:1033F000C068816921F010018161E868066A06F001
:103400000F0000EB800005EBC004C6F3434004F559
:103410005D74072821D2DFE800F02020042020205E
:10342000150047F6F070064217D0C6F30A1632466A
:103430002846E16821F0C7FDE0683044E060A069FB
:10344000304409E0082205F2CC51284621F0BBFDAA
:10345000A069C6F30A110844A061E868816941F0D7
:1034600010018161012070BD38B5044600208DF83F
:10347000000094F812018DF80000154800684169B9
:103480002046884720698068E2684FF400615161F6
:10349000A17AD1B1C00718D094F81501012814D130
:1034A0009DF80000032810D1D4F80C01016841F008
:1034B00001010160D4F80C01016841F003010160D1
:1034C0000448016841F006010160012038BD000098
:1034D0007000002010ED00E070B504460069002582
:1034E0000126416821F0010141602946204621F072
:1034F0000DFD0020FF2206E004EB80018B699A603D
:10350000496D8A60401C61788142F5D821694FF08D
:10351000FF3088612846216966F30F0066F31F407B
:10352000C861216945F00B0048612169C1F8840038
:10353000216945F00B000861216948642069016830
:1035400021F4FE610160204621F05EFBE1684FF44A
:10355000805048610348006801692046884701207F
:1035600070BD00007000002070B5044621F03CFDE5
:103570000120002384F8120184F814311A464025F2
:1035800010E002EB820104EBC10181F81D0181F81A
:103590001C21A1F8222181F81F31C1E94953521C95
:1035A000C1F8303161789142EBD8002010E000EB97
:1035B000800104EBC10181F8753381F87403A1F82F
:1035C0007A0381F87733C1E9DF53401CC1F88833AF
:1035D00061788142EBD8204621F094FA204621F010
:1035E00077F90021204621F05FFD204621F0B0F957
:1035F0002046BDE8704021F063BC2DE9F0470E463F
:1036000001EB860100EBC1048046D4E94C01401A6D
:10361000D4F8241104F58E74814200D20846C01CEF
:10362000870808EB86091EE0451AA068A84200D268
:103630000546E81C8708ABB2F2B24046E16821F0CB
:1036400048FDE0682844E060A0692844A061616901
:10365000884208D3207801218140D8F81000426BBD
:103660008A4342630BE0D9F81800806980B2B842FF
:1036700005D9D4E90501814201D20028D4D1012025
:10368000BDE8F0872DE9F04115460C468046154E01
:103690004FF4207719E0802A0BD21348B0612146FD
:1036A00040460FF043FFB0696D1C8088204484B20F
:1036B0000BE00E48B0612A462146404600F0C2F9B0
:1036C000B069AD1C8088204484B2BC4208D22A78FC
:1036D000002A05D0B0698088011989B28142DAD206
:1036E000BDE8F0811C020020EC0200202C03002029
:1036F0002DE9F04115460C468046154E4FF42077D3
:1037000019E0802A0BD21348B061214640460FF0E1
:103710000DFFB0696D1C8088204484B20BE00E4818
:10372000B0612A46214640460FF016FFB069AD1C35
:103730008088204484B2BC4208D22A78002A05D06E
:10374000B0698088011989B28142DAD2BDE8F0817E
:103750001C020020E40200201C0300202DE9F0419F
:1037600015460C468046154E4FF4207719E0802A06
:103770000BD21348B061214640460FF0D7FEB06926
:103780006D1C8088204484B20BE00E48B0612A464C
:103790002146404600F0FCF8B069AD1C808820440A
:1037A00084B2BC4208D22A78002A05D0B069808849
:1037B000011989B28142DAD2BDE8F0811C020020F1
:1037C000D4020020340300202DE9F04F334EDFF8FF
:1037D000D0A0DFF8D080DFF8D09085B0002443F28D
:1037E000FF3B8821084610F0EDFAC4EBC40000EB63
:1037F000800000F128052023C8222946462010F029
:1038000001F88821584610F0DDFA621C27A103A8B0
:1038100022F01AFB284603AA0A210FF0C1FE28460F
:1038200023A232210FF0BCFE7079671C874202D1BF
:103830005146002001E08821504610F0C3FAB8F844
:10384000000000EB800004EB400000EB800101EB86
:10385000C00101EB090228464621823A0FF0A0FE82
:10386000FCB20A2CBDD38821504610F0ABFAB379D4
:10387000B8F800200FA1684622F0E6FA6A464FF435
:10388000FA714FF4C8700FF08BFE0C490D200870D0
:1038900008F0CEF905B0BDE8F08F0000AC010020C3
:1038A00000FFFF002C000020343A012025640000B6
:1038B0002E00000025642F25640000004602002031
:1038C0002DE9F0472A4EDFF8AC90DFF8AC80DFF846
:1038D000ACA086B000248821484610F073FA621C20
:1038E00027A103A822F0B0FAC4EBC40000EB8000CB
:1038F0002830054603AA0A210FF052FE284621A2CD
:1039000032210FF04DFE7079671C874202D1494683
:10391000002001E08821484610F054FAB8F8000071
:1039200000EB800004EB400000EB800101EBC001E4
:1039300001EB0A0228464621823A0FF031FEFCB222
:103940000A2CC8D38821484610F03CFA3379B8F8DD
:1039500000200DA1684622F077FA6A464FF4FA710A
:103960004FF4C8700FF01CFE06B0BDE8F0870000F1
:10397000AC01002000FFFF002C000020F82A0120ED
:10398000256400002E00000025642F25640000003F
:103990002DE9F04116460F46804600240D4D0FE0FC
:1039A00032788A420AD105EB400271785078814220
:1039B00004D139464046921C0FF09AFE641CA4B212
:1039C00004EB440000EB041015F810108029E7D830
:1039D000BDE8F081ADF705082DE9F04115460C462C
:1039E0008046154E4FF4207719E0802A0BD21348F9
:1039F000B061214640460FF099FDB0696D1C80888A
:103A0000204484B20BE00E48B0612A46214640466D
:103A100000F018F8B069AD1C8088204484B2BC4224
:103A200008D22A78002A05D0B0698088011989B2A5
:103A30008142DAD2BDE8F0811C020020040300209C
:103A4000240300202DE9F04116460F46804600244D
:103A50000C4D0EE032788A4209D1421971785078C3
:103A6000814204D139464046921C0FF041FE641C4D
:103A7000A4B204EB8400C0EB8410295C8029E9D84F
:103A8000BDE8F08168DA05082DE9F04115460C46DD
:103A90008046154E4FF4207719E0802A0BD2134848
:103AA000B061214640460FF041FDB0696D1C808831
:103AB000204484B20BE00E48B0612A4621464046BD
:103AC000FFF7C0FFB069AD1C8088204484B2BC42BF
:103AD00008D22A78002A05D0B0698088011989B2F5
:103AE0008142DAD2BDE8F0811C0200200C030020E4
:103AF000240300202DE9F041204E15460C46804657
:103B00006BB3012B38D18821084610F05BF92823CC
:103B10009022414620460FF075FEBDE8F041882115
:103B20006FF07F4010F04EB9802A0BD21448B0617C
:103B3000214640460FF0FAFCB0696D1C8088204495
:103B400084B20EE00F48B0612A46214640460FF08D
:103B500003FDB069AD1C8088204484B201E04FF4BD
:103B60002077BC4208D22A78002A05D0B069808824
:103B7000011989B28142D7D2BDE8F0811C02002030
:103B8000F40200201C0300202DE9F041204E1546D0
:103B90000C4680466BB3012B38D18821084610F0C3
:103BA00011F91C236022414620460FF02BFEBDE890
:103BB000F04188216FF07F4010F004B9802A0BD2C9
:103BC0001448B061214640460FF0B0FCB0696D1C4E
:103BD0008088204484B20EE00F48B0612A46214616
:103BE00040460FF0B9FCB069AD1C8088204484B217
:103BF00001E04FF42077BC4208D22A78002A05D091
:103C0000B0698088011989B28142D7D2BDE8F081BC
:103C10001C020020FC0200201C0300202DE9F041C2
:103C2000204E15460C4680466BB3012B38D18821B7
:103C3000084610F0C7F814233222414620460FF000
:103C4000E1FDBDE8F04188216FF07F4010F0BAB887
:103C5000802A0BD21448B061214640460FF066FC22
:103C6000B0696D1C8088204484B20EE00F48B061BA
:103C70002A46214640460FF06FFCB069AD1C808893
:103C8000204484B201E04FF42077BC4208D22A7865
:103C9000002A05D0B0698088011989B28142D7D243
:103CA000BDE8F0811C020020DC0200201C03002083
:103CB00010B50121CC05204611F034FD2046BDE8A9
:103CC0001040002111F02EBD034A01460020526829
:103CD0000A4200D00120704700B0024030B52A4BA4
:103CE00000241968294A11401960196802681143B3
:103CF0001960596B21F007015963596B42681143F0
:103D00005963416841B301292DD0022930D00329DC
:103D1000C16832D00A010169446909022403856837
:103D2000214315430D43996B0D439D638169D9630D
:103D3000196C6FF30D011964196CC2691143196490
:103D4000818C5A6C02F040425A645A6C006A0243F9
:103D500042EA01425A6430BDC168047D0A02018A08
:103D600009042406DBE7C1680A02018A0904D6E7D0
:103D7000C1684A010169C902D1E74A010169446980
:103D80008902E403CBE7000000B00240FCE0FCFF46
:103D90000248016841F001010160704700B0024033
:103DA00014F06CBE074A904201D2074801E0054872
:103DB0001038064A8B0001EA020101D5C160704744
:103DC0008160704710640240006002407D0F7D0FEB
:103DD0000029016802D041F0010101E021F0010158
:103DE000016070472DE9F043016821F00101016095
:103DF0000021016041608160C16001612121416158
:103E00003C493C4A3D251039904202D18D60BDE8C5
:103E1000F083384A4FF474661832904201D18E60B4
:103E2000F5E7344A4FF474173032904201D18F6075
:103E3000EDE7304A4FF0746C4832904202D1C1F83D
:103E400008C0E4E72B4B2C4A6033984201D1CA608A
:103E5000DDE7284C294B7834A04201D1CB60D6E76E
:103E6000DFF89080264C08F19008404501D1CC60E5
:103E7000CDE7DFF880804FF03D5908F1A8084045B4
:103E800002D1C1F80C90C2E71E49DFF878800839EA
:103E9000404501D10D60BAE71A4D1835A84201D14D
:103EA0000E60B4E7174D3035A84201D10F60AEE780
:103EB000144D4835A84202D1C1F800C0A7E7114D02
:103EC00010496035091FA84201D10A609FE70D4AD9
:103ED0007832904201D10B6099E70A4A90329042C1
:103EE00001D10C6093E7074AA83290428FD1C1F804
:103EF00000908CE7106002403D000020400F002041
:103F000000003D20106402400029016802D041F009
:103F1000200101E021F02001016070470B0607D568
:103F2000436912B143F0800301E023F08003436151
:103F3000802908D0002A026801F01E0101D00A433E
:103F400000E08A430260704730B50368124ACC68CB
:103F500013400A682243D1E905452C432243CC692A
:103F600022430C6A22434C6A22438C6A22434C6BE4
:103F700022438C6B22431A430260426922F00703FA
:103F8000D1E90B2422431A4342610A6942604A681C
:103F900082608968C16030BD3F801CF00548807A2E
:103FA000052803D0062801D0082802D102A024F059
:103FB0000FB870473C0200202E0000002DE9F04FA2
:103FC000FB4CFC4D2146A07A91F80BC0A1B00D2806
:103FD0002ED2DFE810F0300044132D002D00DC0B52
:103FE000D60D81142D00A8112D002D002D000D00DF
:103FF00095F83300082802D0102802D004E01020E1
:1040000000E0082085F8330015F0DAF96FF07F4002
:104010000FF0EEFE88200FF0CFFE95F83320E6A1DA
:10402000684621F011FF6A46AA2132200FF0B8FA43
:1040300021B0BDE8F08FDE484FF4CD774FF48179A1
:10404000017BDC484FF4BF7A4FF4FD7B90F82D20C4
:1040500090F827301F93C37F1E93C37D1D93C37BAE
:104060001C9390F826301B93837F1A93837D1993BA
:10407000837B189390F825301793437F1693437DE5
:104080001593437B149390F824301393037F12937A
:10409000037D1193037B109390F823300F93C37E1D
:1040A0000E93C37C0D93C37A0C9390F822300B933C
:1040B000837E0A93837C0993837A089390F8213056
:1040C0000793437E0693437C0593437A049390F8C9
:1040D0002030039390F818E0037C007A4FF4A57623
:1040E000BCF1290FA4D2DFE81CF02900C5004B0168
:1040F0003302B9024E031D04B40447055606920666
:10410000D0060D074C078E07D007160858088308FD
:10411000AD08D7080409320960098E09B909D10927
:10412000E909010A1A0A340A4E0A680A810A9A0A37
:10413000B30ACC0AE60A010B1C0B370BA0480FF0A0
:1041400057FE88200FF038FE95F82900022812D07B
:10415000012812D0032812D0042812D0052812D02A
:10416000062812D0072812D0082812D0092812D009
:104170000B2812D016E093A210E094A20EE095A2B4
:104180000CE096A20AE097A208E098A206E099A2A5
:1041900004E09AA202E09BA200E09CA264212F20EE
:1041A0000FF0FEF995F82D0020B1012835D0022836
:1041B0004FD04AE0207B40B101280BD002280ED01E
:1041C000032811D0042814D01CE0287823F02EFDF9
:1041D00090A213E0287A23F029FD8FA20EE0287C1C
:1041E00023F024FD8DA209E0287E23F01FFD8CA280
:1041F00004E095F8200023F019FD8AA20A2164202A
:104200000FF004FA95F8300028B187A003F0DEF82B
:10421000012001F0BABA87A0F8E7207B10B101288D
:1042200005D020E0287823F001FD7AA203E0287E63
:1042300023F0FCFC7AA20A216420FFF759FA12E06D
:104240007CA000E078A003F0C1F8012005F03CF963
:10425000EEE6207B38B9287823F0E8FC6DA20A212D
:104260006420FFF77BFA0120E07295F83000002807
:10427000E8D1E5E74F4F02263F783AB1012A51D005
:10428000022AE2D100296DD001F0C3B841B1012961
:104290000BD002290DD0032910D0042913D0F3E745
:1042A000384623F08BFC5BA211E023F087FC5AA276
:1042B0000DE0184623F082FC58A208E0704623F077
:1042C0007DFC57A203E0039823F078FC55A20A2155
:1042D00064200FF09BF9207B40B101280BD002280D
:1042E0000ED0032811D0042814D0CDE7687823F02D
:1042F0009DFC53A213E0687A23F098FC51A20EE0D3
:10430000687C23F093FC50A209E0687E23F08EFCC9
:104310004EA204E095F8210023F088FC4CA20A216B
:10432000B420DEE011B101290DD0ADE7384623F00D
:1043300045FC38A20A216420FFF7DAF9687823F0F7
:1043400075FC3FA20BE0704623F038FC34A20A2132
:104350006420FFF7CDF9687E23F068FC3BA20A21B8
:104360008C20E1E0384623F029FC2AA20A216420AF
:10437000FFF7F4F9687823F059FC31A20A21FAE337
:104380000C480326407832B1012A10D0022A7FF46B
:1043900010AF51B178E749B1012960D0022964D04A
:1043A000032968D004296CD06EE7C0E052E09BE09E
:1043B0003C0200201403012025303364000000007B
:1043C00000FFFF0054432D4B0000000054432D54C8
:1043D0000000000054432D4A0000000054432D4EBD
:1043E0000000000054432D450000000054432D53AD
:1043F0000000000054432D520000000054432D42A1
:10440000000000005054313030000000317E35563D
:1044100000000000303031003030390030313700DA
:1044200030323500303333004368616E6E656C2086
:1044300073657400CDA8B5C0C9E8D6C300000000FC
:104440003030320030313000303138003032360018
:104450003033340023F0B2FBAFF21C0216E00498B4
:1044600023F0ACFBAFF2240210E0059823F0A6FB8A
:10447000AFF22C020AE0069823F0A0FBAFF2340260
:1044800004E0079823F09AFBAFF23C020A21B42023
:104490000FF0BCF8207B40B101280BD002280ED0D1
:1044A000032811D0042814D0EEE6A87823F0BEFB30
:1044B000FDA213E0A87A23F0B9FBFCA20EE0A87CD1
:1044C00023F0B4FBFAA209E0A87E23F0AFFBF9A227
:1044D00004E095F8220023F0A9FBF7A20A214FF48B
:1044E00082700FF093F8CFE611B101290DD0CBE621
:1044F00023F064FBAFF2B8020A218C20FFF7F8F832
:10450000A87823F093FBE8A20CE0069823F056FB72
:10451000AFF2C8020A218C20FFF7EAF8A87E23F048
:1045200085FBE4A20A21B420FFF7E2F8ACE623F011
:1045300045FBAFF2F4020A218C20FFF70FF9A878AF
:1045400023F074FBD8A20A21F4E3FFF707F99BE6F6
:10455000DA480426807832B1012A53D0022A7FF447
:1045600028AE89B390E641B101290AD002290DD0C5
:10457000032910D0042913D086E623F01FFBCAA21A
:1045800012E0089823F01AFBC8A20DE0099823F066
:1045900015FBC7A208E00A9823F010FBC5A203E0B0
:1045A0000B9823F00BFBC4A20A214FF482700FF08A
:1045B0002DF8207B48B101280CD002280FD0032809
:1045C00012D0042815D05FE63BE0E87823F02EFBFC
:1045D000BBA213E0E87A23F029FBBAA20EE0E87C44
:1045E00023F024FBB8A209E0E87E23F01FFBB7A26A
:1045F00004E095F8230023F019FBB5A20A214FF43B
:10460000AA706EE711B101290CD03DE623F0D6FA6D
:10461000A5A20A21B420FFF76BF8E87823F006FB87
:10462000A7A20BE00A9823F0C9FAA2A20A21B4209B
:10463000FFF75EF8E87E23F0F9FAA4A20A21DC2055
:1046400072E723F0BBFA98A20A21B420FFF786F89C
:10465000E87823F0EBFA9AA20A21F2E39748C078AF
:1046600032B1012A59D0022A7FF4F2ADF1B375E0DC
:1046700041B101290AD002290DD0032910D0042903
:1046800013D01BE023F09AFA8DA212E00C9823F0CD
:1046900095FA8CA20DE00D9823F090FA8AA208E01A
:1046A0000E9823F08BFA89A203E00F9823F086FA84
:1046B00087A20A214FF4AA700EF0A8FF00200FF085
:1046C00097FB84480FF078FB95F8290002286FD0FB
:1046D00001286ED003286DD004286CD005286BD03B
:1046E00006286AD0072869D0082800E03AE06FD091
:1046F00009286ED00B286DD003E064212F200EF026
:104700004FFF95F8300008B173A000E077A002F0E9
:104710005DFE07F041FC0020A4E211B101290CD09C
:104720001CE023F04BFA66A20A21DC20FEF7E0FF32
:10473000287923F07BFA71A20BE00E9823F03EFA61
:1047400062A20A21DC20FEF7D3FF287F23F06EFA55
:104750006BA20A214FF48270FEF7CAFF012004F019
:10476000B3FE67E223F02AFA55A20A21DC20FEF705
:10477000F5FF287923F05AFA60A20A214FF48270DB
:10478000FEF7ECFFEAE74D480627007932B1012A2F
:104790005BD0022A7FF40DADD1B303E379B10129D7
:1047A00011D0022917D003291AD004291DD0F9E20B
:1047B00065E267E269E26BE26DE26FE271E223F0CB
:1047C000FDF94EA215E0109823F0F8F94DA210E083
:1047D0006AE26CE26EE2119823F0F0F94AA208E076
:1047E000129823F0EBF946A203E0139823F0E6F9C0
:1047F00046A2314664200EF009FF207B48B1012813
:104800000CD002280FD0032812D0042815D0C9E2FA
:104810003BE0687923F00AFA3DA213E0687B23F0BD
:1048200005FA3CA20EE0687D23F000FA3AA209E006
:10483000687F23F0FBF939A204E095F8250023F006
:10484000F5F937A23146B420C9E011B101290DD0E4
:10485000A8E223F0B3F929A20A214FF48270FEF7EF
:1048600047FF687923F0E2F929A20CE0129823F0BF
:10487000A5F923A20A214FF48270FEF739FF687F61
:1048800023F0D4F925A20A21A7E323F097F91BA26C
:104890000A214FF48270FEF761FF687923F0C6F9B0
:1048A0001BA20A21ACE3000030303300303131006C
:1048B00030313900303237003033350014030120F5
:1048C0003030340030313200303230003032380095
:1048D0003033360000FFFF00546865726D6F636F00
:1048E00075706C65206D6F64656C0000C8C8B5E7B5
:1048F000C5BCD0CDBAC5D1A1D4F10000303035004F
:10490000303239003031330030323100303337004B
:104910003030360030313400303232003033300045
:1049200030333800F7480727407932B1012A59D08F
:10493000022A7FF43EACA9B3F7E341B101290BD0C1
:1049400002290FD0032913D0042917D0EDE323F057
:1049500035F9AFF2440216E0149823F02FF9AFF2C4
:104960004C0210E0159823F029F9AFF254020AE046
:10497000169823F023F9AFF25C0204E0179823F0B5
:104980001DF9AFF264023146B4200EF03FFE207BE9
:1049900048B101280CD002280FD0032812D00428D7
:1049A00015D0C2E343E0A87923F040F9D6A213E082
:1049B000A87B23F03BF9D5A20EE0A87D23F036F9C1
:1049C000D3A209E0A87F23F031F9D2A204E095F840
:1049D000260023F02BF9D0A231464FF482700EF05E
:1049E00015FEA2E311B101290ED09EE323F0E6F8F3
:1049F000AFF2E4020A214FF49670FEF779FEA8792F
:104A000023F014F9C0A20DE0169823F0D7F8AFF206
:104A1000F4020A214FF49670FEF76AFEA87F23F095
:104A200005F9BCA20A211AE3FEF762FE7DE323F03A
:104A3000C5F8AFF224120A214FF49670FEF78EFEED
:104A4000A87923F0F3F8B0A20A211BE3FEF786FE53
:104A50006BE3AC48807932B1012A55D0022A7FF449
:104A6000F4AB89B385E041B101290AD002290DD008
:104A7000032910D0042913D07BE023F09FF8A2A2D1
:104A800012E0189823F09AF8A0A20DE0199823F0EC
:104A900095F89FA208E01A9823F090F89DA203E0F1
:104AA0001B9823F08BF89CA231464FF482700EF0D5
:104AB000ADFD207B48B101280CD002280FD003287F
:104AC00012D0042815D054E042E0E87923F0AEF883
:104AD00092A213E0E87B23F0A9F891A20EE0E87D12
:104AE00023F0A4F88FA209E0E87F23F09FF88EA2BC
:104AF00004E095F8270023F099F88CA231464FF492
:104B0000AA700EF083FD34E011B101290DD030E020
:104B100023F054F87CA20A214FF4AA70FEF7E8FDB6
:104B2000E87923F083F87DA20CE01A9823F046F888
:104B300078A20A214FF4AA70FEF7DAFDE87F23F08D
:104B400075F879A20A214FF4BE70FEF7D1FD10E08E
:104B500023F034F86CA20A214FF4AA70FEF7FEFD90
:104B6000E87923F063F86DA20A214FF4BE70FEF7D6
:104B7000F5FD0820CEE238E36248C07932B1012A5F
:104B80005AD0022A7FF454AA89B3FEE041B1012928
:104B90000AD002290DD0032910D0042913D049E0EE
:104BA00023F00CF85DA212E01C9823F007F85CA239
:104BB0000DE01D9823F002F85AA208E01E9822F09A
:104BC000FDFF59A203E01F9822F0F8FF57A23146DB
:104BD0004FF4AA700EF01AFD207B48B101280DD0C9
:104BE000022811D0032815D0042819D022E064E04F
:104BF000287923F01BF8AFF2FC2217E0287B23F082
:104C000015F8AFF2003211E0287D23F00FF8AFF273
:104C100008320BE0287F23F009F8AFF21C3205E0E0
:104C200095F8240023F002F8AFF2203231466420D8
:104C30000EF0ECFC052015E0C1B10129A2D11E98AF
:104C400022F0BCFF38A20A214FF4BE70FEF750FDDF
:104C5000287E22F0EBFFAFF638020A216420FEF72F
:104C600047FD0120E07221B0BDE8F08F22F0A6FFE1
:104C70002AA20A214FF4BE70FEF73AFD1EE5AFF6F8
:104C8000BC023AE5AFF6BC0237E5AFF6B80234E550
:104C9000AFF6B80231E5AFF6B4022EE5AFF6B402D6
:104CA0002BE5AFF6B00228E5AFF6B00225E5AFF68A
:104CB000AC0222E5AFF6AC021FE522F07FFF17A29F
:104CC0000A214FF4BE70FEF749FD00200FF090F866
:104CD00017480FF071F895F8290002282BD0012809
:104CE0002CD003282DD004282ED005282FD006281C
:104CF00030D0072831D0082832D0092833D00B28EB
:104D000034D039E014030120303037003031350021
:104D10003032330030333100303339003030380036
:104D2000303136003032340030333200303430002D
:104D300000FFFF0084E2AFF6741219E0AFF67412C0
:104D400016E0AFF6701213E0AFF6701210E0AFF697
:104D50006C120DE0AFF66C120AE0AFF6681207E0D5
:104D6000AFF6681204E0AFF6641201E0AFF6641229
:104D700064212F200EF014FC95F8300040B1AFF202
:104D8000A84002F023FB0020E07207F005F96AE773
:104D9000AFF2A840F5E70A27012A04D0022A7FF4DF
:104DA00054AA21B3C1E111B101290ED0BDE122F015
:104DB00005FFAFF69C1231466420FEF799FC687A35
:104DC00022F034FFAFF684120EE0039822F0F6FED4
:104DD000AFF6B01231466420FEF78AFC95F8210048
:104DE00022F024FFAFF6981231468C201CE622F008
:104DF000E5FEAFF6DC1286216420FEF7AFFC687A90
:104E000022F014FFAFF6C41286218C201EE60B2779
:104E1000012A03D0022AC2D131B386E111B101299E
:104E200010D082E1049822F0C9FEAFF6E8123146B4
:104E30008C20FEF75DFCA87A22F0F8FEAFF29452C7
:104E40000FE027E2079822F0B9FEAFF6FC123146D8
:104E50008C20FEF74DFC95F8220022F0E7FEAFF221
:104E6000A8523146B420DFE5049822F0A7FEAFF641
:104E70002C2286218C20FEF771FCA87A22F0D6FE27
:104E8000AFF2D8528621B420E0E50C27012A03D0E6
:104E9000022A84D129B348E111B101290FD044E19C
:104EA000089822F08BFEAFF2FC523146B420FEF798
:104EB0001FFCE87A22F0BAFEAFF2F8520EE00B982F
:104EC00022F07CFEAFF210623146B420FEF710FCF7
:104ED00095F8220022F0AAFEAFF20C623146DC20E7
:104EE000A2E5089822F06AFEAFF240628621B42063
:104EF000FEF734FCE87A22F099FEAFF238628621A0
:104F0000DC20A3E50D27012A03D0022AC1D131B349
:104F10000BE111B101290FD007E10C9822F04EFEF0
:104F2000AFF260623146DC20FEF7E2FB287B22F024
:104F30007DFEAFF230620EE00F9822F03FFEAFF23E
:104F400070623146DC20FEF7D3FB95F8240022F096
:104F50006DFEAFF2486231464FF4827064E50C9802
:104F600022F02CFEAFF2A4628621DC20FEF7F6FBD5
:104F7000287B22F05BFEAFF2746286214FF48270D0
:104F800064E50E27012A03D0022ABFD141B3CCE049
:104F900011B1012910D0C8E0109822F00FFEAFF235
:104FA0009C6231464FF48270FEF7A2FB687B22F0D0
:104FB0003DFEAFF2A0620FE0139822F0FFFDAFF2CA
:104FC000B46231464FF48270FEF792FB95F82500EB
:104FD00022F02CFEAFF2B86231464FF4967023E512
:104FE000109822F0EBFDAFF2E46286214FF482705C
:104FF000FEF7B4FB687B22F019FEAFF2E86286216F
:105000004FF4967022E50F27012A03D0022ABCD163
:1050100041B38AE011B1012910D086E0149822F042
:10502000CDFDAFF2107231464FF49670FEF760FB83
:10503000A87B22F0FBFDAFF22C320FE0179822F094
:10504000BDFDAFF2247231464FF49670FEF750FB6F
:1050500095F8260022F0EAFDAFF2443231464FF4D3
:10506000AA70E1E4149822F0A9FDAFF258728621EB
:105070004FF49670FEF772FBA87B22F0D7FDAFF2DB
:10508000743286214FF4AA70E0E4012A03D0022A88
:10509000BDD151B33DE011B1012910D039E01898CC
:1050A00022F08CFDAFF29C3231464FF4AA70FEF72D
:1050B0001FFBA87B22F0BAFDAFF29C320FE01B98D9
:1050C00022F07CFDAFF2B03231464FF4AA70FEF709
:1050D0000FFB95F8270022F0A9FDAFF2B032314660
:1050E0004FF4BE70FEF704FB13E0189822F066FD43
:1050F000AFF2E83286214FF4AA70FEF72FFBE87B6F
:1051000022F094FDAFF2E83286214FF4BE70FEF734
:1051100025FB102039E30927012A03D0022AB7D141
:1051200049B302E021B1012912D0E772FFF78DB82F
:105130001C9822F043FDAFF2184231464FF4BE7086
:10514000FEF7D6FA287A22F071FDAFF634520FE05E
:105150001F9822F033FDAFF22C4231464FF4BE705F
:10516000FEF7C6FA95F8200022F060FDAFF64C522B
:105170003146642058E41C9822F020FDAFF26042D2
:1051800086214FF4BE70FEF7E9FA287A22F04EFD30
:10519000AFF67C528621642058E41226012A03D0FF
:1051A000022AC3D189B134E1184622F007FDAFF6D7
:1051B000945239466420FEF79BFA687C22F036FD53
:1051C000AFF67C523946FFF7CBB8184622F0F6FC12
:1051D000AFF6B8524F4649466420FEF7BFFA687CE6
:1051E00022F024FDAFF6A05239468C20FFF7ADB96E
:1051F0001326012A03D0022A98D189B109E1059822
:1052000022F0DCFCAFF6C05239468C20FEF770FA73
:10521000A87C22F00BFDAFF668123946FFF783B980
:10522000059822F0CBFCAFF6E0524F4649468C2061
:10523000FEF794FAA87C22F0F9FCAFF68C123946FE
:10524000B420D3E71426012A03D0022AA9D189B1B8
:10525000DFE0099822F0B2FCAFF6AC123946B42078
:10526000FEF746FAE87C22F0E1FCAFF6A4123946DC
:10527000FFF7E5B9099822F0A1FCAFF6CC124F4632
:105280004946B420FEF76AFAE87C22F0CFFCAFF67C
:10529000C8123946DC20A9E71526012A03D0022AC4
:1052A000AAD199B1B5E00D9822F088FCAFF6E812CA
:1052B0003946DC20FEF71CFA287D22F0B7FCAFF659
:1052C000B81239464FF48270FFF72EB90D9822F0CC
:1052D00075FCAFF60C224F464946DC20FEF73EFA3D
:1052E000287D22F0A3FCAFF6E01239464FF482701D
:1052F0007CE71626012A03D0022AA7D199B188E0BB
:10530000119822F05BFCAFF6002239464FF4827010
:10531000FEF7EEF9687D22F089FCAFF604223946EB
:105320004FF49670D0E7119822F048FCAFF628228F
:105330004F4649464FF48270FEF710FA687D22F01E
:1053400075FCAFF62C2239464FF496704EE71726BF
:10535000012A03D0022AA3D199B15AE0159822F06C
:105360002DFCAFF64C2239464FF49670FEF7C0F98B
:10537000A87D22F05BFCAFF2686239464FF4AA7058
:10538000A2E7159822F01AFCAFF674224F46494660
:105390004FF49670FEF7E2F9A87D22F047FCAFF2D9
:1053A000906239464FF4AA7020E71826012A03D0EC
:1053B000022AA2D199B12CE0199822F0FFFBAFF29A
:1053C000B06239464FF4AA70FEF792F9E87D22F0F8
:1053D0002DFCAFF2B06239464FF4BE7074E71998F5
:1053E00022F0ECFBAFF2D8624F4649464FF4AA7068
:1053F000FEF7B4F9E87D22F019FCAFF2D862394625
:105400004FF4BE70F2E61126012A04D0022AA2D17E
:1054100091B1E6728AE61D9822F0D0FBAFF2FC62F1
:1054200039464FF4BE70FEF763F9287C22F0FEFB8C
:10543000F84A3946642047E71D9822F0BFFBAFF2D7
:105440001C724F4649464FF4BE70FEF787F9287C20
:1054500022F0ECFBEF4A39466420C7E6022AD9D194
:1054600091B9704622F0AAFBEA4A5646121D5146EF
:105470006420FEF773F9687E22F0D8FBE54A3146D6
:1054800030328C20FEF76AF91A207EE1022AC1D15F
:1054900091B9069822F092FBDE4A564630325146C8
:1054A0008C20FEF75BF9A87E22F0C0FBAFF6FC3241
:1054B0003146B420FEF752F91B2066E1022AA9D139
:1054C00091B90A9822F07AFBAFF618425646514637
:1054D000B420FEF743F9E87E22F0A8FBAFF61442B1
:1054E0003146DC20FEF73AF91C204EE1022A91D128
:1054F00099B90E9822F062FBAFF6304256465146FB
:10550000DC20FEF72BF9287F22F090FBAFF610424B
:1055100031464FF48270FEF721F91D2035E1022A51
:105520009DD1A1B9129822F049FBAFF62C42564604
:1055300051464FF48270FEF711F9687F22F076FB36
:10554000AFF6284231464FF49670FEF707F91E2059
:105550001BE1022A9BD1A1B9169822F02FFBAFF6CE
:105560004442564651464FF49670FEF7F7F8A87F2E
:1055700022F05CFBAFF6640231464FF4AA70FEF7EE
:10558000EDF81F2001E1022A99D1A1B91A9822F061
:1055900015FBAFF68002564651464FF4AA70FEF74F
:1055A000DDF8E87F22F042FBAFF6840231464FF48B
:1055B000BE70FEF7D3F82020E7E0022A97D199B910
:1055C0001E9822F0FBFAAFF6A002564651464FF461
:1055D000BE70FEF7C3F8287E22F028FB8D4A3146C4
:1055E000121D6420FEF7BAF81920CEE0022A97D1E6
:1055F00099B9039822F0E2FA864A5E460832594683
:105600006420FEF7ABF895F8210022F00FFB814AE9
:10561000314634328C20FEF7A1F82220B5E0022A70
:1056200098D199B9079822F0C9FA7A4A5E4634327D
:1056300059468C20FEF792F895F8220022F0F6FAEF
:10564000AFF68C523146B420FEF788F823209CE058
:10565000022A99D199B90B9822F0B0FAAFF6A85264
:105660005E465946B420FEF779F895F8230022F0FB
:10567000DDFAAFF6A4523146DC20FEF76FF82420A5
:1056800083E0022A9AD1A1B90F9822F097FAAFF6D7
:10569000C0525E465946DC20FEF760F895F82400BB
:1056A00022F0C4FAAFF69C5231464FF48270FEF7F6
:1056B00055F8252069E0022A99D1A9B9139822F05A
:1056C0007DFAAFF6B8525E4659464FF48270FEF747
:1056D00045F895F8250022F0A9FAAFF6BC523146FC
:1056E0004FF49670FEF73AF826204EE0022A97D142
:1056F000A9B9179822F062FAAFF6DC525E46594615
:105700004FF49670FEF72AF895F8260022F08EFAEC
:10571000AFF6FC1231464FF4AA70FEF71FF82720AF
:1057200033E0022A95D1A9B91B9822F047FAAFF6C7
:1057300018225E4659464FF4AA70FEF70FF895F806
:10574000270022F073FAAFF61C2231464FF4BE70E8
:10575000FEF704F8282018E0022A93D1A1B91F9877
:1057600022F02CFAAFF63C225E4659464FF4BE704A
:10577000FDF7F4FF95F8200022F058FA254A31464B
:1057800008326420FDF7EAFF2120E072CEE44FF4F6
:10579000FA76BCF1320F74D016DCBCF12C0F4BD072
:1057A000BCF12D0F6ED0BCF12E0F6CD0BCF1310FBF
:1057B0007FF459AA22F024FA95F82E0048B3012864
:1057C00070D002286FD07BE1BCF15F0F6CD0BCF1D0
:1057D000610F6AD0BCF1620FEAD122F011FA95F89C
:1057E0003B3095F83A200CA16846303520F02CFB70
:1057F0006A469621F8200DF0D3FE0A48008827F06B
:1058000073FD2878E0B308A001F0E0FD3320FFF736
:1058100029BA3FE11C44000825302E32643A253075
:105820002E3264009C0100205265636F726420690F
:105830006E74657276616C0022F0E2F995F82C00C6
:10584000002895F830001FD018B3F7A29621322017
:105850000DF0A6FE22F0FAF995F82A00002895F836
:10586000300018D0E0B1F0A296215A200DF098FE39
:1058700095F83000D0B1EDA001F0A8FD2D20C6E7CD
:1058800006E144E114E05EE008B1ECA2DEE7ECA240
:10589000DCE7EDA2DAE708B1E8A2E5E7E8A2E3E792
:1058A000E9A2E1E7FDE003E197E0C7E0E8A0E3E774
:1058B00022F0A6F995F82A00002895F8300026D0A5
:1058C00050B3D9A296215A200DF06AFEE348014652
:1058D0000EF078FA1F2318227F2196200DF092FFF8
:1058E00095F82B00052819D004284FF000001FD090
:1058F0000EF07EFADAA29B217F200DF051FE95F882
:105900003000F0B1D7A001F061FD2E207FE708B193
:10591000CAA2D7E7CAA2D5E7CBA2D3E700200EF0F0
:1059200067FAD6A296217F20FDF718FFD4A2E2E7FE
:105930000EF05EFAD1A296217F20FDF70FFFBEA2E6
:10594000D9E7D0A0DFE7882108460EF03BFA1F23F5
:1059500018227F2196200DF055FF95F82B00052881
:105960001FD00428BD4826D00EF042FABCA29B21CD
:105970007F200DF015FE22F069F995F83600002819
:1059800095F8300020D020B3A7A29621AA200DF0D0
:1059900007FE95F83000F0B1BEA001F017FD5F20C2
:1059A00035E7AE480EF024FAB4A296217F20FDF729
:1059B000D5FEB3A2DBE70EF01BFAB0A296217F2042
:1059C000FDF7CCFE9CA2D2E708B19CA2DDE79CA229
:1059D000DBE79DA2D9E7B2A0DFE722F011F995F845
:1059E0003600002895F830001FD018B38EA29621FB
:1059F000AA200DF0D5FD22F029F995F8393095F857
:105A00003820AFF2EC116846303520F01DFA6A46B6
:105A10009621D0200DF0C4FD287868B1A3A001F034
:105A2000D5FC012060706120F1E608B183A2DEE7B9
:105A300083A2DCE784A2DAE79EA0F0E722F0E0F898
:105A400095F8393095F83820AFF234216846303572
:105A500020F0FAF96A469621D0200DF0A1FD22F03F
:105A6000F5F8EB7AAA7AAFF25021684620F0ECF90B
:105A70006A469621F8200DF093FD287830B191A068
:105A800001F0A4FC012060706220C0E68EA0F7E760
:105A900091A0B9E695F8300008B193A20CE094A269
:105AA0000AE095F8300008B193A205E093A203E064
:105AB00095F8300090B193A2314632200DF070FD80
:105AC00022F0C4F895F82F0050B101280AD002281E
:105AD0000AD003280AD004280AD00EE08BA2EBE7F4
