:020000040800F2
:1000000070650220C1010008EF540108B5260108FF
:10001000ED540108ED1200084349020800000000F9
:10002000000000000000000000000000DD92010858
:100030006969000800000000D155010875960108A3
:10004000DB010008DB010008DB010008DB01000820
:10005000DB010008DB010008DB010008DB01000810
:10006000DB010008DB010008DB010008DB01000800
:10007000DB010008DB010008DB010008DB010008F0
:10008000DB010008DB010008DB010008DB010008E0
:10009000DB010008DB010008DB010008DB010008D0
:1000A000DB010008DB010008DB010008DB010008C0
:1000B000DB010008DB010008DB010008DB010008B0
:1000C000DB010008DB010008DB010008DB010008A0
:1000D000DB010008E9300208DB010008DB01000851
:1000E000DB010008DB010008DB010008DB01000880
:1000F000DB010008DB010008DB010008DB01000870
:10010000DB0100080D7C0108DB010008DB010008B1
:10011000DB010008DB0100080D970108DB01000886
:10012000DB010008DB010008DB010008BD3D000821
:10013000DB010008DB010008DB010008DB0100082F
:10014000DB010008DB010008DB0100089555010810
:10015000DB010008DB010008DB010008DB0100080F
:10016000DB010008DB010008AD550108A1550108BD
:10017000DB010008B9550108DB010008DB010008BC
:10018000DB010008DB010008DB010008DB010008DF
:10019000DB010008DB010008DB010008DB010008CF
:1001A000DB010008DB010008DB010008DFF80CD0F0
:1001B00000F08AFC00480047757D02087065022047
:1001C0000648804706480047FEE7FEE7FEE7FEE7F1
:1001D000FEE7FEE7FEE7FEE7FEE7FEE7B196010871
:1001E000AD0100082DE9F05F0546002092469B46D0
:1001F00088460646814640241BE02846414647463D
:10020000224600F0BAFA53465A46C01A914110D31A
:1002100011461846224600F0A1FA2D1A67EB010894
:100220004F4622460120002100F098FA17EB000902
:100230004E41201EA4F10104DFDC484631462A4627
:100240004346BDE8F09F40EA01039B0703D009E065
:1002500008C9121F08C0042AFAD203E011F8013BB2
:1002600000F8013B521EF9D27047D2B201E000F80B
:10027000012B491EFBD270470022F6E710B513464A
:100280000A4604461946FFF7F0FF204610BD421EFD
:1002900012F8013F002BFBD111F8013B02F8013BA2
:1002A000002BF9D1704710B5044604E00B7800F834
:1002B000013B03B1491C521EF8D2204610BD421C1E
:1002C00010F8011B0029FBD1801A704710B50022DD
:1002D00000E0521C835C8C5CA34201D1002BF8D15E
:1002E000D8B2E1B2401A10BD034611F8012B00F854
:1002F000012B002AF9D11846704770B5064625F043
:10030000E5F9046805460A220021304600F0A6FA05
:100310002C6070BD2DE9FE4F804681EA0300C00FBE
:100320000C46009021F0004123F00045B8EB02009C
:10033000A94105D24046214690461C460B4602463E
:1003400023F00040104347D0270DC7F30A00C3F342
:100350000A510290401A019040286BDAC3F313004F
:1003600040F4801B0098924620B10023D2EB030A90
:1003700063EB0B0B01985946C0F14002504600F068
:10038000EDF906460D4650465946019A00F005FA29
:1003900010EB08006141002487EA115284EAE773F8
:1003A0001A4340D0009A62B3019A012A4FEA0752D9
:1003B00015DC001B61EB02014FF0004202EA07521C
:1003C000CDE90042001C41F5801132462B4600F079
:1003D000C3FA03B0BDE8F08F40462146F9E7001BA1
:1003E00061EB0201001C41F5801300185B412018ED
:1003F000A2F5001747EB030140EAD570B6196D412D
:1004000011E06D084FEA360645EAC0754FEA07521B
:10041000001B61EB0201001C41F5801149084FEA05
:1004200030000019514132462B4603B0BDE8F04F71
:1004300000F083BA0098012240000023D0EB0202B2
:1004400063EBE073009821464FEAE074B8EB0000DC
:1004500061EB0401E9E783F000435BE781F00041D1
:1004600058E72DE9FE4F81EA030404F0004421F02F
:10047000004100944FF0000B23F0004350EA0104C8
:100480005ED052EA03045BD0C3F30A54C1F30A55A9
:100490002C44A4F2F3340194A0FB0254C1F31301E1
:1004A00041F48011C3F3130343F4801301FB0244AE
:1004B00000FB034E840A970A44EA815447EA8357B3
:1004C000A4FB076802958D0A05FB07854FEA932C6C
:1004D00004FB0C542705029D4FEA065847EA1637DD
:1004E000B5EB08056EEB070C870E920E47EA8117F5
:1004F00042EA8312A7FB0201B6EB0B0164EB000496
:100500002B0D43EA0C335E1844EB1C50DA4651467F
:10051000E7FB0201C5F313044FEA0B3343EA14531C
:100520004FEA0432019C43EA0603A4F10C0402944E
:10053000009CCDE900B400F00FFA03B0BDE8F08FE5
:1005400000200146F9E72DE9F04D81EA030404F0AB
:10055000004B21F0004514464FF0000A23F0004103
:1005600050EA050220D054EA01021DD0C5F30A5713
:100570000246C5F31303C1F31300C1F30A5640F456
:10058000801543F48013A7EB0608101BD64608F22B
:10059000FD3873EB050002D308F1010801E0921861
:1005A0005B41B8F1000F03DA00200146BDE8F08D91
:1005B00000204FF48011064684460EE0171B73EBB3
:1005C000050705D3121B63EB050306434CEA010C38
:1005D00049084FEA300092185B4150EA0107EDD11B
:1005E00052EA030012D082EA040083EA05010843BC
:1005F00005D0101BAB4106D20122002306E00022E9
:100600004FF0004302E06FF0010253101AEB0600B6
:100610004CEB085110EB0A0041EB0B01BDE8F04D2B
:1006200000F08BB90EB540F2334102910021CDE9C3
:1006300000110A460B4600F08FF903B000BDC1F36C
:100640000A5210B5C1F3130140F2FF3341F4801197
:100650009A4201DA002010BD40F233439A42A2F2DE
:10066000334203DC524200F088F810BD904010BDC8
:1006700000F0004230F000400AD0C10D01F5607179
:10068000C0F3160042EA0151C20840071143704707
:10069000002001467047000030B5041E71F10004CF
:1006A00004DB4FF00044404264EB0101141E73F17F
:1006B000000405DB1C464FF00043524263EB040389
:1006C0008B4208BF824230BD30B5041E71F1000478
:1006D00004DB4FF00044404264EB0101141E73F14F
:1006E000000405DB1C464FF00043524263EB040359
:1006F000994208BF904230BD01F0004330B421F070
:10070000004150EA010206D00A0DA2F56072C1F361
:100710001301002A02DC30BC00207047440F44EA79
:10072000C104C100E01830BC00EBC25000F0CEB8EC
:1007300030B50B46014600202022012409E021FAB1
:1007400002F59D4205D303FA02F5491B04FA02F5AE
:100750002844151EA2F10102F1DC30BD202A04DB81
:10076000203A00FA02F1002070479140C2F12003C4
:1007700020FA03F3194390407047202A04DB203A03
:1007800021FA02F00021704721FA02F3D040C2F1B1
:1007900020029140084319467047202A06DBCB17F8
:1007A000203A41FA02F043EAE07306E041FA02F32C
:1007B000D040C2F120029140084319467047000022
:1007C0000FB4002300B589B00CA900910B996FF00C
:1007D0000042CB601E4B06931E4B07930423CDE9CA
:1007E00001321D4A089202466B46002000F020FAB2
:1007F00009B05DF814FB70B586B006464FF0FF30C7
:100800000091CDE90101002015460C4604903246C6
:10081000694604A8FFF7D4FF02460498211825B1C1
:1008200008B1084600E020462860049800280DD052
:10083000002A02DD0098884208D0081B0094CDE908
:1008400001043246694604A8FFF7BAFF06B070BD3E
:10085000690E0008870E0008F50A00082DE9F04728
:1008600091460F4680460446002614F8015B2DB1E0
:1008700000F03CF90068405DC007F6D12B2D02D096
:100880002D2D18D0641E4A463946204600F00CFB38
:1008900027B13968A14201D1C7F8008071054FF036
:1008A00002040BD54042002803DD24F00FFF046052
:1008B000A007BDE8F08746F48066E4E70028F8DA90
:1008C00024F004FF04606FF00040F2E70029A8BFA5
:1008D0007047401C490008BF20F00100704710B469
:1008E000B0FA80FC00FA0CF050EA010404BF10BC1E
:1008F000704749B1CCF1200421FA04F411FA0CF14B
:1009000018BF012121430843A3EB0C01CB1D4FEA83
:1009100000614FEA102042BF002010BC704700EB7E
:10092000C35010440029A4BF10BC7047401C4900AC
:1009300008BF20F0010010BC704710B5141E73F101
:10094000000408DA401C41F1000192185B411A438F
:1009500001D120F0010010BD2DE9F04D92469B46DB
:1009600011B1B1FA81F202E0B0FA80F22032904681
:10097000FFF7F4FE04460F4640EA0A0041EA0B0185
:1009800053465A46084313D0114653EA010019D082
:10099000C8F140025046FFF7F0FE05460E465046AD
:1009A00059464246FFF7DAFE084305D0012004E02D
:1009B00020463946BDE8F08D0020054346EAE07642
:1009C0002C4337430A986305E40AA0EB0800002291
:1009D000FD0A44EA47540A3002D500200146E9E7FF
:1009E000010510196941DDE9084500196941BDE8B3
:1009F000F04DA2E72DE9F04D00231A461B1A8A415B
:100A000003DB00200146BDE8F08DC1F30A52C1F3BB
:100A1000130141F480154FF0000BD10702D10018EB
:100A20006D41521E0027044640F2FF11384601EB8B
:100A3000620A3E468046024600204FF48011FFF7CE
:100A40009CFEC2197141BB1846EB0100B4EB030CCC
:100A500075EB000C04D3E41A65EB000517460E464F
:100A6000241908F101006D4180463428E3DDF919AD
:100A700046EB0600091BA84103D24FF0FF32134694
:100A800001E0002213461BEB070046EB0A51BDE8CC
:100A9000F04DFFF752BFC1F30A52C1F3130140F208
:100AA000FF3341F480119A4202DA00200146704778
:100AB00040F233439A42A2F2334202DC5242FFF741
:100AC0005CBEFFF74BBE0000064C074D06E0E06839
:100AD00040F0010394E8070098471034AC42F6D385
:100AE000FFF768FB8C220708AC2207080048704714
:100AF0001422070810B50446FFF7F8FF0068005DF0
:100B000000F0010010BD00002DE9FF4F087883B010
:100B10009946FF2805D0491C2D2804D00024002028
:100B200008E000200BE00124F9E700EB800003EB74
:100B30004000491C0B78FF2BF7D104B14042002341
:100B40000293147819461D462D2C01D02B2C04D16C
:100B5000521C2D2C13D000240294AA461478FF2C8A
:100B60000FD00A25A3FB057801FB05814FF0000C8F
:100B700003FB0C11521CE3194AEB0101EEE70124BF
:100B8000EAE7814453EA010002D019F5C87F06DA8A
:100B900003980021C0E9001107B0BDE8F08F0025DF
:100BA000AE4E2F46DFF8B882184600F0DAF9CDE9EC
:100BB0000001B9F1000002DAC9F1000400E00446C6
:100BC0000023A74A1AEB030B42EB045A12E0E0079A
:100BD00007D02A46334638464146FFF742FC0746CF
:100BE00088462A46334610461946FFF73AFC054622
:100BF0000E466410002CEAD1DDE90001B9F1000FC6
:100C00005A46534606DAFFF79EFC3A464346FFF73C
:100C10009AFC05E0FFF725FC3A464346FFF721FC26
:100C2000029A0AB181F00041039AC2E90001B3E7D8
:100C30002DE9FF4F1F468DB0D7E901464FF0FF3831
:100C40002E2045464FF000090B90B9696D1C0E9897
:100C50008847396A824688470028F6D1BAF1FF3FB3
:100C60000AD024F4D064002E11DDBAF12B0F08D085
:100C7000BAF12D0F0BD102E0404611B08DE744F4DC
:100C80008064B9696D1C0E9888478246761E694655
:100C9000600501D52D2000E02B208DF8000001F12A
:100CA000010B0DF1200809E0B9696D1C0E98884709
:100CB00082460F9844F40074761E0560002E02DD13
:100CC000BAF1300FF0D00B998A453ED144F0800440
:100CD00006E00F99681CA9F1010944F4007408604A
:100CE000B9696D1C761E0E98884782463028F0D070
:100CF0002BE00B998A4505D1200603D444F08004EB
:100D0000761E18E0504624F01FFE08B30DF11301C3
:100D1000761E44F400748B4508D2AAF130000BF81B
:100D2000010B200607D5A9F1010003E0200602D43B
:100D300009F101008146A00502D50F99681C0860E1
:100D4000B9696D1C0E9888478246002ED1DC53E0AD
:100D5000002E51DDBAF1650F02D0BAF1450F4BD12B
:100D6000A00549D5B9696D1C24F44074761E0E980F
:100D700088478246002E0CDD2B2804D0BAF12D0FB7
:100D800007D144F48074B9696D1C0E988847824677
:100D9000761EE00501D52D2100E02B2108F8011B6E
:100DA000CDF82C8021E00DF12901761E44F4007469
:100DB00088450CD2AAF1300010F0FF0088F800003E
:100DC00002D10B99884509D908F1010806E0E00530
:100DD00001D5244801E042F20F708146B9696D1CCB
:100DE0000E98884782460F980560002E04DD504615
:100DF00024F0AAFD0028D6D1F9690E988847FF2073
:100E00008BF8000088F800000020069007904B4601
:100E10006A4608A906A8FFF777FEA00502D46FF07E
:100E200001002AE714F0240F0AD0E00714D1DDE90D
:100E300006123868031D3B600068C0E900120BE031
:100E4000DDE90601FFF758FC0146E00704D13868E8
:100E5000021D3A600068016028460EE70000144059
:100E60000000F03FF1D8FFFF426842B1016811F87D
:100E7000013B23B1521EC0E9001218467047012100
:100E8000C160881E704742685AB1C368016843B99F
:100E900083688B4205D0491E521CC0E90012002015
:100EA00070474FF0FF3070472DE9F05F82460078C1
:100EB000002715468B460AF10104B946302801D0B7
:100EC0009DB113E014F8010B0127782803D05828AE
:100ED00001D045B10AE00DB1102D07D10027102532
:100EE00014F8010B02E0082500E00A250026B046B0
:100EF0000EE005FB080005FB06F1012701EB10469B
:100F00001FFA80F8B6F5803F00D3B94614F8010BFC
:100F1000294600F018F80028EBDABBF1000F05D0E5
:100F20000FB1641E00E05446CBF80040B9F1000F49
:100F300006D024F0CBFB02210160C81EBDE8F09F63
:100F400048EA0640FAE73A2800D2303820F020027A
:100F5000412A01D3A2F13700884201D34FF0FF307C
:100F600070470EB540F2334202920022CDE90022D2
:100F70001346FFF7F1FC03B000BD70B58C1810F8F4
:100F8000015B15F0070301D110F8013B2A1106D1CE
:100F900010F8012B03E010F8016B01F8016B5B1EE8
:100FA000F9D12B0705D40023521E0DD401F8013BC3
:100FB000FAE710F8013BCB1A921C03E013F8015B2F
:100FC00001F8015B521EF9D5A142D8D3002070BDB3
:100FD000164910B5887A0A2827D2DFE800F01A26C9
:100FE000222626262626051EC87AC97B114A00EB32
:100FF000C1015339C9B29FED0E0A02EB810152388B
:1010000081ED000AC0B227F0BFF8BDE8104018F02B
:1010100077B9BDE8104029F0EBBABDE8104027F0E1
:1010200073BEBDE8104018F0C1BE10BD38020020EC
:1010300000000000ECFF00200029816802D041F090
:10104000010101E021F0010181607047084B10B5FA
:10105000D3F8042307490A40D0E900142143D0E91A
:101060000240044321431143C3F8041310BD0000A0
:1010700000200140E030FCFF0029816802D041F4EB
:10108000807101E021F480718160704700298168DE
:1010900002D041F4007101E021F4007181607047D9
:1010A00030B542680F4B0C791A400B6842EA0422B3
:1010B0001343436082680C4B4D791A40D1E90343D6
:1010C00023438C6844EA4504234313438360C26A84
:1010D000097D22F47002491EC9B242EA0151C1627F
:1010E00030BD0000FFFEFFFCFDF7FFC070B5072616
:1010F00009290AD9C568A1F10A0404EB4404A640F1
:10110000B543A3401D43C56007E0056901EB4104F9
:10111000A640B543A3401D4305611F23072A09D2FA
:10112000446B521E02EB820293409C4391400C435D
:10113000446370BD0D2A09D2046BD21F02EB8202F8
:1011400093409C4391400C43046370BDC46A0D3AC4
:1011500002EB820293409C4391400C43C46270BDF9
:10116000816841F08041816070470000F0B5324BEA
:10117000DFED300A9FED310AC3ED010AA3F20C77CF
:10118000002183ED020A08462D4EA3F1A00597F831
:1011900033200AE017F800C0BCF1000F03D155F866
:1011A00020C0B4450CDB401CC0B28242F2D8012CF6
:1011B00006D0C3ED000AC3ED010AC3ED020AF0BD7B
:1011C0000020204C2AE017F800C0BCF1000F23D10A
:1011D00005EB800C9CED000A10EE10CAB4451BDA3A
:1011E00004EB800C491C9CED001AC9B230EE410A98
:1011F00093ED011A70EE200AB4EEC10AF1EE10FA76
:1012000001DD83ED010A93ED021AB4EEC10AF1EE9D
:1012100010FA01D283ED020A401CC0B28242D2D839
:1012200000EE101AB8EE400A80EE801A83ED001A24
:10123000F0BD000000000000180A012000E0F944A1
:1012400000E0F944ECFF00200A48817A0D290BD216
:10125000DFE801F00A0A0A0A070D0D0D0D0A0A0A55
:101260000B00C07A332802D070470348007825F07D
:1012700005BA0000380200203000002000210D4A8D
:101280000846135C012B00D10121401CC0B2282864
:10129000F7D30948012908D10649503991F82A1095
:1012A000012902D10549097811B1002118F05EBB6E
:1012B0000121FBE75C030120000401404202002001
:1012C0001CB54FF48070012100908DF804100020AF
:1012D0008DF806008DF807108DF805006946024864
:1012E00011F090F91CBD000000000240FEE7000074
:1012F00010B5074C0121204618F038FB4FF6FF705F
:1013000005F096FB2046BDE81040002118F02EBBEA
:101310000004014010B5044639202BF04BFDE0B22B
:101320002BF06CFDC4F307202BF068FDC4F30740DD
:101330002BF064FD200E2BF061FD2BF02BFDBDE8A2
:10134000104024F0DDB870B5064614460D463C202A
:101350002BF030FDE8B22BF051FD280A2BF04EFDAA
:101360002BF018FD0CB1002011E024F0C9F81E2864
:101370000FD1304600F030F905463D202BF01AFD24
:101380002BF008FD2E44002CEFD02088284420802C
:10139000EBE770BD10B514F05BF908B100F069F827
:1013A000BDE81040302000F0B2B8312000F0AFB8F6
:1013B0000146362000F09EB810B508B100F0C5F81F
:1013C000BDE81040342000F0A2B870B5054600F02A
:1013D000A7F804000DD00146284600F021F8412866
:1013E00007D0142803D0422800D1B32070BD432079
:1013F00070BD2819BDE87040FFF7DEBF10B5044688
:1014000000F0A3F820785C2801D02F2803D1002118
:10141000642000F0F7F8BDE81040322000F077B803
:1014200070B50E4600210546012401E0641CE4B2BB
:10143000285D5C2813D02F2811D00028F6D1002475
:101440006818FFF7DBFF002C08D0B44206D0412813
:101450000AD0142806D0422800D1B32070BD641CE5
:10146000E4B2EDE7432070BD2146E1E7FF21FFF73D
:10147000D7BF10B522202BF09DFC322005F0D8FA02
:101480002BF08EFC04462BF085FC204610BD2DE988
:10149000F0412BF085FC06462BF082FC05462BF034
:1014A0007FFC04462BF07CFC07462BF073FC46EADD
:1014B000052040EA044040EA0760BDE8F08110B52D
:1014C00004460C202BF076FC20462BF097FCBDE860
:1014D0001040FFF7DCBF10B504460A202BF06AFC71
:1014E00020462BF08BFC2BF05BFC04462BF052FCCF
:1014F000204610BD10B50C462BF05CFC20462BF0AE
:101500007DFC2BF047FCBDE8104023F0F9BF10B57F
:101510002BF050FC2BF03EFCBDE8104023F0F0BF58
:10152000014600E0491C0A78002AFBD105E011F8C9
:10153000012D5C2A03D02F2A01D08142F7D18142AC
:1015400000D0491C081AC0B2704770B5054601208A
:101550002BF030FC2BF024FC432828D22B20FFF763
:10156000BAFF102823D22F202BF024FC00202BF0D0
:1015700045FC3220FFF7CBFF142818D1CF20FFF70E
:10158000AAFF040013D04C20FFF799FF00EB0421C1
:101590004C2000F037F85020FFF791FF00EB0421BA
:1015A000502000F02FF80021702000F02BF82F20A1
:1015B0002BF000FC2C7806E015F8014F5C2C01D0D4
:1015C0002F2C00D1002420462BF018FC002CF3D146
:1015D000BDE870402BF0DEBB70B505462D202BF02A
:1015E000E9FB2BF0DDFB0446260007D028782BF022
:1015F00005FC641E6D1C14F0FF04F7D12BF0CAFB30
:10160000304670BD70B505460C460D202BF0D2FB60
:1016100028462BF0F3FBE0B22BF0F0FBC4F30720DD
:101620002BF0ECFBC4F307402BF0E8FB200E2BF073
:10163000E5FBBDE870402BF0ADBB00002DE9F041AB
:1016400088B00121812014F00FF80121080314F063
:1016500047F8DFF8C88005221146404611F00EF821
:1016600005220621404611F009F8052207214046CF
:1016700011F004F802258DF805508DF8045000246F
:1016800020278DF8064000978DF8074069464046B0
:1016900010F0B8FF402000906946404610F0B2FFBD
:1016A000802000906946404610F0ACFF10200126D3
:1016B00000908DF804608DF806406946404610F0B1
:1016C000A1FF8DF8044000978DF807606946144823
:1016D00010F098FFADF808404FF48270ADF80A00A2
:1016E000ADF810602802ADF812003820ADF81400F3
:1016F000ADF80C40ADF8164007200A4CADF81800C4
:10170000ADF80E5002A9204617F059FD01212046E0
:1017100017F052FB08B0BDE8F08100000000024065
:10172000001C024000300140F0B5FF231A4600259E
:1017300018E0445D6240002402F0010613F0010F3E
:101740004FEA53034FEA520201D042F080021EB129
:1017500083F0A00382F00102641CE4B2082CEBD3F6
:101760006D1CEDB28D42E4D342EA0320F0BD0000CF
:101770002DE9F047FE48FF4FFF4C00784FF482758B
:101780004FF4AA764FF470484FF4A57940B1012880
:1017900074D0022873D0032872D0042871D025E3B6
:1017A0002078012801D028B10FE0882012F0C2FA79
:1017B000384603E0882012F0BDFA404612F0D6FA0F
:1017C000EEA20A21642011F0DFFE6078012801D02A
:1017D00028B10FE0882012F0ADFA384603E08820E7
:1017E00012F0A8FA404612F0C1FAE5A20A21B4208C
:1017F00011F0CAFEA078012801D028B10FE088209E
:1018000012F098FA384603E0882012F093FA404626
:1018100012F0ACFADBA20A21284611F0B5FEE078FE
:10182000012801D028B10FE0882012F083FA384651
:1018300003E0882012F07EFA404612F097FAD2A216
:101840000A21304611F0A0FE2079012801D028B1EC
:101850000FE0882012F06EFA384603E0882012F07C
:1018600069FA404612F082FAC8A24946642011F093
:101870008BFE6079012805D048B113E039E0CEE055
:1018800063E133E2882012F055FA384603E08820FD
:1018900012F050FA404612F069FABDA24946B4204F
:1018A00011F072FEA079012801D028B10FE0882044
:1018B00012F040FA384603E0882012F03BFA404626
:1018C00012F054FAB3A24946284611F05DFEE079C1
:1018D000012801D028B189E2882012F02BFA38467D
:1018E00003E0882012F026FA404612F03FFAAAA23E
:1018F00078E2207A01284FF0880070D012F01AFAAE
:10190000404612F033FAA5A20A21642011F03CFEF1
:10191000607A01284FF0880065D012F00BFA40463B
:1019200012F024FA9EA20A21B42011F02DFEA07A12
:1019300001284FF088005AD012F0FCF9404612F00E
:1019400015FA98A20A21284611F01EFEE07A012815
:101950004FF088004FD012F0EDF9404612F006FA31
:1019600091A20A21304611F00FFE207B01284FF092
:10197000880044D012F0DEF9404612F0F7F98BA24D
:101980004946642011F000FE607B01284FF088007A
:1019900039D012F0CFF9404612F0E8F984A2494656
:1019A000B42011F0F1FDA07B01284FF088002ED06B
:1019B00012F0C0F9404612F0D9F97EA249462846F5
:1019C00011F0E2FDE07B01284FF0880023D012F0F7
:1019D000B1F9404612F0CAF977A203E2FFE712F02C
:1019E000A9F938468DE712F0A5F9384698E712F0C4
:1019F000A1F93846A3E712F09DF93846AEE712F098
:101A000099F93846B9E712F095F93846C4E712F06B
:101A100091F93846CFE712F08DF93846DAE7207CA5
:101A200001284FF0880070D012F084F9404612F07F
:101A30009DF962A20A21642011F0A6FD607C0128B4
:101A40004FF0880065D012F075F9404612F08EF91B
:101A50005BA20A21B42011F097FDA07C01284FF071
:101A600088005AD012F066F9404612F07FF955A26C
:101A70000A21284611F088FDE07C01284FF08800FB
:101A80004FD012F057F9404612F070F94EA20A21D9
:101A9000304611F079FD207D01284FF0880044D0B8
:101AA00012F048F9404612F061F948A24946642014
:101AB00011F06AFD607D01284FF0880039D012F0E6
:101AC00039F9404612F052F941A24946B42011F0CA
:101AD0005BFDA07D01284FF088002ED012F02AF97E
:101AE000404612F043F93BA24946284611F04CFD0E
:101AF000E07D01284FF0880023D012F01BF940460A
:101B000012F034F934A26DE1FFE712F013F9384610
:101B10008DE712F00FF9384698E712F00BF93846C6
:101B2000A3E712F007F93846AEE712F003F938469A
:101B3000B9E712F0FFF83846C4E712F0FBF8384670
:101B4000CFE712F0F7F83846DAE7207E01284FF0A9
:101B500088007DD012F0EEF8404612F007F91FA27F
:101B60000A21642011F010FD607E012838E0000099
:101B700044020020935517000C030120303031003F
:101B80003030320030303300303034003030350007
:101B900030303600303037003030380030303900E7
:101BA00030313000303131003031320030313300EB
:101BB00030313400303135003031360030313700CB
:101BC00030313800303139003032300030323100BD
:101BD00030323200303233003032340030323500AF
:101BE0004FF0880066D012F0A5F8404612F0BEF81B
:101BF00099A20A21B42011F0C7FCA07E01284FF061
:101C000088005BD012F096F8404612F0AFF893A22D
:101C10000A21284611F0B8FCE07E01284FF0880028
:101C200050D012F087F8404612F0A0F88CA20A219A
:101C3000304611F0A9FC207F01284FF0880045D0E4
:101C400012F078F8404612F091F886A2494600E07A
:101C50002CE0642011F098FC607F01284FF0880090
:101C600038D012F067F8404612F080F87EA249465C
:101C7000B42011F089FCA07F01284FF088002DD0FE
:101C800012F058F8404612F071F878A249462846FA
:101C900011F07AFCE07F01284FF0880022D012F08A
:101CA00049F8404612F062F871A29BE012F042F847
:101CB000384652E712F03EF8384697E712F03AF805
:101CC0003846A2E712F036F83846ADE712F032F89F
:101CD0003846B8E712F02EF83846C5E712F02AF871
:101CE0003846D0E712F026F83846DBE794F82000B3
:101CF00001284FF088007DD012F01CF8404612F009
:101D000035F85CA20A21642011F03EFC94F8210011
:101D100001284FF088006ED012F00CF8404612F007
:101D200025F855A20A21B42011F02EFC94F82200C7
:101D300001284FF0880074D011F0FCFF404612F0EB
:101D400015F84EA20A21284611F01EFC94F8230033
:101D500001284FF0880068D011F0ECFF404612F0E7
:101D600005F847A20A21304611F00EFC94F8240031
:101D700001284FF088005CD011F0DCFF404611F0E4
:101D8000F5FF40A24946642011F0FEFB94F82500BF
:101D900001284FF0880050D011F0CCFF404611F0E0
:101DA000E5FF39A24946B42011F0EEFB94F8260075
:101DB00001284FF0880044D011F0BCFF404611F0DC
:101DC000D5FF32A24946284611F0DEFB94F82700E1
:101DD00001284FF0880038D011F0ACFF404611F0D8
:101DE000C5FF2BA24946304611F0CEFB2949012000
:101DF000C87001E00CE010E0FFF77AFA94F83000C8
:101E000038B325A005F0EEFABDE8F04717F078BA30
:101E100011F090FF384672E703E011F08BFF38466F
:101E20007DE711F087FF384689E711F083FF3846D8
:101E300095E711F07FFF3846A1E711F07BFF3846A8
:101E4000ADE711F077FF3846B9E711F073FF384678
:101E5000C5E714A0D6E70000303236003032370034
:101E60003032380030323900303330003033310016
:101E70003033320030333300303334003033350008
:101E800030333600303337003033380030333900E8
:101E900030343000C00100204368616E6E656C20F4
:101EA00073657400CDA8B5C0C9E8D6C300000000B2
:101EB0002DE9F05FF948DFF8E8A3FA4C00784FF419
:101EC00082754FF496764FF4AA784FF4BE794FF4AA
:101ED000704B10B101286ED03CE32078012801D06E
:101EE00028B10FE0882011F025FF504603E088203C
:101EF00011F020FF584611F039FFEBA20A216420AF
:101F000001F004FC6078012801D028B10FE088209E
:101F100011F010FF504603E0882011F00BFF5846E7
:101F200011F024FFE1A20A218C2001F0EFFBA07840
:101F3000012801D028B10FE0882011F0FBFE5046A7
:101F400003E0882011F0F6FE584611F00FFFD8A2EA
:101F50000A21B42001F0DAFBE078012801D028B191
:101F60000FE0882011F0E6FE504603E0882011F0D3
:101F7000E1FE584611F0FAFECEA20A21DC2001F063
:101F8000C5FB2079012801D028B10FE0882011F08D
:101F9000D1FE504603E0882011F0CCFE584611F0E7
:101FA000E5FEC5A20A21284601F0B0FB60790128B0
:101FB00002D030B110E0C6E1882011F0BBFE5046DF
:101FC00003E0882011F0B6FE584611F0CFFEBBA208
:101FD0000A21304601F09AFBA079012801D028B1EE
:101FE0000FE0882011F0A6FE504603E0882011F093
:101FF000A1FE584611F0BAFEB1A20A21404601F0F6
:1020000085FBE079012801D028B10FE0882011F08C
:1020100091FE504603E0882011F08CFE584611F0E6
:10202000A5FEA8A20A21484601F070FB94F83300EF
:10203000082872D9207A012801D028B10FE0882021
:1020400011F078FE504603E0882011F073FE5846E8
:1020500011F08CFE9CA2D221642001F057FB607A23
:10206000012801D028B10FE0882011F063FE50460E
:1020700003E0882011F05EFE584611F077FE93A22F
:10208000D2218C2001F042FBA07A012801D028B196
:102090000FE0882011F04EFE504603E0882011F03A
:1020A00049FE584611F062FE89A2D221B42001F007
:1020B0002DFBE07A012801D028B10FE0882011F033
:1020C00039FE504603E0882011F034FE584611F0E6
:1020D0004DFE80A2D221DC2001F018FB207B0128DC
:1020E00001D028B10FE0882011F024FE504603E013
:1020F000882011F01FFE584611F038FE76A2D2213A
:10210000284601F003FB607B012801D030B110E0CC
:10211000882011F00FFE504604E034E0882011F0D2
:1021200009FE584611F022FE6CA2D221304601F081
:10213000EDFAA07B012801D028B10FE0882011F032
:10214000F9FD504603E0882011F0F4FD584611F0E7
:102150000DFE63A2D221404601F0D8FAE07B0128AF
:1021600001D028B10FE0882011F0E4FD504603E0D3
:10217000882011F0DFFD584611F0F8FD59A2D22158
:10218000484601F0C3FA94F8330010286FD9207C38
:102190004FF4CD77012801D028B10FE0882011F04D
:1021A000C9FD504603E0882011F0C4FD584611F0E7
:1021B000DDFD4DA23946642001F0A8FA607C0128BB
:1021C00001D028B10FE0882011F0B4FD504603E0A3
:1021D000882011F0AFFD584611F0C8FD43A23946E2
:1021E0008C2001F093FAA07C012801D028B10FE0E7
:1021F000882011F09FFD504603E0882011F09AFDE1
:10220000584611F0B3FD3AA23946B42001F07EFAE7
:10221000E07C012801D028B10FE0882011F08AFD70
:10222000504603E0882011F085FD584611F09EFDD0
:1022300030A23946DC2001F069FA207D012801D066
:1022400028B10FE0882011F075FD504603E088208A
:1022500011F070FD584611F089FD27A23946284635
:1022600001F054FA607D012802D030B110E071E134
:10227000882011F05FFD504603E0882011F05AFDE0
:10228000584611F073FD1DA23946304601F03EFA62
:10229000A07D012834D000B142E036E044020020A5
:1022A000935517000C0301203030310030303200DC
:1022B00030303300303034003030350030303600CC
:1022C00030303700303038003030390030313000B5
:1022D00030313100303132003031330030313400B0
:1022E0003031350030313600303137003031380090
:1022F000303139003032300030323100303232008B
:10230000882011F017FD504603E0882011F012FDDF
:10231000584611F02BFDBAA23946404601F0F6F9B5
:10232000E07D012801D028B114E1882011F002FDE0
:10233000504603E0882011F0FDFC584611F016FDD0
:10234000B0A2394603E1207E01284FF088007CD0FE
:1023500011F0F0FC584611F009FDABA20A216420EF
:1023600001F0D4F9607E01284FF088006ED011F0A2
:10237000E1FC584611F0FAFCA4A20A218C2001F0DD
:10238000C5F9A07E01284FF088007DD011F0D2FC65
:10239000584611F0EBFC9EA20A21B42001F0B6F9D8
:1023A000E07E01284FF088006FD011F0C3FC584642
:1023B00011F0DCFC97A20A21DC2001F0A7F9207FB4
:1023C00001284FF088007DD011F0B4FC584611F080
:1023D000CDFC91A20A21284601F098F9607F0128DE
:1023E0004FF088006FD011F0A5FC584611F0BEFCEC
:1023F0008AA20A21304601F089F9A07F01284FF016
:1024000088007DD011F096FC584611F0AFFC84A2F4
:102410000A21404601F07AF9E07F01284FF0880058
:102420006FD011F087FC584611F0A0FC7DA20A2164
:10243000484601F06BF994F8200001284FF088001D
:102440007ED011F077FC584601E092E096E011F062
:102450008DFC75A2D221642001F058F994F8210076
:1024600001284FF088006CD011F064FC584611F040
:102470007DFC6EA2D2218C2001F048F994F8220054
:1024800001284FF0880001E07CE07FE075D011F07A
:1024900051FC584611F06AFC65A2D221B42001F02B
:1024A00035F994F8230001284FF0880072D011F01C
:1024B00041FC584611F05AFC5EA2D221DC2001F00A
:1024C00025F901E067E06AE094F8240001284FF064
:1024D000880070D011F02EFC584611F047FC56A22F
:1024E000D221284601F012F994F8250001284FF076
:1024F000880077D011F01EFC584611F037FC01E03F
:1025000051E054E04DA2D221304601F0FFF894F89A
:10251000260001284FF0880068D011F00BFC5846C7
:1025200011F024FC46A2D221404601F0EFF894F8C5
:10253000270001284FF088005CD011F0FBFB01E080
:102540003BE03EE0584611F011FC3EA2D221484645
:1025500001F0DCF83C490120C870FEF7C9FE94F890
:10256000300048B339A004F03DFFBDE8F05F16F03D
:10257000C7BE11F0DFFB5046EDE626E011F0DAFBB6
:102580005046F7E611F0D6FB504602E711F0D2FBB9
:1025900050460DE71EE011F0CDFB504617E711F055
:1025A000C9FB504622E711F0C5FB50462DE711F05C
:1025B000C1FB504638E711E020E011F0BBFB50466C
:1025C00042E711F0B7FB504651E711F0B3FB50461C
:1025D00060E707E011F0AEFB50466BE711F0AAFB95
:1025E00050467AE711F0A6FB504686E711F0A2FBB1
:1025F000504695E711F09EFB5046A4E716A0B2E7BF
:102600003032330030323400303235003032360070
:102610003032370030323800303239003033300059
:102620003033310030333200303333003033340054
:102630003033350030333600303337003033380034
:102640003033390030343000C00100204368616EFF
:102650006E656C2073657400CDA8B5C0C9E8D6C39B
:10266000000000002DE9F05FF84CDFF8E4A34FF420
:10267000704B2078012801D028B10FE0882011F09C
:1026800059FB504603E0882011F054FB584611F0E6
:102690006DFBF0A20A21642001F06EF86078012839
:1026A00001D028B10FE0882011F044FB504603E030
:1026B000882011F03FFB584611F058FBE6A20A2192
:1026C0008C2001F059F8A078012801D028B10FE042
:1026D000882011F02FFB504603E0882011F02AFBE0
:1026E000584611F043FBDDA20A21B42001F044F862
:1026F000E078012801D028B10FE0882011F01AFB02
:10270000504603E0882011F015FB584611F02EFBCF
:10271000D3A20A21DC2001F02FF820794FF4827532
:10272000012801D028B10FE0882011F003FB5046AA
:1027300003E0882011F0FEFA584611F017FBC9A2F9
:102740000A21284601F018F860794FF4967601289E
:1027500001D028B10FE0882011F0ECFA504603E0D8
:10276000882011F0E7FA584611F000FBBEA20A21BA
:10277000304601F001F8A0794FF4AA79012801D080
:1027800028B10FE0882011F0D5FA504603E08820E8
:1027900011F0D0FA584611F0E9FAB4A20A214846DD
:1027A00000F0EAFFE0794FF4BE78012801D028B1AB
:1027B0000FE0882011F0BEFA504603E0882011F0A7
:1027C000B9FA584611F0D2FAA9A20A21404600F0FF
:1027D000D3FF94F83300082872D9207A012801D059
:1027E00028B10FE0882011F0A5FA504603E08820B8
:1027F00011F0A0FA584611F0B9FA9EA28621642081
:1028000000F0BAFF607A012801D028B10FE08820DB
:1028100011F090FA504603E0882011F08BFA5846E8
:1028200011F0A4FA94A286218C2000F0A5FFA07AD2
:10283000012801D028B10FE0882011F07BFA504622
:1028400003E0882011F076FA584611F08FFA8BA237
:102850008621B42000F090FFE07A012801D028B151
:102860000FE0882011F066FA504603E0882011F04E
:1028700061FA584611F07AFA81A28621DC2000F034
:102880007BFF207B012801D028B10FE0882011F0C8
:1028900051FA504603E0882011F04CFA584611F0E6
:1028A00065FA78A28621284600F066FF607B012841
:1028B00001D030B110E0882011F03CFA504604E01D
:1028C00034E0882011F036FA584611F04FFA6EA223
:1028D0008621304600F050FFA07B012801D028B1AE
:1028E0000FE0882011F026FA504603E0882011F00E
:1028F00021FA584611F03AFA64A28621484600F0BF
:102900003BFFE07B012801D028B10FE0882011F0C7
:1029100011FA504603E0882011F00CFA584611F0E5
:1029200025FA5BA28621404600F026FF94F833008A
:1029300010286FD9207C4FF48177012801D028B16D
:102940000FE0882011F0F6F9504603E0882011F0DE
:10295000F1F9584611F00AFA4EA23946642000F007
:102960000BFF607C012801D028B10FE0882011F016
:10297000E1F9504603E0882011F0DCF9584611F0E7
:10298000F5F945A239468C2000F0F6FEA07C01281E
:1029900001D028B10FE0882011F0CCF9504603E0B7
:1029A000882011F0C7F9584611F0E0F93BA23946EA
:1029B000B42000F0E1FEE07C012801D028B10FE056
:1029C000882011F0B7F9504603E0882011F0B2F9E1
:1029D000584611F0CBF932A23946DC2000F0CCFE8B
:1029E000207D012801D028B10FE0882011F0A2F944
:1029F000504603E0882011F09DF9584611F0B6F9D1
:102A000028A23946284600F0B7FE607D012802D092
:102A100030B110E0C6E1882011F08CF9504603E097
:102A2000882011F087F9584611F0A0F91EA2394606
:102A3000304600F0A1FEA07D012801D028B140E081
:102A4000882011F077F9504634E02FE00C03012084
:102A500093551700303031003030320030303300C1
:102A60003030340030303500303036003030370010
:102A70003030380030303900303130003031310002
:102A800030313200303133003031340030313500F4
:102A900030313600303137003031380030313900D4
:102AA000303230003032310030323200882011F0C4
:102AB00041F9584611F05AF9C3A23946484600F088
:102AC0005BFEE07D012801D028B10FE0882011F0E5
:102AD00031F9504603E0882011F02CF9584611F0E6
:102AE00045F9BAA23946404600F046FE207E4FF432
:102AF000BF77012801D028B10FE0882011F01AF922
:102B0000504603E0882011F015F9584611F02EF9CF
:102B1000AFA23946642000F02FFE607E012801D06C
:102B200028B10FE0882011F005F9504603E0882015
:102B300011F000F9584611F019F9A6A239468C2077
:102B400000F01AFEA07E012801D028B10FE08820F5
:102B500011F0F0F8504603E0882011F0EBF85846E9
:102B600011F004F99CA23946B42000F005FEE07E85
:102B7000012801D028B10FE0882011F0DBF8504681
:102B800003E0882011F0D6F8584611F0EFF893A230
:102B90003946DC2000F0F0FD207F012801D028B16B
:102BA0000FE0882011F0C6F8504603E0882011F0AD
:102BB000C1F8584611F0DAF889A23946284600F0E3
:102BC000DBFD607F012801D028B10FE0882011F0E3
:102BD000B1F8504603E0882011F0ACF8584611F0E7
:102BE000C5F880A23946304600F0C6FDA07F012816
:102BF00001D028B10FE0882011F09CF8504603E086
:102C0000882011F097F8584611F0B0F876A23946AE
:102C1000484600F0B1FDE07F012801D028B10FE067
:102C2000882011F087F8504603E0882011F082F8E0
:102C3000584611F09BF86DA23946404600F09CFDC5
:102C400094F820004FF4FD77012801D028B10FE05F
:102C5000882011F06FF8504603E0882011F06AF8E0
:102C6000584611F083F862A23946642000F084FDD2
:102C700094F82100012801D028B10FE0882011F03C
:102C800059F8504603E0882011F054F8584611F0E6
:102C90006DF858A239468C2000F06EFD94F82200A1
:102CA000012801D028B10FE0882011F043F85046E8
:102CB00003E0882011F03EF8584611F057F84EA274
:102CC0003946B42000F058FD94F82300012801D0C3
:102CD00028B10FE0882011F02DF8504603E088203D
:102CE00011F028F8584611F041F844A23946DC208A
:102CF00000F042FD94F82400012801D028B10FE033
:102D0000882011F017F8504603E0882011F012F8DF
:102D1000584611F02BF83AA23946284600F02CFD0F
:102D200094F82500012801D028B10FE0882011F087
:102D300001F8504603E0882010F0FCFF584611F0DF
:102D400015F830A23946304600F016FD94F82600FA
:102D5000012801D028B10FE0882010F0EBFF504689
:102D600003E0882010F0E6FF584610F0FFFF26A28F
:102D70003946484600F000FD94F82700012801D0AC
:102D800028B10FE0882010F0D5FF504603E08820DE
:102D900010F0D0FF584610F0E9FF1CA2394640461B
:102DA00000F0EAFC1A490120C870FEF7A1FA94F875
:102DB000300030B117A004F015FBBDE8F05F16F04D
:102DC0009FBA17A0F7E700003032330030323400EA
:102DD0003032350030323600303237003032380091
:102DE000303239003033300030333100303332008C
:102DF0003033330030333400303335003033360075
:102E0000303337003033380030333900303430005D
:102E1000C00100204368616E6E656C2073657400AC
:102E2000CDA8B5C0C9E8D6C30000000070B50446FF
:102E30001A481D4D00EB840010ED010A184800EB04
:102E4000840050ED010A174800EB840030EE600A60
:102E500050ED010AB4EEE00AF1EE10FA09D313487E
:102E600000EB840050ED010AB4EEE00AF1EE10FA36
:102E700005DD0D48503890F82C00012807D0882136
:102E80006FF07F4010F05CFF0020285570BD882156
:102E90004FF47F0010F054FF0120F6E7780901207D
:102EA000ECFF0020E40300205C0301204403002029
:102EB00070B5374905460024086810F0450FFBD06F
:102EC000410702D50324042003E0C00704D00124F5
:102ED000204614F035FE59E014F06EFEA8422BD1C6
:102EE00040F2FF5014F02CFE002014F087FE294918
:102EF00008424BD0002801DA1C2070BD410001D5EA
:102F0000092070BD810001D50A2070BDC10001D526
:102F10000B2070BD010101D50C2070BD410101D510
:102F20000D2070BDC10101D50E2070BD010201D57B
:102F30000F2070BD410201D5102070BD810201D566
:102F4000112070BDC10201D5122070BD010301D551
:102F5000132070BD410301D5142070BD810301D53C
:102F6000152070BDC10301D5162070BD010401D527
:102F7000172070BD410401D5182070BD810401D512
:102F8000192070BD000701D51A2070BD204670BD04
:102F9000342C014008E0FFFD10B50B4A00241168F5
:102FA00011F0450FFBD0480702D50324042003E0AD
:102FB000C80705D00124204614F0C2FD204610BDEC
:102FC00040F2FF50F8E70000342C014070B50C4689
:102FD000194906460025086810F0450FFBD0410747
:102FE00002D50324042003E0C00705D001242046B5
:102FF00014F0A6FD204670BD14F0DEFDB04212D1E3
:1030000040F2FF5014F09CFD002014F0F7FD10F486
:10301000604F03D0810404D5132070BD000C2080C4
:1030200007E0410401D5102070BD000401D50F2038
:1030300070BD284670BD0000342C01401CB51F48EF
:103040001FA1214C098841811E4861790088401EDA
:1030500000EB800001EB400000EB800101EBC000C1
:103060001A49014415480D390A30FDF710F918487E
:1030700062788179CDE900124379027915A10F4870
:1030800022F010FB0D4901F10A00FDF700F90B4891
:1030900014A10A30FDF7FBF808490A220A31134847
:1030A00023F038FFE07030B111A004F09BF9BDE8C7
:1030B0001C4012F001BC11A0F7E70000240A012017
:1030C000303A00002C000020A8010020F02A012046
:1030D000980200202F2530326425303264253032AA
:1030E000642564002E786C7300000000CC1A012067
:1030F000B4B4BDA8CAA7B0DC00000000B4B4BDA839
:10310000CEC4BCFEB3C9B9A60000000010B50B4682
:103110000C0601F07F0202EB820100EBC10102D537
:1031200001F58E7101E001F55D710A70DA094A70EE
:1031300021F0EDF9002010BD0A4610B5090602F095
:103140007F0306D503EB830100EBC10101F58E710E
:1031500005E002EB820100EBC10101F55D71002485
:103160008C700B70D2094A7021F0B8F9002010BDA4
:1031700010B50A0604D501F07F0121F0EBFA01E059
:1031800021F0CAFA002010BD70B50D460E0601F000
:103190007F0404EB840100EBC10102D501F58E71BF
:1031A00001E001F55D71ED090C704D708A60CB7026
:1031B00000D0CC80022B01D100220A7121F05AF9F3
:1031C000002070BD10B501F07F0404EB840100EB1A
:1031D000C101C1F88833C1F880230023C1F88C33C2
:1031E00081F8753381F87443C37801F55D71012B63
:1031F00000D10A6114F0FF0F03D021F0C7F90020BD
:1032000010BD21F0C8F8FAE70069002261F30A1244
:1032100001681143016070470A4610B5090602F0C3
:103220007F0306D503EB830100EBC10101F58E712D
:1032300005E002EB820100EBC10101F55D710124A3
:103240008C700B70D2094A7021F088F9002010BDF3
:1032500070B511F07F0404EB840100EBC1014FF065
:10326000010581F81D5181F81C41C1F82821C1F8E0
:103270002C2101F58E714FF00002C1E9053203D017
:1032800021F084F9002070BD21F085F8FAE70000F4
:103290002DE9F0410646002421F0A5FA074655E045
:1032A000F80751D03069E1B20369426BCA4006EBBE
:1032B000810102F00102896943EAC2128D6815405A
:1032C000E9071AD00125426B05FA04F18A434263EB
:1032D00006EB8400806985601F48E1B2006842689F
:1032E00030469047F078012807D134B996F811019B
:1032F000042802D1304621F0ABF8280704D506EBAC
:103300008400082580698560E80604D506EB840002
:10331000102580698560680604D506EB8400402589
:1033200080698560A80704D506EB840002258069C2
:103330008560280608D52146304600F06CF906EB7A
:1033400084018020896988607F08641C002FA7D1D0
:103350000120BDE8F0810000700000202DE9F0415F
:103360000546002421F045FA0746DFF8988043E03F
:10337000F8073FD0E1B2284621F041FA0646C007DF
:1033800025D005EB84000126416D8E60E978012986
:103390000CD1406D016904EB840005EBC000C1F362
:1033A0001201D0F87C23511AC0F88C13D8F8000011
:1033B000E1B2026828469047E878012807D134B97D
:1033C00095F81101052802D1284621F041F8B007EF
:1033D00004D505EB84000226406D8660300709D5D0
:1033E000D8F8000081682846884705EB840108204A
:1033F000496D88607F08641C002FB9D10120BDE8A9
:10340000F08100007000002070B50546C068816939
:1034100021F010018161E868066A06F00F0000EBF8
:10342000800005EBC004C6F3434004F55D74072833
:1034300021D2DFE800F0202004202020150047F6EC
:10344000F070064217D0C6F30A1632462846E168E5
:1034500021F0DDF9E0683044E060A069304409E023
:10346000082205F2CC51284621F0D1F9A069C6F313
:103470000A110844A061E868816941F01001816186
:10348000012070BD38B5044600208DF8000094F886
:1034900012018DF8000015480068416920468847F0
:1034A00020698068E2684FF400615161A17AD1B16E
:1034B000C00718D094F81501012814D19DF8000018
:1034C000032810D1D4F80C01016841F0010101601A
:1034D000D4F80C01016841F003010160044801685F
:1034E00041F006010160012038BD0000700000209D
:1034F00010ED00E070B50446006900250126416822
:1035000021F0010141602946204621F023F90020E5
:10351000FF2206E004EB80018B699A60496D8A60A6
:10352000401C61788142F5D821694FF0FF308861F5
:103530002846216966F30F0066F31F40C8612169C0
:1035400045F00B0048612169C1F88400216945F00C
:103550000B000861216948642069016821F4FE615B
:103560000160204620F074FFE1684FF4805048610C
:1035700003480068016920468847012070BD0000AB
:103580007000002070B5044621F052F9012000239C
:1035900084F8120184F814311A46402510E002EB39
:1035A000820104EBC10181F81D0181F81C21A1F801
:1035B000222181F81F31C1E94953521CC1F8303131
:1035C00061789142EBD8002010E000EB800104EB21
:1035D000C10181F8753381F87403A1F87A0381F889
:1035E0007733C1E9DF53401CC1F8883361788142E9
:1035F000EBD8204620F0AAFE204620F087FD0021CF
:10360000204621F075F9204620F0C0FD2046BDE897
:10361000704021F079B82DE9F0470E4601EB8601A4
:1036200000EBC1048046D4E94C01401AD4F82411BF
:1036300004F58E74814200D20846C01C870808EB4E
:1036400086091EE0451AA068A84200D20546E81C7B
:103650008708ABB2F2B24046E16821F05EF9E0685B
:103660002844E060A0692844A0616169884208D3C9
:10367000207801218140D8F81000426B8A434263D0
:103680000BE0D9F81800806980B2B84205D9D4E9B6
:103690000501814201D20028D4D10120BDE8F08784
:1036A0002DE9F04115460C468046154E4FF4207723
:1036B00019E0802A0BD21348B061214640460FF032
:1036C000F3FEB0696D1C8088204484B20BE00E4884
:1036D000B0612A462146404600F0C2F9B069AD1CEF
:1036E0008088204484B2BC4208D22A78002A05D0BF
:1036F000B0698088011989B28142DAD2BDE8F081CF
:1037000018020020E4020020240300202DE9F041EB
:1037100015460C468046154E4FF4207719E0802A56
:103720000BD21348B061214640460FF0BDFEB06990
:103730006D1C8088204484B20BE00E48B0612A469C
:10374000214640460FF0C6FEB069AD1C808820447B
:1037500084B2BC4208D22A78002A05D0B069808899
:10376000011989B28142DAD2BDE8F0811802002045
:10377000DC020020140300202DE9F04115460C4620
:103780008046154E4FF4207719E0802A0BD213485B
:10379000B061214640460FF087FEB0696D1C8088FD
:1037A000204484B20BE00E48B0612A4621464046D0
:1037B00000F0FCF8B069AD1C8088204484B2BC42A3
:1037C00008D22A78002A05D0B0698088011989B208
:1037D0008142DAD2BDE8F08118020020CC0200203C
:1037E0002C0300202DE9F04F334EDFF8D0A0DFF896
:1037F000D080DFF8D09085B0002443F2FF3B8821D1
:10380000084610F09DFAC4EBC40000EB800000F104
:1038100028052023C822294646200FF0B1FF882121
:10382000584610F08DFA621C27A103A821F03AFF38
:10383000284603AA0A210FF071FE284623A232214E
:103840000FF06CFE7079671C874202D15146002050
:1038500001E08821504610F073FAB8F8000000EB40
:10386000800004EB400000EB800101EBC00101EBA4
:10387000090228464621823A0FF050FEFCB20A2C7B
:10388000BDD38821504610F05BFAB379B8F8002018
:103890000FA1684621F006FF6A464FF4FA714FF413
:1038A000C8700FF03BFE0C490D20087008F084F939
:1038B00005B0BDE8F08F0000A801002000FFFF0068
:1038C0002C0000202C3A0120256400002E0000006E
:1038D00025642F2564000000420200202DE9F047F6
:1038E0002A4EDFF8AC90DFF8AC80DFF8ACA086B0F1
:1038F00000248821484610F023FA621C27A103A85F
:1039000021F0D0FEC4EBC40000EB80002830054657
:1039100003AA0A210FF002FE284621A232210FF04D
:10392000FDFD7079671C874202D14946002001E005
:103930008821484610F004FAB8F8000000EB800037
:1039400004EB400000EB800101EBC00101EB0A0237
:1039500028464621823A0FF0E1FDFCB20A2CC8D37A
:103960008821484610F0ECF93379B8F800200DA111
:10397000684621F097FE6A464FF4FA714FF4C8701A
:103980000FF0CCFD06B0BDE8F0870000A8010020D4
:1039900000FFFF002C000020F02A01202564000019
:1039A0002E00000025642F25640000002DE9F04161
:1039B00016460F46804600240D4D0FE032788A42AD
:1039C0000AD105EB400271785078814204D1394622
:1039D0004046921C0FF04AFE641CA4B204EB440063
:1039E00000EB041015F810108029E7D8BDE8F0812D
:1039F000F1EF05082DE9F04115460C468046154EBD
:103A00004FF4207719E0802A0BD21348B061214689
:103A100040460FF049FDB0696D1C8088204484B297
:103A20000BE00E48B0612A462146404600F018F8E7
:103A3000B069AD1C8088204484B2BC4208D22A7888
:103A4000002A05D0B0698088011989B28142DAD292
:103A5000BDE8F08118020020FC0200201C030020B9
:103A60002DE9F04116460F46804600240C4D0EE02D
:103A700032788A4209D1421971785078814204D152
:103A800039464046921C0FF0F1FD641CA4B204EBD1
:103A90008400C0EB8410295C8029E9D8BDE8F0815E
:103AA000ACD205082DE9F04115460C468046154E6E
:103AB0004FF4207719E0802A0BD21348B0612146D9
:103AC00040460FF0F1FCB0696D1C8088204484B240
:103AD0000BE00E48B0612A4621464046FFF7C0FF82
:103AE000B069AD1C8088204484B2BC4208D22A78D8
:103AF000002A05D0B0698088011989B28142DAD2E2
:103B0000BDE8F08118020020040300201C030020FF
:103B10002DE9F041204E15460C4680466BB3012B33
:103B200038D18821084610F00BF92823902241460D
:103B300020460FF025FEBDE8F04188216FF07F4060
:103B400010F0FEB8802A0BD21448B06121464046DE
:103B50000FF0AAFCB0696D1C8088204484B20EE08E
:103B60000F48B0612A46214640460FF0B3FCB069C9
:103B7000AD1C8088204484B201E04FF42077BC4221
:103B800008D22A78002A05D0B0698088011989B244
:103B90008142D7D2BDE8F08118020020EC0200205B
:103BA000140300202DE9F041204E15460C468046B6
:103BB0006BB3012B38D18821084610F0C1F81C23C3
:103BC0006022414620460FF0DBFDBDE8F041882130
:103BD0006FF07F4010F0B4B8802A0BD21448B06167
:103BE000214640460FF060FCB0696D1C808820447F
:103BF00084B20EE00F48B0612A46214640460FF0DD
:103C000069FCB069AD1C8088204484B201E04FF4A7
:103C10002077BC4208D22A78002A05D0B069808873
:103C2000011989B28142D7D2BDE8F0811802002083
:103C3000F4020020140300202DE9F041204E154627
:103C40000C4680466BB3012B38D18821084610F012
:103C500077F814233222414620460FF091FDBDE84B
:103C6000F04188216FF07F4010F06AB8802A0BD2B3
:103C70001448B061214640460FF016FCB0696D1C37
:103C80008088204484B20EE00F48B0612A46214665
:103C900040460FF01FFCB069AD1C8088204484B200
:103CA00001E04FF42077BC4208D22A78002A05D0E0
:103CB000B0698088011989B28142D7D2BDE8F0810C
:103CC00018020020D40200201403002010B50121A6
:103CD000CC05204611F0D4FC2046BDE81040002160
:103CE00011F0CEBC034A0146002052680A4200D0BF
:103CF0000120704700B0024030B52A4B00241968FB
:103D0000294A114019601968026811431960596BFA
:103D100021F007015963596B4268114359634168A7
:103D200041B301292DD0022930D00329C16832D0F6
:103D30000A01016944690902240385682143154386
:103D40000D43996B0D439D638169D963196C6FF3C2
:103D50000D011964196CC26911431964818C5A6C84
:103D600002F040425A645A6C006A024342EA01423D
:103D70005A6430BDC168047D0A02018A0904240620
:103D8000DBE7C1680A02018A0904D6E7C1684A0173
:103D90000169C902D1E74A01016944698902E40362
:103DA000CBE7000000B00240FCE0FCFF02480168E5
:103DB00041F001010160704700B0024014F0FEBD07
:103DC000074A904201D2074801E005481038064AE8
:103DD0008B0001EA020101D5C16070478160704724
:103DE00010640240006002407D0F7D0F00290168D1
:103DF00002D041F0010101E021F0010101607047B2
:103E00002DE9F043016821F001010160002101600A
:103E100041608160C1600161212141613C493C4AAE
:103E20003D251039904202D18D60BDE8F083384ABB
:103E30004FF474661832904201D18E60F5E7344A2F
:103E40004FF474173032904201D18F60EDE7304A61
:103E50004FF0746C4832904202D1C1F808C0E4E7D8
:103E60002B4B2C4A6033984201D1CA60DDE7284CC5
:103E7000294B7834A04201D1CB60D6E7DFF890809F
:103E8000264C08F19008404501D1CC60CDE7DFF821
:103E900080804FF03D5908F1A808404502D1C1F893
:103EA0000C90C2E71E49DFF878800839404501D1FF
:103EB0000D60BAE71A4D1835A84201D10E60B4E77B
:103EC000174D3035A84201D10F60AEE7144D48358B
:103ED000A84202D1C1F800C0A7E7114D10496035D2
:103EE000091FA84201D10A609FE70D4A783290422B
:103EF00001D10B6099E70A4A9032904201D10C60DF
:103F000093E7074AA83290428FD1C1F800908CE71E
:103F1000106002403D000020400F002000003D20C6
:103F2000106402400029016802D041F0200101E044
:103F300021F02001016070470B0607D5436912B1DB
:103F400043F0800301E023F080034361802908D01F
:103F5000002A026801F01E0101D00A4300E08A43F2
:103F60000260704730B50368124ACC6813400A6893
:103F70002243D1E905452C432243CC6922430C6AF4
:103F800022434C6A22438C6A22434C6B22438C6B43
:103F900022431A430260426922F00703D1E90B244D
:103FA00022431A4342610A6942604A688260896812
:103FB000C16030BD3F801CF00548807A052803D0E1
:103FC000062801D0082802D102A023F031BC704796
:103FD000380200202E0000002DE9F04FF84CF94D7A
:103FE0002146A07A91F80BC09FB00D282ED2DFE8B1
:103FF00010F0300041132D002D00DC0BD30D7E148A
:104000002D00A5112D002D002D000D0095F8330079
:10401000082802D0102802D004E0102000E0082078
:1040200085F8330015F06CF96FF07F400FF09EFEBD
:1040300088200FF07FFE95F83320E3A1684621F039
:1040400031FB6A46AA2132200FF068FA1FB0BDE8A2
:10405000F08FDB484FF4CD764FF48177017BD94860
:104060004FF4BF794FF4FD7A90F82D2090F8273067
:104070001E93C37F1D93C37D1C93C37B1B9390F83A
:1040800026301A93837F1993837D1893837B17932C
:1040900090F825301693437F1593437D1493437B0B
:1040A000139390F824301293037F1193037D1093A0
:1040B000037B0F9390F823300E93C37E0D93C37C44
:1040C0000C93C37A0B9390F822300A93837E099362
:1040D000837C0893837A079390F821300693437E7C
:1040E0000593437C0493437A039390F820E090F87F
:1040F00018B0037C007ABCF1290FA7D2DFE81CF0CE
:104100002900C50048012F02B40249031A04AB0478
:10411000410553069106D0060D074C078E07D007C0
:10412000160858088208B008DA0806093409620936
:104130009009BC09D409EC09040A1D0A370A510A7E
:104140006B0A840A9D0AB60ACF0AE90A040B1F0B00
:104150003A0B9F480FF00AFE88200FF0EBFD95F810
:104160002900022812D0012812D0032812D00428D6
:1041700012D0052812D0062812D0072812D00828FD
:1041800012D0092812D00B2812D016E091A210E00C
:1041900092A20EE093A20CE094A20AE095A208E09D
:1041A00096A206E097A204E098A202E099A200E09D
:1041B0009AA264212F200FF0B1F995F82D0020B1BB
:1041C000012835D002284FD04AE0207B40B1012899
:1041D0000BD002280ED0032811D0042814D01CE0E4
:1041E000287823F053F98FA213E0287A23F04EF9B0
:1041F0008DA20EE0287C23F049F98CA209E0287EEC
:1042000023F044F98AA204E095F8200023F03EF957
:1042100088A20A2164200FF0B7F995F8300028B180
:1042200085A003F0DFF8012001F0BDBA85A0F8E712
:10423000207B10B1012805D020E0287823F026F952
:1042400078A203E0287E23F021F979A20A216420D4
:10425000FFF75CFA12E07BA000E077A003F0C2F861
:10426000012005F03DF9F1E6207B38B9287823F0EC
:104270000DF96CA20A216420FFF77EFA0120E0729A
:1042800095F830000028E8D1E5E74E4F02263F7848
:1042900032B1012A4FD0022AE2D100296AD082E24B
:1042A00041B101290BD002290DD0032910D00429D6
:1042B00013D0F4E7384623F0B1F85AA211E023F006
:1042C000ADF859A20DE0184623F0A8F857A208E06F
:1042D000584623F0A3F856A203E0704623F09EF858
:1042E00054A20A2164200FF04FF9207B40B101282D
:1042F0000BD002280ED0032811D0042814D0CEE70A
:10430000687823F0C3F852A213E0687A23F0BEF86D
:1043100050A20EE0687C23F0B9F84FA209E0687E55
:1043200023F0B4F84DA204E095F8210023F0AEF894
:104330004BA20A218FE211B101290DD0AFE7384617
:1043400023F06CF837A20A216420FFF7DFF96878C0
:1043500023F09CF83EA20BE0584623F05FF834A20D
:104360000A216420FFF7D2F9687E23F08FF83BA280
:104370000A21F1E3384623F051F82AA20A216420E9
:10438000FFF7FAF9687823F081F831A20A21F7E300
:104390000C480326407832B1012A10D0022A7FF45B
:1043A00013AF51B17BE749B1012960D0022964D034
:1043B000032968D004296CD071E7BFE052E09AE08D
:1043C000380200200C030120253033640000000077
:1043D00000FFFF0054432D4B0000000054432D54B8
:1043E0000000000054432D4A0000000054432D4EAD
:1043F0000000000054432D450000000054432D539D
:104400000000000054432D520000000054432D4290
:10441000000000005054313030000000317E35562D
:1044200000000000303031003030390030313700CA
:1044300030323500303333004368616E6E656C2076
:1044400073657400CDA8B5C0C9E8D6C300000000EC
:104450003030320030313000303138003032360008
:104460003033340022F0DAFFAFF21C0216E003987A
:1044700022F0D4FFAFF2240210E0049822F0CEFF25
:10448000AFF22C020AE0059822F0C8FFAFF2340226
:1044900004E0069822F0C2FFAFF23C020A21B420E9
:1044A0000FF072F8207B40B101280BD002280ED00B
:1044B000032811D0042814D0F1E6A87822F0E6FFF2
:1044C000FDA213E0A87A22F0E1FFFCA20EE0A87C96
:1044D00022F0DCFFFAA209E0A87E22F0D7FFF9A2C1
:1044E00004E095F8220022F0D1FFF7A20A217EE233
:1044F0000FF04AF8D3E611B101290DD0CFE622F032
:104500008DFFAFF2B4020A218C20FFF7FFF8A878E4
:1045100022F0BCFFE8A20CE0059822F07FFFAFF28A
:10452000C4020A218C20FFF7F1F8A87E22F0AEFF2A
:10453000E4A20A21EDE3FFF7E9F8B0E622F06EFF0E
:10454000AFF2F4020A218C20FFF716F9A87822F0C6
:104550009DFFD9A20A21F5E3FFF70EF99FE6DB489C
:104560000426807832B1012A53D0022A7FF42CAE7F
:1045700089B394E641B101290AD002290DD003295B
:1045800010D0042913D08AE622F048FFCAA212E014
:10459000079822F043FFC9A20DE0089822F03EFFE1
:1045A000C7A208E0099822F039FFC6A203E00A98E2
:1045B00022F034FFC4A20A214FF482700EF0E4FF0F
:1045C000207B48B101280CD002280FD0032812D03C
:1045D000042815D063E63AE0E87822F057FFBCA241
:1045E00013E0E87A22F052FFBAA20EE0E87C22F053
:1045F0004DFFB9A209E0E87E22F048FFB7A204E02F
:1046000095F8230022F042FFB5A20A214FF4AA70C8
:104610006EE711B101290CD041E622F0FFFEA6A2FF
:104620000A21B420FFF772F8E87822F02FFFA8A241
:104630000BE0099822F0F2FEA2A20A21B420FFF7B3
:1046400065F8E87E22F022FFA4A20A21F0E322F01E
:10465000E5FE99A20A21B420FFF78EF8E87822F04F
:1046600015FF9BA20A21F7E39848C07832B1012ACE
:1046700059D0022A7FF4F7ADF1B375E041B10129B9
:104680000AD002290DD0032910D0042913D01BE031
:1046900022F0C4FE8EA212E00B9822F0BFFE8DA283
:1046A0000DE00C9822F0BAFE8BA208E00D9822F0E3
:1046B000B5FE8AA203E00E9822F0B0FE88A20A217D
:1046C0004FF4AA700EF060FF00200FF04FFB8548FA
:1046D0000FF030FB95F8290002286FD001286ED02A
:1046E00003286DD004286CD005286BD006286AD02A
:1046F000072869D0082800E03AE06FD009286ED07A
:104700000B286DD003E064212F200EF007FF95F8F1
:10471000300008B174A000E078A002F063FE07F05A
:10472000FFFB0020A5E211B101290CD01CE022F012
:1047300075FE67A20A21DC20FEF7E8FF287922F047
:10474000A5FE72A20BE00D9822F068FE63A20A217A
:10475000DC20FEF7DBFF287F22F098FE6CA20A2106
:104760004FF48270FEF7D2FF012004F0B9FE68E238
:1047700022F054FE56A20A21DC20FEF7FDFF287924
:1047800022F084FE61A20A214FF48270FEF7F4FF4A
:10479000EAE74E480626007932B1012A5DD0022AA6
:1047A0007FF412ADD9B305E379B1012911D0022903
:1047B00017D003291AD004291DD0FBE266E268E273
:1047C0006AE26CE26EE270E272E222F027FE4FA231
:1047D00015E00F9822F022FE4EA210E06BE26DE28F
:1047E0006FE2109822F01AFE4BA208E0119822F016
:1047F00015FE47A203E0129822F010FE47A24FF4E4
:10480000A57164200EF0C0FE207B48B101280CD0B9
:1048100002280FD0032812D0042815D0CAE23CE0A9
:10482000687922F033FE3EA213E0687B22F02EFE70
:104830003CA20EE0687D22F029FE3BA209E0687FE1
:1048400022F024FE39A204E095F8250022F01EFE95
:1048500037A24FF4A571B4204AE611B101290DD059
:10486000A8E222F0DBFD29A20A214FF48270FEF7B4
:104870004DFF687922F00AFE29A20CE0119822F07F
:10488000CDFD23A20A214FF48270FEF73FFF687F1F
:1048900022F0FCFD25A20A21AAE322F0BFFD1BA203
:1048A0000A214FF48270FEF767FF687922F0EEFD6F
:1048B0001BA20A21AFE30000303033003031310059
:1048C0003031390030323700303335000C030120ED
:1048D0003030340030313200303230003032380085
:1048E0003033360000FFFF00546865726D6F636FF0
:1048F00075706C65206D6F64656C0000C8C8B5E7A5
:10490000C5BCD0CDBAC5D1A1D4F10000303035003E
:10491000303239003031330030323100303337003B
:104920003030360030313400303232003033300035
:1049300030333800F7480726407932B1012A59D080
:10494000022A7FF441ACB1B3FAE341B101290BD0A3
:1049500002290FD0032913D0042917D0F0E322F045
:104960005DFDAFF2440216E0139822F057FDAFF25E
:104970004C0210E0149822F051FDAFF254020AE00C
:10498000159822F04BFDAFF25C0204E0169822F07D
:1049900045FDAFF264024FF4A571B4200EF0F4FDB2
:1049A000207B48B101280CD002280FD0032812D058
:1049B000042815D0C4E33FE0A87922F067FDD6A211
:1049C00013E0A87B22F062FDD4A20EE0A87D22F0C5
:1049D0005DFDD3A209E0A87F22F058FDD1A204E03A
:1049E00095F8260022F052FDCFA24FF4A5714FF4A6
:1049F00082707DE511B101290ED0A1E322F00EFDF8
:104A0000AFF2E4020A214FF49670FEF77FFEA87918
:104A100022F03CFDC0A20DE0159822F0FFFCAFF2A1
:104A2000F4020A214FF49670FEF770FEA87F22F080
:104A30002DFDBCA20A211DE322F0F0FCAFF22012F2
:104A40000A214FF49670FEF797FEA87922F01EFD1A
:104A5000B1A20A2121E3AF48807932B1012A57D0AF
:104A6000022A7FF4FDAB91B388E041B101290AD05D
:104A700002290DD0032910D0042913D07EE022F0A2
:104A8000CDFCA5A212E0179822F0C8FCA3A20DE06D
:104A9000189822F0C3FCA2A208E0199822F0BEFCEC
:104AA000A0A203E01A9822F0B9FC9FA24FF4A571CE
:104AB0004FF482700EF068FD207B48B101280CD0C5
:104AC00002280FD0032812D0042815D056E044E065
:104AD000E87922F0DBFC95A213E0E87B22F0D6FC1B
:104AE00093A20EE0E87D22F0D1FC92A209E0E87FDB
:104AF00022F0CCFC90A204E095F8270022F0C6FC3E
:104B00008EA24FF4A5714FF4AA700EF03DFD35E072
:104B100011B101290DD031E022F080FC7EA20A21E2
:104B20004FF4AA70FEF7F2FDE87922F0AFFC7FA205
:104B30000CE0199822F072FC7AA20A214FF4AA70B4
:104B4000FEF7E4FDE87F22F0A1FC7BA20A214FF4EE
:104B5000BE70FEF7DBFD11E04FE122F05FFC6EA2BC
:104B60000A214FF4AA70FEF707FEE87922F08EFCC6
:104B70006EA20A214FF4BE70FEF7FEFD0820D4E2BB
:104B80004CE16448C07932B1012A5CD0022A7FF43A
:104B90005DAA91B301E141B101290AD002290DD0EA
:104BA000032910D0042913D04BE022F037FC5FA278
:104BB00012E01B9822F032FC5DA20DE01C9822F05E
:104BC0002DFC5CA208E01D9822F028FC5AA203E00C
:104BD0001E9822F023FC59A24FF4A5714FF4AA703D
:104BE0000EF0D2FC207B48B101280DD0022811D054
:104BF000032815D0042819D023E065E0287922F095
:104C000045FCAFF2F82217E0287B22F03FFCAFF220
:104C1000FC2211E0287D22F039FCAFF204320BE0D7
:104C2000287F22F033FCAFF2183205E095F824001B
:104C300022F02CFCAFF21C324FF4A57164200EF070
:104C4000A3FC052015E0C1B10129A0D11D9822F0D7
:104C5000E5FB39A20A214FF4BE70FEF757FD287E0E
:104C600022F014FCAFF638020A216420FEF74EFD54
:104C70000120E0721FB0BDE8F08F22F0CFFB2BA225
:104C80000A214FF4BE70FEF741FD1DE5AFF6BC02F0
:104C900039E5AFF6B80236E5AFF6B80233E5AFF660
:104CA000B40230E5AFF6B4022DE5AFF6B0022AE566
:104CB000AFF6B00227E5AFF6AC0224E5AFF6AC02E2
:104CC00021E5AFF6A8021EE522F0A8FB17A20A21F3
:104CD0004FF4BE70FEF750FD00200FF047F8184863
:104CE0000FF028F895F8290002282CD001282DD0A3
:104CF00003282ED004282FD0052830D0062831D004
:104D0000072832D0082833D0092834D00B2835D0D2
:104D10003AE0B2E00C03012030303700303135008A
:104D20003032330030333100303339003030380026
:104D3000303136003032340030333200303430001D
:104D400000FFFF00AAE0AFF6741219E0AFF674128C
:104D500016E0AFF6701213E0AFF6701210E0AFF687
:104D60006C120DE0AFF66C120AE0AFF6681207E0C5
:104D7000AFF6681204E0AFF6641201E0AFF6641219
:104D800064212F200EF0CAFB95F8300040B1AFF23D
:104D9000A84002F027FB0020E07207F0C1F869E7A5
:104DA000AFF2A840F5E70A26012A04D0022A7FF4D0
:104DB00057AA29B3C4E111B101290ED0C0E122F0F4
:104DC0002DFBAFF69C12D2216420FEF79FFC687A7F
:104DD00022F05CFBAFF684120EE0704622F01EFB60
:104DE000AFF6B012D2216420FEF790FC95F82100B6
:104DF00022F04CFBAFF69812D2218C20FFF79BBB20
:104E000022F00CFBAFF6E01286216420FEF7B4FC22
:104E1000687A22F03BFBAFF6C41286218C20FFF7A4
:104E20009BBB0B26012A04D0022AC0D139B387E1EB
:104E300060E011B1012910D082E1039822F0EEFA6E
:104E4000AFF6F012D2218C20FEF760FCA87A22F097
:104E50001DFBAFF298520FE05DE0069822F0DEFAFB
:104E6000AFF60422D2218C20FEF750FC95F82200E8
:104E700022F00CFBAFF2B052D221B420BEE703986F
:104E800022F0CCFAAFF6342286218C20FEF774FC97
:104E9000A87A22F0FBFAAFF2DC528621B420BEE7FA
:104EA0000C26012A03D0022ABFD129B348E111B14F
:104EB00001290FD044E1079822F0B0FAAFF2046262
:104EC000D221B420FEF722FCE87A22F0DFFAAFF21A
:104ED000FC520EE00A9822F0A1FAAFF21462D2213D
:104EE000B420FEF713FC95F8220022F0CFFAAFF2BF
:104EF0001062D221DC2081E7079822F08FFAAFF20E
:104F000044628621B420FEF737FCE87A22F0BEFA2C
:104F1000AFF240628621DC2081E70D26012A03D012
:104F2000022AC1D131B30BE111B101290FD007E140
:104F30000B9822F073FAAFF26462D221DC20FEF704
:104F4000E5FB287B22F0A2FAAFF238620EE00E9861
:104F500022F064FAAFF27862D221DC20FEF7D6FBB1
:104F600095F8240022F092FAAFF25062D2214FF469
:104F7000827043E70B9822F051FAAFF2A8628621C3
:104F8000DC20FEF7F9FB287B22F080FAAFF27C628E
:104F900086214FF4827042E70E26012A03D0022AAE
:104FA000BFD141B3CCE011B1012910D0C8E00F98B6
:104FB00022F034FAAFF2A462D2214FF48270FEF7ED
:104FC000A5FB687B22F062FAAFF2A8620FE01298AC
:104FD00022F024FAAFF2BC62D2214FF48270FEF7C5
:104FE00095FB95F8250022F051FAAFF2BC62D22170
:104FF0004FF4967002E70F9822F010FAAFF2EC62CD
:1050000086214FF48270FEF7B7FB687B22F03EFAF0
:10501000AFF2F06286214FF4967000E70F26012A66
:1050200003D0022ABCD141B38AE011B1012910D0CA
:1050300086E0139822F0F2F9AFF21872D2214FF401
:105040009670FEF763FBA87B22F020FAAFF23432B1
:105050000FE0169822F0E2F9AFF22C72D2214FF451
:105060009670FEF753FB95F8260022F00FFAAFF288
:105070004832D2214FF4AA70C0E6139822F0CEF93C
:10508000AFF2607286214FF49670FEF775FBA87B35
:1050900022F0FCF9AFF27C3286214FF4AA70BEE612
:1050A000012A03D0022ABDD151B33DE011B101293B
:1050B00010D039E0179822F0B1F9AFF2A032D22126
:1050C0004FF4AA70FEF722FBA87B22F0DFF9AFF2C3
:1050D000A0320FE01A9822F0A1F9AFF2B432D22137
:1050E0004FF4AA70FEF712FB95F8270022F0CEF9D4
:1050F000AFF2B832D2214FF4BE70FEF707FB13E0D7
:10510000179822F08BF9AFF2EC3286214FF4AA7097
:10511000FEF732FBE87B22F0B9F9AFF2EC328621E0
:105120004FF4BE70FEF728FB10203CE30926012A4D
:1051300003D0022AB7D149B302E021B1012912D02C
:10514000E672FFF78DB81B9822F068F9AFF22042A3
:10515000D2214FF4BE70FEF7D9FA287A22F096F9E0
:10516000AFF63C520FE01E9822F058F9AFF23442ED
:10517000D2214FF4BE70FEF7C9FA95F8200022F054
:1051800085F9AFF65052D221642037E61B9822F001
:1051900045F9AFF2644286214FF4BE70FEF7ECFA97
:1051A000287A22F073F9AFF680528621642036E621
:1051B0004FF01208012A03D0022AC2D189B136E188
:1051C000184622F02BF9AFF69C5231466420FEF7C8
:1051D0009DFA687C22F05AF9AFF6845231468C2051
:1051E00028E0184622F01AF9AFF6C052394664207A
:1051F000FEF7C2FA687C22F049F9AFF6A4523946AC
:105200008C202AE04FF01308012A03D0022A98D1FB
:1052100099B10CE1049822F001F9AFF6C45231467D
:105220008C20FEF773FAA87C22F030F9AFF67012EA
:105230003146B420FEF76AFAF9E0049822F0EEF85D
:10524000AFF6EC5239468C20FEF796FAA87C22F095
:105250001DF9AFF694123946B420FEF78DFAE6E058
:105260004FF01408012A03D0022AA6D189B1DEE04A
:10527000089822F0D3F8AFF6B8123146B420FEF702
:1052800045FAE87C22F002F9AFF6B4123146DC2090
:10529000D0E7089822F0C2F8AFF6DC123946B42005
:1052A000FEF76AFAE87C22F0F1F8AFF6D41239463C
:1052B000DC20D2E74FF01508012A03D0022AA6D13C
:1052C00091B1B4E00C9822F0A9F8AFF6F41231468F
:1052D000DC20FEF71BFA287D22F0D8F8AFF6C812C2
:1052E00031464FF48270A5E70C9822F097F8AFF69C
:1052F00018223946DC20FEF73FFA287D22F0C6F856
:10530000AFF6EC1239464FF48270A6E74FF016085C
:10531000012A03D0022AA8D199B188E0109822F07E
:105320007DF8AFF60C2231464FF48270FEF7EEF9AD
:10533000687D22F0ABF8AFF6102231464FF496703C
:1053400078E7109822F06AF8AFF6342239464FF425
:105350008270FEF711FA687D22F098F8AFF63822D5
:1053600039464FF4967078E74FF01708012A03D0BA
:10537000022AA4D199B15AE0149822F04FF8AFF65E
:10538000582231464FF49670FEF7C0F9A87D22F0FE
:105390007DF8AFF2746231464FF4AA704AE7149870
:1053A00022F03CF8AFF6802239464FF49670FEF7B3
:1053B000E3F9A87D22F06AF8AFF29C6239464FF417
:1053C000AA704AE74FF01808012A03D0022AA2D196
:1053D00099B12CE0189822F021F8AFF2BC62314666
:1053E0004FF4AA70FEF792F9E87D22F04FF8AFF281
:1053F000BC6231464FF4BE701CE7189822F00EF8DC
:10540000AFF2E46239464FF4AA70FEF7B5F9E87DD1
:1054100022F03CF8AFF2E46239464FF4BE701CE76C
:105420004FF01108012A05D0022AA2D199B184F8BF
:105430000B8086E61C9821F0F1FFAFF2087231462E
:105440004FF4BE70FEF762F9287C22F01FF8F74A8D
:1054500031466420EEE61C9821F0E0FFAFF22C729A
:1054600039464FF4BE70FEF787F9287C22F00EF81B
:10547000EE4A39466420F0E6022ADAD191B958465C
:1054800021F0CCFFE94A4E46121D49466420FEF742
:1054900073F9687E21F0FAFFE44A314630328C20FD
:1054A000FEF76AF91A207EE1022AC2D191B9059865
:1054B00021F0B4FFDD4A4E46303249468C20FEF7DB
:1054C0005BF9A87E21F0E2FFAFF608423146B42036
:1054D000FEF752F91B2066E1022AAAD191B9099878
:1054E00021F09CFFAFF624424E464946B420FEF719
:1054F00043F9E87E21F0CAFFAFF620423146DC20B6
:10550000FEF73AF91C204EE1022A92D199B90D9882
:1055100021F084FFAFF63C424E464946DC20FEF7C0
:105520002BF9287F21F0B2FFAFF61C4231464FF431
:105530008270FEF721F91D2035E1022A9DD1A1B923
:10554000119821F06BFFAFF638424E4649464FF4B2
:105550008270FEF711F9687F21F098FFAFF63442B0
:1055600031464FF49670FEF707F91E201BE1022A20
:105570009BD1A1B9159821F051FFAFF650424E468C
:1055800049464FF49670FEF7F7F8A87F21F07EFFAA
:10559000AFF6700231464FF4AA70FEF7EDF81F2007
:1055A00001E1022A99D1A1B9199821F037FFAFF68C
:1055B0008C024E4649464FF4AA70FEF7DDF8E87FAC
:1055C00021F064FFAFF6900231464FF4BE70FEF753
:1055D000D3F82020E7E0022A97D199B91D9821F04D
:1055E0001DFFAFF6AC024E4649464FF4BE70FEF7C3
:1055F000C3F8287E21F04AFF8C4A3146121D6420F0
:10560000FEF7BAF81920CEE0022A97D199B9704670
:1056100021F004FF854A5646083251466420FEF7C1
:10562000ABF895F8210021F031FF804A3146343241
:105630008C20FEF7A1F82220B5E0022A98D199B972
:10564000069821F0EBFE794A5646343251468C20BA
:10565000FEF792F895F8220021F018FFAFF6985265
:105660003146B420FEF788F823209CE0022A99D125
:1056700099B90A9821F0D2FEAFF6B4525646514677
:10568000B420FEF779F895F8230021F0FFFEAFF67D
:10569000B0523146DC20FEF76FF8242083E0022A66
:1056A0009AD1A1B90E9821F0B9FEAFF6CC52564668
:1056B0005146DC20FEF760F895F8240021F0E6FE64
:1056C000AFF6A85231464FF48270FEF755F8252008
:1056D00069E0022A99D1A9B9129821F09FFEAFF68C
:1056E000C452564651464FF48270FEF745F895F87D
:1056F000250021F0CBFEAFF6C85231464FF496702C
:10570000FEF73AF826204EE0022A97D1A9B916985A
:1057100021F084FEAFF6E852564651464FF496709B
:10572000FEF72AF895F8260021F0B0FEAFF6082221
:1057300031464FF4AA70FEF71FF8272033E0022A03
:1057400095D1A9B91A9821F069FEAFF624225646E0
:1057500051464FF4AA70FEF70FF895F8270021F094
:1057600095FEAFF6282231464FF4BE70FEF704F8DE
:10577000282018E0022A93D1A1B91E9821F04EFEEC
:10578000AFF64822564651464FF4BE70FDF7F4FF7F
:1057900095F8200021F07AFE244A31460832642030
:1057A000FDF7EAFF2120E072CBE44FF4FA76BCF17A
:1057B000320F71D016DCBCF12C0F48D0BCF12D0F8C
:1057C0006BD0BCF12E0F69D0BCF1310F7FF452AA1F
:1057D00021F046FE95F82E00C0B301286FD00228B4
:1057E0006ED078E1BCF15F0F6BD0BCF1610F69D076
:1057F000BCF1620FEAD121F033FE95F83B3095F809
:105800003A200BA1684630351FF04CFF6A469621BE
:10581000F8200DF083FE687927F094F92878D0B34A
:1058200006A001F0DFFD3320FFF723BA2C44000867
:1058300025302E32643A25302E3264005265636F73
:10584000726420696E74657276616C002DE121F0DE
:1058500007FE95F82C00002895F830001FD018B3EB
:10586000F7A2962132200DF059FE21F01FFE95F887
:105870002A00002895F8300018D0E0B1F0A2962157
:105880005A200DF04BFE95F83000B0B1EDA001F0BC
:10589000A9FD2D20C8E706E144E114E05EE008B16F
:1058A000ECA2DEE7ECA2DCE7EDA2DAE708B1E9A2C0
:1058B000E5E7E9A2E3E7EAA2E1E7EBA0E7E7FBE03F
:1058C00001E195E0C5E021F0CBFD95F82A00002824
:1058D00095F8300026D050B3D9A296215A200DF069
:1058E0001DFEE44801460EF02BFA1F2318227F21EB
:1058F00096200DF045FF95F82B00052819D00428B7
:105900004FF000001FD00EF031FADBA29B217F2068
:105910000DF004FE95F83000F0B1D8A001F062FD62
:105920002E2081E708B1CBA2D7E7CBA2D5E7CCA246
:10593000D3E700200EF01AFAD6A296217F20FDF7B9
:105940001BFFD5A2E2E70EF011FAD2A296217F202A
:10595000FDF712FFBEA2D9E7D0A0DFE788210846F5
:105960000EF0EEF91F2318227F2196200DF008FF7C
:1059700095F82B0005281FD00428BE4826D00EF02D
:10598000F5F9BDA29B217F200DF0C8FD21F08EFD11
:1059900095F83600002895F8300020D020B3A8A252
:1059A0009621AA200DF0BAFD95F83000F0B1BFA005
:1059B00001F018FD5F2037E7AE480EF0D7F9B5A229
:1059C00096217F20FDF7D8FEB3A2DBE70EF0CEF9DB
:1059D000B0A296217F20FDF7CFFE9DA2D2E708B1AD
:1059E0009CA2DDE79CA2DBE79DA2D9E7B2A0DFE79E
:1059F00021F036FD95F83600002895F830001FD0CC
:105A000018B38FA29621AA200DF088FD21F04EFD3B
:105A100095F8393095F83820AFF2EC1168463035FA
:105A20001FF040FE6A469621D0200DF077FD2878C1
:105A300068B1A4A001F0D6FC012060706120F3E6FB
:105A400008B184A2DEE784A2DCE785A2DAE79FA0A2
:105A5000F0E721F005FD95F8393095F83820AFF2E0
:105A60003021684630351FF01DFE6A469621D02051
:105A70000DF054FD21F01AFDEB7AAA7AAFF2502115
:105A800068461FF00FFE6A469621F8200DF046FD8D
:105A9000287830B191A001F0A5FC0120607062204F
:105AA000C2E68FA0F7E792A0BBE695F8300008B1F8
:105AB00093A20CE094A20AE095F8300008B194A2F9
:105AC00005E094A203E095F8300090B193A231462E
:105AD00032200DF023FD21F0E9FC95F82F0050B1A4
