:020000040800F2
:1000000078650220C101000863550108B526010882
:1000100061550108ED120008B74902080000000010
:1000200000000000000000000000000051930108E3
:10003000696900080000000045560108E9960108BA
:10004000DB010008DB010008DB010008DB01000820
:10005000DB010008DB010008DB010008DB01000810
:10006000DB010008DB010008DB010008DB01000800
:10007000DB010008DB010008DB010008DB010008F0
:10008000DB010008DB010008DB010008DB010008E0
:10009000DB010008DB010008DB010008DB010008D0
:1000A000DB010008DB010008DB010008DB010008C0
:1000B000DB010008DB010008DB010008DB010008B0
:1000C000DB010008DB010008DB010008DB010008A0
:1000D000DB0100085D310208DB010008DB010008DC
:1000E000DB010008DB010008DB010008DB01000880
:1000F000DB010008DB010008DB010008DB01000870
:10010000DB010008817C0108DB010008DB0100083D
:10011000DB010008DB01000881970108DB01000812
:10012000DB010008DB010008DB010008BD3D000821
:10013000DB010008DB010008DB010008DB0100082F
:10014000DB010008DB010008DB010008095601089B
:10015000DB010008DB010008DB010008DB0100080F
:10016000DB010008DB0100082156010815560108D3
:10017000DB0100082D560108DB010008DB01000847
:10018000DB010008DB010008DB010008DB010008DF
:10019000DB010008DB010008DB010008DB010008CF
:1001A000DB010008DB010008DB010008DFF80CD0F0
:1001B00000F08AFC00480047E57D020878650220CF
:1001C0000648804706480047FEE7FEE7FEE7FEE7F1
:1001D000FEE7FEE7FEE7FEE7FEE7FEE725970108FC
:1001E000AD0100082DE9F05F0546002092469B46D0
:1001F00088460646814640241BE02846414647463D
:10020000224600F0BAFA53465A46C01A914110D31A
:1002100011461846224600F0A1FA2D1A67EB010894
:100220004F4622460120002100F098FA17EB000902
:100230004E41201EA4F10104DFDC484631462A4627
:100240004346BDE8F09F40EA01039B0703D009E065
:1002500008C9121F08C0042AFAD203E011F8013BB2
:1002600000F8013B521EF9D27047D2B201E000F80B
:10027000012B491EFBD270470022F6E710B513464A
:100280000A4604461946FFF7F0FF204610BD421EFD
:1002900012F8013F002BFBD111F8013B02F8013BA2
:1002A000002BF9D1704710B5044604E00B7800F834
:1002B000013B03B1491C521EF8D2204610BD421C1E
:1002C00010F8011B0029FBD1801A704710B50022DD
:1002D00000E0521C835C8C5CA34201D1002BF8D15E
:1002E000D8B2E1B2401A10BD034611F8012B00F854
:1002F000012B002AF9D11846704770B5064625F043
:100300001FFA046805460A220021304600F0A6FACA
:100310002C6070BD2DE9FE4F804681EA0300C00FBE
:100320000C46009021F0004123F00045B8EB02009C
:10033000A94105D24046214690461C460B4602463E
:1003400023F00040104347D0270DC7F30A00C3F342
:100350000A510290401A019040286BDAC3F313004F
:1003600040F4801B0098924620B10023D2EB030A90
:1003700063EB0B0B01985946C0F14002504600F068
:10038000EDF906460D4650465946019A00F005FA29
:1003900010EB08006141002487EA115284EAE773F8
:1003A0001A4340D0009A62B3019A012A4FEA0752D9
:1003B00015DC001B61EB02014FF0004202EA07521C
:1003C000CDE90042001C41F5801132462B4600F079
:1003D000C3FA03B0BDE8F08F40462146F9E7001BA1
:1003E00061EB0201001C41F5801300185B412018ED
:1003F000A2F5001747EB030140EAD570B6196D412D
:1004000011E06D084FEA360645EAC0754FEA07521B
:10041000001B61EB0201001C41F5801149084FEA05
:1004200030000019514132462B4603B0BDE8F04F71
:1004300000F083BA0098012240000023D0EB0202B2
:1004400063EBE073009821464FEAE074B8EB0000DC
:1004500061EB0401E9E783F000435BE781F00041D1
:1004600058E72DE9FE4F81EA030404F0004421F02F
:10047000004100944FF0000B23F0004350EA0104C8
:100480005ED052EA03045BD0C3F30A54C1F30A55A9
:100490002C44A4F2F3340194A0FB0254C1F31301E1
:1004A00041F48011C3F3130343F4801301FB0244AE
:1004B00000FB034E840A970A44EA815447EA8357B3
:1004C000A4FB076802958D0A05FB07854FEA932C6C
:1004D00004FB0C542705029D4FEA065847EA1637DD
:1004E000B5EB08056EEB070C870E920E47EA8117F5
:1004F00042EA8312A7FB0201B6EB0B0164EB000496
:100500002B0D43EA0C335E1844EB1C50DA4651467F
:10051000E7FB0201C5F313044FEA0B3343EA14531C
:100520004FEA0432019C43EA0603A4F10C0402944E
:10053000009CCDE900B400F00FFA03B0BDE8F08FE5
:1005400000200146F9E72DE9F04D81EA030404F0AB
:10055000004B21F0004514464FF0000A23F0004103
:1005600050EA050220D054EA01021DD0C5F30A5713
:100570000246C5F31303C1F31300C1F30A5640F456
:10058000801543F48013A7EB0608101BD64608F22B
:10059000FD3873EB050002D308F1010801E0921861
:1005A0005B41B8F1000F03DA00200146BDE8F08D91
:1005B00000204FF48011064684460EE0171B73EBB3
:1005C000050705D3121B63EB050306434CEA010C38
:1005D00049084FEA300092185B4150EA0107EDD11B
:1005E00052EA030012D082EA040083EA05010843BC
:1005F00005D0101BAB4106D20122002306E00022E9
:100600004FF0004302E06FF0010253101AEB0600B6
:100610004CEB085110EB0A0041EB0B01BDE8F04D2B
:1006200000F08BB90EB540F2334102910021CDE9C3
:1006300000110A460B4600F08FF903B000BDC1F36C
:100640000A5210B5C1F3130140F2FF3341F4801197
:100650009A4201DA002010BD40F233439A42A2F2DE
:10066000334203DC524200F088F810BD904010BDC8
:1006700000F0004230F000400AD0C10D01F5607179
:10068000C0F3160042EA0151C20840071143704707
:10069000002001467047000030B5041E71F10004CF
:1006A00004DB4FF00044404264EB0101141E73F17F
:1006B000000405DB1C464FF00043524263EB040389
:1006C0008B4208BF824230BD30B5041E71F1000478
:1006D00004DB4FF00044404264EB0101141E73F14F
:1006E000000405DB1C464FF00043524263EB040359
:1006F000994208BF904230BD01F0004330B421F070
:10070000004150EA010206D00A0DA2F56072C1F361
:100710001301002A02DC30BC00207047440F44EA79
:10072000C104C100E01830BC00EBC25000F0CEB8EC
:1007300030B50B46014600202022012409E021FAB1
:1007400002F59D4205D303FA02F5491B04FA02F5AE
:100750002844151EA2F10102F1DC30BD202A04DB81
:10076000203A00FA02F1002070479140C2F12003C4
:1007700020FA03F3194390407047202A04DB203A03
:1007800021FA02F00021704721FA02F3D040C2F1B1
:1007900020029140084319467047202A06DBCB17F8
:1007A000203A41FA02F043EAE07306E041FA02F32C
:1007B000D040C2F120029140084319467047000022
:1007C0000FB4002300B589B00CA900910B996FF00C
:1007D0000042CB601E4B06931E4B07930423CDE9CA
:1007E00001321D4A089202466B46002000F020FAB2
:1007F00009B05DF814FB70B586B006464FF0FF30C7
:100800000091CDE90101002015460C4604903246C6
:10081000694604A8FFF7D4FF02460498211825B1C1
:1008200008B1084600E020462860049800280DD052
:10083000002A02DD0098884208D0081B0094CDE908
:1008400001043246694604A8FFF7BAFF06B070BD3E
:10085000690E0008870E0008F50A00082DE9F04728
:1008600091460F4680460446002614F8015B2DB1E0
:1008700000F03CF90068405DC007F6D12B2D02D096
:100880002D2D18D0641E4A463946204600F00CFB38
:1008900027B13968A14201D1C7F8008071054FF036
:1008A00002040BD54042002803DD24F049FF046018
:1008B000A007BDE8F08746F48066E4E70028F8DA90
:1008C00024F03EFF04606FF00040F2E70029A8BF6B
:1008D0007047401C490008BF20F00100704710B469
:1008E000B0FA80FC00FA0CF050EA010404BF10BC1E
:1008F000704749B1CCF1200421FA04F411FA0CF14B
:1009000018BF012121430843A3EB0C01CB1D4FEA83
:1009100000614FEA102042BF002010BC704700EB7E
:10092000C35010440029A4BF10BC7047401C4900AC
:1009300008BF20F0010010BC704710B5141E73F101
:10094000000408DA401C41F1000192185B411A438F
:1009500001D120F0010010BD2DE9F04D92469B46DB
:1009600011B1B1FA81F202E0B0FA80F22032904681
:10097000FFF7F4FE04460F4640EA0A0041EA0B0185
:1009800053465A46084313D0114653EA010019D082
:10099000C8F140025046FFF7F0FE05460E465046AD
:1009A00059464246FFF7DAFE084305D0012004E02D
:1009B00020463946BDE8F08D0020054346EAE07642
:1009C0002C4337430A986305E40AA0EB0800002291
:1009D000FD0A44EA47540A3002D500200146E9E7FF
:1009E000010510196941DDE9084500196941BDE8B3
:1009F000F04DA2E72DE9F04D00231A461B1A8A415B
:100A000003DB00200146BDE8F08DC1F30A52C1F3BB
:100A1000130141F480154FF0000BD10702D10018EB
:100A20006D41521E0027044640F2FF11384601EB8B
:100A3000620A3E468046024600204FF48011FFF7CE
:100A40009CFEC2197141BB1846EB0100B4EB030CCC
:100A500075EB000C04D3E41A65EB000517460E464F
:100A6000241908F101006D4180463428E3DDF919AD
:100A700046EB0600091BA84103D24FF0FF32134694
:100A800001E0002213461BEB070046EB0A51BDE8CC
:100A9000F04DFFF752BFC1F30A52C1F3130140F208
:100AA000FF3341F480119A4202DA00200146704778
:100AB00040F233439A42A2F2334202DC5242FFF741
:100AC0005CBEFFF74BBE0000064C074D06E0E06839
:100AD00040F0010394E8070098471034AC42F6D385
:100AE000FFF768FBFC2207081C2307080048704733
:100AF0008422070810B50446FFF7F8FF0068005D80
:100B000000F0010010BD00002DE9FF4F087883B010
:100B10009946FF2805D0491C2D2804D00024002028
:100B200008E000200BE00124F9E700EB800003EB74
:100B30004000491C0B78FF2BF7D104B14042002341
:100B40000293147819461D462D2C01D02B2C04D16C
:100B5000521C2D2C13D000240294AA461478FF2C8A
:100B60000FD00A25A3FB057801FB05814FF0000C8F
:100B700003FB0C11521CE3194AEB0101EEE70124BF
:100B8000EAE7814453EA010002D019F5C87F06DA8A
:100B900003980021C0E9001107B0BDE8F08F0025DF
:100BA000AE4E2F46DFF8B882184600F0DAF9CDE9EC
:100BB0000001B9F1000002DAC9F1000400E00446C6
:100BC0000023A74A1AEB030B42EB045A12E0E0079A
:100BD00007D02A46334638464146FFF742FC0746CF
:100BE00088462A46334610461946FFF73AFC054622
:100BF0000E466410002CEAD1DDE90001B9F1000FC6
:100C00005A46534606DAFFF79EFC3A464346FFF73C
:100C10009AFC05E0FFF725FC3A464346FFF721FC26
:100C2000029A0AB181F00041039AC2E90001B3E7D8
:100C30002DE9FF4F1F468DB0D7E901464FF0FF3831
:100C40002E2045464FF000090B90B9696D1C0E9897
:100C50008847396A824688470028F6D1BAF1FF3FB3
:100C60000AD024F4D064002E11DDBAF12B0F08D085
:100C7000BAF12D0F0BD102E0404611B08DE744F4DC
:100C80008064B9696D1C0E9888478246761E694655
:100C9000600501D52D2000E02B208DF8000001F12A
:100CA000010B0DF1200809E0B9696D1C0E98884709
:100CB00082460F9844F40074761E0560002E02DD13
:100CC000BAF1300FF0D00B998A453ED144F0800440
:100CD00006E00F99681CA9F1010944F4007408604A
:100CE000B9696D1C761E0E98884782463028F0D070
:100CF0002BE00B998A4505D1200603D444F08004EB
:100D0000761E18E0504624F057FE08B30DF113018B
:100D1000761E44F400748B4508D2AAF130000BF81B
:100D2000010B200607D5A9F1010003E0200602D43B
:100D300009F101008146A00502D50F99681C0860E1
:100D4000B9696D1C0E9888478246002ED1DC53E0AD
:100D5000002E51DDBAF1650F02D0BAF1450F4BD12B
:100D6000A00549D5B9696D1C24F44074761E0E980F
:100D700088478246002E0CDD2B2804D0BAF12D0FB7
:100D800007D144F48074B9696D1C0E988847824677
:100D9000761EE00501D52D2100E02B2108F8011B6E
:100DA000CDF82C8021E00DF12901761E44F4007469
:100DB00088450CD2AAF1300010F0FF0088F800003E
:100DC00002D10B99884509D908F1010806E0E00530
:100DD00001D5244801E042F20F708146B9696D1CCB
:100DE0000E98884782460F980560002E04DD504615
:100DF00024F0E2FD0028D6D1F9690E988847FF203B
:100E00008BF8000088F800000020069007904B4601
:100E10006A4608A906A8FFF777FEA00502D46FF07E
:100E200001002AE714F0240F0AD0E00714D1DDE90D
:100E300006123868031D3B600068C0E900120BE031
:100E4000DDE90601FFF758FC0146E00704D13868E8
:100E5000021D3A600068016028460EE70000144059
:100E60000000F03FF1D8FFFF426842B1016811F87D
:100E7000013B23B1521EC0E9001218467047012100
:100E8000C160881E704742685AB1C368016843B99F
:100E900083688B4205D0491E521CC0E90012002015
:100EA00070474FF0FF3070472DE9F05F82460078C1
:100EB000002715468B460AF10104B946302801D0B7
:100EC0009DB113E014F8010B0127782803D05828AE
:100ED00001D045B10AE00DB1102D07D10027102532
:100EE00014F8010B02E0082500E00A250026B046B0
:100EF0000EE005FB080005FB06F1012701EB10469B
:100F00001FFA80F8B6F5803F00D3B94614F8010BFC
:100F1000294600F018F80028EBDABBF1000F05D0E5
:100F20000FB1641E00E05446CBF80040B9F1000F49
:100F300006D024F005FC02210160C81EBDE8F09F28
:100F400048EA0640FAE73A2800D2303820F020027A
:100F5000412A01D3A2F13700884201D34FF0FF307C
:100F600070470EB540F2334202920022CDE90022D2
:100F70001346FFF7F1FC03B000BD70B58C1810F8F4
:100F8000015B15F0070301D110F8013B2A1106D1CE
:100F900010F8012B03E010F8016B01F8016B5B1EE8
:100FA000F9D12B0705D40023521E0DD401F8013BC3
:100FB000FAE710F8013BCB1A921C03E013F8015B2F
:100FC00001F8015B521EF9D5A142D8D3002070BDB3
:100FD000164910B5C87A0A2827D2DFE800F01A2689
:100FE000222626262626051E087B097C114A00EBB0
:100FF000C1015339C9B29FED0E0A02EB810152388B
:1010000081ED000AC0B227F0F7F8BDE8104018F0F3
:10101000B1B9BDE8104029F023BBBDE8104027F06E
:10102000ABBEBDE8104018F0FBBE10BD380200207A
:1010300000000000F0FF00200029816802D041F08C
:10104000010101E021F0010181607047084B10B5FA
:10105000D3F8042307490A40D0E900142143D0E91A
:101060000240044321431143C3F8041310BD0000A0
:1010700000200140E030FCFF0029816802D041F4EB
:10108000807101E021F480718160704700298168DE
:1010900002D041F4007101E021F4007181607047D9
:1010A00030B542680F4B0C791A400B6842EA0422B3
:1010B0001343436082680C4B4D791A40D1E90343D6
:1010C00023438C6844EA4504234313438360C26A84
:1010D000097D22F47002491EC9B242EA0151C1627F
:1010E00030BD0000FFFEFFFCFDF7FFC070B5072616
:1010F00009290AD9C568A1F10A0404EB4404A640F1
:10110000B543A3401D43C56007E0056901EB4104F9
:10111000A640B543A3401D4305611F23072A09D2FA
:10112000446B521E02EB820293409C4391400C435D
:10113000446370BD0D2A09D2046BD21F02EB8202F8
:1011400093409C4391400C43046370BDC46A0D3AC4
:1011500002EB820293409C4391400C43C46270BDF9
:10116000816841F08041816070470000F0B5324BEA
:10117000DFED300A9FED310AC3ED010AA3F20C77CF
:10118000002183ED020A08462D4EA3F1A00597F831
:1011900033200AE017F800C0BCF1000F03D155F866
:1011A00020C0B4450CDB401CC0B28242F2D8012CF6
:1011B00006D0C3ED000AC3ED010AC3ED020AF0BD7B
:1011C0000020204C2AE017F800C0BCF1000F23D10A
:1011D00005EB800C9CED000A10EE10CAB4451BDA3A
:1011E00004EB800C491C9CED001AC9B230EE410A98
:1011F00093ED011A70EE200AB4EEC10AF1EE10FA76
:1012000001DD83ED010A93ED021AB4EEC10AF1EE9D
:1012100010FA01D283ED020A401CC0B28242D2D839
:1012200000EE101AB8EE400A80EE801A83ED001A24
:10123000F0BD0000000000001C0A012000E0F9449D
:1012400000E0F944F0FF00200A48C17A0D290BD2D2
:10125000DFE801F00A0A0A0A070D0D0D0D0A0A0A55
:101260000B00007B332802D070470348007825F03C
:101270003DBA0000380200203000002000210D4A55
:101280000846135C012B00D10121401CC0B2282864
:10129000F7D30948012908D10649503991F82A1095
:1012A000012902D10549097811B1002118F098BB34
:1012B0000121FBE7600301200004014043020020FC
:1012C0001CB54FF48070012100908DF804100020AF
:1012D0008DF806008DF807108DF805006946024864
:1012E00011F090F91CBD000000000240FEE7000074
:1012F00010B5074C0121204618F072FB4FF6FF7025
:1013000005F096FB2046BDE81040002118F068BBB0
:101310000004014010B5044639202BF083FDE0B2F3
:101320002BF0A4FDC4F307202BF0A0FDC4F307406D
:101330002BF09CFD200E2BF099FD2BF063FDBDE8FA
:10134000104024F017B970B5064614460D463C20EF
:101350002BF068FDE8B22BF089FD280A2BF086FD02
:101360002BF050FD0CB1002011E024F003F91E28F1
:101370000FD1304600F030F905463D202BF052FDEC
:101380002BF040FD2E44002CEFD0208828442080F4
:10139000EBE770BD10B514F095F908B100F069F8ED
:1013A000BDE81040302000F0B2B8312000F0AFB8F6
:1013B0000146362000F09EB810B508B100F0C5F81F
:1013C000BDE81040342000F0A2B870B5054600F02A
:1013D000A7F804000DD00146284600F021F8412866
:1013E00007D0142803D0422800D1B32070BD432079
:1013F00070BD2819BDE87040FFF7DEBF10B5044688
:1014000000F0A3F820785C2801D02F2803D1002118
:10141000642000F0F7F8BDE81040322000F077B803
:1014200070B50E4600210546012401E0641CE4B2BB
:10143000285D5C2813D02F2811D00028F6D1002475
:101440006818FFF7DBFF002C08D0B44206D0412813
:101450000AD0142806D0422800D1B32070BD641CE5
:10146000E4B2EDE7432070BD2146E1E7FF21FFF73D
:10147000D7BF10B522202BF0D5FC322005F0D8FACA
:101480002BF0C6FC04462BF0BDFC204610BD2DE918
:10149000F0412BF0BDFC06462BF0BAFC05462BF0C4
:1014A000B7FC04462BF0B4FC07462BF0ABFC46EA35
:1014B000052040EA044040EA0760BDE8F08110B52D
:1014C00004460C202BF0AEFC20462BF0CFFCBDE8F0
:1014D0001040FFF7DCBF10B504460A202BF0A2FC39
:1014E00020462BF0C3FC2BF093FC04462BF08AFC27
:1014F000204610BD10B50C462BF094FC20462BF076
:10150000B5FC2BF07FFCBDE8104024F033B810B5DB
:101510002BF088FC2BF076FCBDE8104024F02AB8B4
:10152000014600E0491C0A78002AFBD105E011F8C9
:10153000012D5C2A03D02F2A01D08142F7D18142AC
:1015400000D0491C081AC0B2704770B5054601208A
:101550002BF068FC2BF05CFC432828D22B20FFF7F3
:10156000BAFF102823D22F202BF05CFC00202BF098
:101570007DFC3220FFF7CBFF142818D1CF20FFF7D6
:10158000AAFF040013D04C20FFF799FF00EB0421C1
:101590004C2000F037F85020FFF791FF00EB0421BA
:1015A000502000F02FF80021702000F02BF82F20A1
:1015B0002BF038FC2C7806E015F8014F5C2C01D09C
:1015C0002F2C00D1002420462BF050FC002CF3D10E
:1015D000BDE870402BF016BC70B505462D202BF0F1
:1015E00021FC2BF015FC0446260007D028782BF0B0
:1015F0003DFC641E6D1C14F0FF04F7D12BF002FCBF
:10160000304670BD70B505460C460D202BF00AFC27
:1016100028462BF02BFCE0B22BF028FCC4F307206B
:101620002BF024FCC4F307402BF020FC200E2BF001
:101630001DFCBDE870402BF0E5BB00002DE9F0413A
:1016400088B00121812014F049F80121080314F029
:1016500081F8DFF8C88005221146404611F00EF8E7
:1016600005220621404611F009F8052207214046CF
:1016700011F004F802258DF805508DF8045000246F
:1016800020278DF8064000978DF8074069464046B0
:1016900010F0B8FF402000906946404610F0B2FFBD
:1016A000802000906946404610F0ACFF10200126D3
:1016B00000908DF804608DF806406946404610F0B1
:1016C000A1FF8DF8044000978DF807606946144823
:1016D00010F098FFADF808404FF48270ADF80A00A2
:1016E000ADF810602802ADF812003820ADF81400F3
:1016F000ADF80C40ADF8164007200A4CADF81800C4
:10170000ADF80E5002A9204617F093FD01212046A6
:1017100017F08CFB08B0BDE8F0810000000002402B
:10172000001C024000300140F0B5FF231A4600259E
:1017300018E0445D6240002402F0010613F0010F3E
:101740004FEA53034FEA520201D042F080021EB129
:1017500083F0A00382F00102641CE4B2082CEBD3F6
:101760006D1CEDB28D42E4D342EA0320F0BD0000CF
:101770002DE9F047FE48FF4FFF4C00784FF482758B
:101780004FF4AA764FF470484FF4A57940B1012880
:1017900074D0022873D0032872D0042871D025E3B6
:1017A0002078012801D028B10FE0882012F0FCFA3F
:1017B000384603E0882012F0F7FA404612F010FB9A
:1017C000EEA20A21642011F019FF6078012801D0EF
:1017D00028B10FE0882012F0E7FA384603E08820AD
:1017E00012F0E2FA404612F0FBFAE5A20A21B42018
:1017F00011F004FFA078012801D028B10FE0882063
:1018000012F0D2FA384603E0882012F0CDFA4046B2
:1018100012F0E6FADBA20A21284611F0EFFEE0788A
:10182000012801D028B10FE0882012F0BDFA384617
:1018300003E0882012F0B8FA404612F0D1FAD2A2A2
:101840000A21304611F0DAFE2079012801D028B1B2
:101850000FE0882012F0A8FA384603E0882012F042
:10186000A3FA404612F0BCFAC8A24946642011F01F
:10187000C5FE6079012805D048B113E039E0CEE01B
:1018800063E133E2882012F08FFA384603E08820C3
:1018900012F08AFA404612F0A3FABDA24946B420DB
:1018A00011F0ACFEA079012801D028B10FE088200A
:1018B00012F07AFA384603E0882012F075FA4046B2
:1018C00012F08EFAB3A24946284611F097FEE0794D
:1018D000012801D028B189E2882012F065FA384643
:1018E00003E0882012F060FA404612F079FAAAA2CA
:1018F00078E2207A01284FF0880070D012F054FA74
:10190000404612F06DFAA5A20A21642011F076FE7D
:10191000607A01284FF0880065D012F045FA404601
:1019200012F05EFA9EA20A21B42011F067FEA07A9E
:1019300001284FF088005AD012F036FA404612F0D3
:101940004FFA98A20A21284611F058FEE07A0128A1
:101950004FF088004FD012F027FA404612F040FABC
:1019600091A20A21304611F049FE207B01284FF058
:10197000880044D012F018FA404612F031FA8BA2D7
:101980004946642011F03AFE607B01284FF0880040
:1019900039D012F009FA404612F022FA84A24946E0
:1019A000B42011F02BFEA07B01284FF088002ED030
:1019B00012F0FAF9404612F013FA7EA24946284680
:1019C00011F01CFEE07B01284FF0880023D012F0BC
:1019D000EBF9404612F004FA77A203E2FFE712F0B7
:1019E000E3F938468DE712F0DFF9384698E712F050
:1019F000DBF93846A3E712F0D7F93846AEE712F024
:101A0000D3F93846B9E712F0CFF93846C4E712F0F7
:101A1000CBF93846CFE712F0C7F93846DAE7207C31
:101A200001284FF0880070D012F0BEF9404612F045
:101A3000D7F962A20A21642011F0E0FD607C012840
:101A40004FF0880065D012F0AFF9404612F0C8F9A7
:101A50005BA20A21B42011F0D1FDA07C01284FF037
:101A600088005AD012F0A0F9404612F0B9F955A2F8
:101A70000A21284611F0C2FDE07C01284FF08800C1
:101A80004FD012F091F9404612F0AAF94EA20A2165
:101A9000304611F0B3FD207D01284FF0880044D07E
:101AA00012F082F9404612F09BF948A249466420A0
:101AB00011F0A4FD607D01284FF0880039D012F0AC
:101AC00073F9404612F08CF941A24946B42011F056
:101AD00095FDA07D01284FF088002ED012F064F90A
:101AE000404612F07DF93BA24946284611F086FD9A
:101AF000E07D01284FF0880023D012F055F94046D0
:101B000012F06EF934A26DE1FFE712F04DF938469C
:101B10008DE712F049F9384698E712F045F9384652
:101B2000A3E712F041F93846AEE712F03DF9384626
:101B3000B9E712F039F93846C4E712F035F93846FA
:101B4000CFE712F031F93846DAE7207E01284FF06E
:101B500088007DD012F028F9404612F041F91FA20A
:101B60000A21642011F04AFD607E012838E000005F
:101B7000450200209355170010030120303031003A
:101B80003030320030303300303034003030350007
:101B900030303600303037003030380030303900E7
:101BA00030313000303131003031320030313300EB
:101BB00030313400303135003031360030313700CB
:101BC00030313800303139003032300030323100BD
:101BD00030323200303233003032340030323500AF
:101BE0004FF0880066D012F0DFF8404612F0F8F8A7
:101BF00099A20A21B42011F001FDA07E01284FF026
:101C000088005BD012F0D0F8404612F0E9F893A2B9
:101C10000A21284611F0F2FCE07E01284FF08800EE
:101C200050D012F0C1F8404612F0DAF88CA20A2126
:101C3000304611F0E3FC207F01284FF0880045D0AA
:101C400012F0B2F8404612F0CBF886A2494600E006
:101C50002CE0642011F0D2FC607F01284FF0880056
:101C600038D012F0A1F8404612F0BAF87EA24946E8
:101C7000B42011F0C3FCA07F01284FF088002DD0C4
:101C800012F092F8404612F0ABF878A24946284686
:101C900011F0B4FCE07F01284FF0880022D012F050
:101CA00083F8404612F09CF871A29BE012F07CF899
:101CB000384652E712F078F8384697E712F074F891
:101CC0003846A2E712F070F83846ADE712F06CF82B
:101CD0003846B8E712F068F83846C5E712F064F8FD
:101CE0003846D0E712F060F83846DBE794F8200079
:101CF00001284FF088007DD012F056F8404612F0CF
:101D00006FF85CA20A21642011F078FC94F821009D
:101D100001284FF088006ED012F046F8404612F0CD
:101D20005FF855A20A21B42011F068FC94F8220053
:101D300001284FF0880074D012F036F8404612F0B7
:101D40004FF84EA20A21284611F058FC94F82300BF
:101D500001284FF0880068D012F026F8404612F0B3
:101D60003FF847A20A21304611F048FC94F82400BD
:101D700001284FF088005CD012F016F8404612F0AF
:101D80002FF840A24946642011F038FC94F8250051
:101D900001284FF0880050D012F006F8404612F0AB
:101DA0001FF839A24946B42011F028FC94F8260007
:101DB00001284FF0880044D011F0F6FF404612F0A1
:101DC0000FF832A24946284611F018FC94F8270073
:101DD00001284FF0880038D011F0E6FF404611F09E
:101DE000FFFF2BA24946304611F008FC294901208B
:101DF000C87001E00CE010E0FFF77AFA94F83000C8
:101E000038B325A005F0EEFABDE8F04717F0B2BAF6
:101E100011F0CAFF384672E703E011F0C5FF3846FB
:101E20007DE711F0C1FF384689E711F0BDFF384664
:101E300095E711F0B9FF3846A1E711F0B5FF384634
:101E4000ADE711F0B1FF3846B9E711F0ADFF384604
:101E5000C5E714A0D6E70000303236003032370034
:101E60003032380030323900303330003033310016
:101E70003033320030333300303334003033350008
:101E800030333600303337003033380030333900E8
:101E900030343000C00100204368616E6E656C20F4
:101EA00073657400CDA8B5C0C9E8D6C300000000B2
:101EB0002DE9F05FF948DFF8E8A3FA4C00784FF419
:101EC00082754FF496764FF4AA784FF4BE794FF4AA
:101ED000704B10B101286ED03CE32078012801D06E
:101EE00028B10FE0882011F05FFF504603E0882002
:101EF00011F05AFF584611F073FFEBA20A2164203B
:101F000001F004FC6078012801D028B10FE088209E
:101F100011F04AFF504603E0882011F045FF584673
:101F200011F05EFFE1A20A218C2001F0EFFBA07806
:101F3000012801D028B10FE0882011F035FF50466C
:101F400003E0882011F030FF584611F049FFD8A275
:101F50000A21B42001F0DAFBE078012801D028B191
:101F60000FE0882011F020FF504603E0882011F098
:101F70001BFF584611F034FFCEA20A21DC2001F0ED
:101F8000C5FB2079012801D028B10FE0882011F08D
:101F90000BFF504603E0882011F006FF584611F071
:101FA0001FFFC5A20A21284601F0B0FB6079012875
:101FB00002D030B110E0C6E1882011F0F5FE5046A5
:101FC00003E0882011F0F0FE584611F009FFBBA293
:101FD0000A21304601F09AFBA079012801D028B1EE
:101FE0000FE0882011F0E0FE504603E0882011F059
:101FF000DBFE584611F0F4FEB1A20A21404601F082
:1020000085FBE079012801D028B10FE0882011F08C
:10201000CBFE504603E0882011F0C6FE584611F072
:10202000DFFEA8A20A21484601F070FB94F83300B5
:10203000082872D9207A012801D028B10FE0882021
:1020400011F0B2FE504603E0882011F0ADFE584674
:1020500011F0C6FE9CA2D221642001F057FB607AE9
:10206000012801D028B10FE0882011F09DFE5046D4
:1020700003E0882011F098FE584611F0B1FE93A2BB
:10208000D2218C2001F042FBA07A012801D028B196
:102090000FE0882011F088FE504603E0882011F000
:1020A00083FE584611F09CFE89A2D221B42001F093
:1020B0002DFBE07A012801D028B10FE0882011F033
:1020C00073FE504603E0882011F06EFE584611F072
:1020D00087FE80A2D221DC2001F018FB207B0128A2
:1020E00001D028B10FE0882011F05EFE504603E0D9
:1020F000882011F059FE584611F072FE76A2D221C6
:10210000284601F003FB607B012801D030B110E0CC
:10211000882011F049FE504604E034E0882011F098
:1021200043FE584611F05CFE6CA2D221304601F00D
:10213000EDFAA07B012801D028B10FE0882011F032
:1021400033FE504603E0882011F02EFE584611F071
:1021500047FE63A2D221404601F0D8FAE07B012875
:1021600001D028B10FE0882011F01EFE504603E098
:10217000882011F019FE584611F032FE59A2D221E2
:10218000484601F0C3FA94F8330010286FD9207C38
:102190004FF4CD77012801D028B10FE0882011F04D
:1021A00003FE504603E0882011F0FEFD584611F072
:1021B00017FE4DA23946642001F0A8FA607C012880
:1021C00001D028B10FE0882011F0EEFD504603E069
:1021D000882011F0E9FD584611F002FE43A239466D
:1021E0008C2001F093FAA07C012801D028B10FE0E7
:1021F000882011F0D9FD504603E0882011F0D4FD6D
:10220000584611F0EDFD3AA23946B42001F07EFAAD
:10221000E07C012801D028B10FE0882011F0C4FD36
:10222000504603E0882011F0BFFD584611F0D8FD5C
:1022300030A23946DC2001F069FA207D012801D066
:1022400028B10FE0882011F0AFFD504603E0882050
:1022500011F0AAFD584611F0C3FD27A239462846C1
:1022600001F054FA607D012802D030B110E071E134
:10227000882011F099FD504603E0882011F094FD6C
:10228000584611F0ADFD1DA23946304601F03EFA28
:10229000A07D012834D000B142E036E045020020A4
:1022A00093551700100301203030310030303200D8
:1022B00030303300303034003030350030303600CC
:1022C00030303700303038003030390030313000B5
:1022D00030313100303132003031330030313400B0
:1022E0003031350030313600303137003031380090
:1022F000303139003032300030323100303232008B
:10230000882011F051FD504603E0882011F04CFD6B
:10231000584611F065FDBAA23946404601F0F6F97B
:10232000E07D012801D028B114E1882011F03CFDA6
:10233000504603E0882011F037FD584611F050FD5B
:10234000B0A2394603E1207E01284FF088007CD0FE
:1023500011F02AFD584611F043FDABA20A2164207A
:1023600001F0D4F9607E01284FF088006ED011F0A2
:102370001BFD584611F034FDA4A20A218C2001F067
:10238000C5F9A07E01284FF088007DD011F00CFD2A
:10239000584611F025FD9EA20A21B42001F0B6F99D
:1023A000E07E01284FF088006FD011F0FDFC584608
:1023B00011F016FD97A20A21DC2001F0A7F9207F79
:1023C00001284FF088007DD011F0EEFC584611F046
:1023D00007FD91A20A21284601F098F9607F0128A3
:1023E0004FF088006FD011F0DFFC584611F0F8FC78
:1023F0008AA20A21304601F089F9A07F01284FF016
:1024000088007DD011F0D0FC584611F0E9FC84A280
:102410000A21404601F07AF9E07F01284FF0880058
:102420006FD011F0C1FC584611F0DAFC7DA20A21F0
:10243000484601F06BF994F8200001284FF088001D
:102440007ED011F0B1FC584601E092E096E011F028
:10245000C7FC75A2D221642001F058F994F821003C
:1024600001284FF088006CD011F09EFC584611F006
:10247000B7FC6EA2D2218C2001F048F994F822001A
:1024800001284FF0880001E07CE07FE075D011F07A
:102490008BFC584611F0A4FC65A2D221B42001F0B7
:1024A00035F994F8230001284FF0880072D011F01C
:1024B0007BFC584611F094FC5EA2D221DC2001F096
:1024C00025F901E067E06AE094F8240001284FF064
:1024D000880070D011F068FC584611F081FC56A2BB
:1024E000D221284601F012F994F8250001284FF076
:1024F000880077D011F058FC584611F071FC01E0CB
:1025000051E054E04DA2D221304601F0FFF894F89A
:10251000260001284FF0880068D011F045FC58468D
:1025200011F05EFC46A2D221404601F0EFF894F88B
:10253000270001284FF088005CD011F035FC01E045
:102540003BE03EE0584611F04BFC3EA2D22148460B
:1025500001F0DCF83C490120C870FEF7C9FE94F890
:10256000300048B339A004F03DFFBDE8F05F16F03D
:1025700001BF11F019FC5046EDE626E011F014FC05
:102580005046F7E611F010FC504602E711F00CFC43
:1025900050460DE71EE011F007FC504617E711F01A
:1025A00003FC504622E711F0FFFB50462DE711F0E7
:1025B000FBFB504638E711E020E011F0F5FB5046F8
:1025C00042E711F0F1FB504651E711F0EDFB5046A8
:1025D00060E707E011F0E8FB50466BE711F0E4FB21
:1025E00050467AE711F0E0FB504686E711F0DCFB3D
:1025F000504695E711F0D8FB5046A4E716A0B2E785
:102600003032330030323400303235003032360070
:102610003032370030323800303239003033300059
:102620003033310030333200303333003033340054
:102630003033350030333600303337003033380034
:102640003033390030343000C00100204368616EFF
:102650006E656C2073657400CDA8B5C0C9E8D6C39B
:10266000000000002DE9F05FF84CDFF8E4A34FF420
:10267000704B2078012801D028B10FE0882011F09C
:1026800093FB504603E0882011F08EFB584611F072
:10269000A7FBF0A20A21642001F06EF860780128FF
:1026A00001D028B10FE0882011F07EFB504603E0F6
:1026B000882011F079FB584611F092FBE6A20A211E
:1026C0008C2001F059F8A078012801D028B10FE042
:1026D000882011F069FB504603E0882011F064FB6C
:1026E000584611F07DFBDDA20A21B42001F044F828
:1026F000E078012801D028B10FE0882011F054FBC8
:10270000504603E0882011F04FFB584611F068FB5B
:10271000D3A20A21DC2001F02FF820794FF4827532
:10272000012801D028B10FE0882011F03DFB504670
:1027300003E0882011F038FB584611F051FBC9A284
:102740000A21284601F018F860794FF4967601289E
:1027500001D028B10FE0882011F026FB504603E09D
:10276000882011F021FB584611F03AFBBEA20A2145
:10277000304601F001F8A0794FF4AA79012801D080
:1027800028B10FE0882011F00FFB504603E08820AD
:1027900011F00AFB584611F023FBB4A20A21484667
:1027A00000F0EAFFE0794FF4BE78012801D028B1AB
:1027B0000FE0882011F0F8FA504603E0882011F06D
:1027C000F3FA584611F00CFBA9A20A21404600F08A
:1027D000D3FF94F83300082872D9207A012801D059
:1027E00028B10FE0882011F0DFFA504603E088207E
:1027F00011F0DAFA584611F0F3FA9EA2862164200D
:1028000000F0BAFF607A012801D028B10FE08820DB
:1028100011F0CAFA504603E0882011F0C5FA584674
:1028200011F0DEFA94A286218C2000F0A5FFA07A98
:10283000012801D028B10FE0882011F0B5FA5046E8
:1028400003E0882011F0B0FA584611F0C9FA8BA2C3
:102850008621B42000F090FFE07A012801D028B151
:102860000FE0882011F0A0FA504603E0882011F014
:102870009BFA584611F0B4FA81A28621DC2000F0C0
:102880007BFF207B012801D028B10FE0882011F0C8
:102890008BFA504603E0882011F086FA584611F072
:1028A0009FFA78A28621284600F066FF607B012807
:1028B00001D030B110E0882011F076FA504604E0E3
:1028C00034E0882011F070FA584611F089FA6EA2AF
:1028D0008621304600F050FFA07B012801D028B1AE
:1028E0000FE0882011F060FA504603E0882011F0D4
:1028F0005BFA584611F074FA64A28621484600F04B
:102900003BFFE07B012801D028B10FE0882011F0C7
:102910004BFA504603E0882011F046FA584611F071
:102920005FFA5BA28621404600F026FF94F8330050
:1029300010286FD9207C4FF48177012801D028B16D
:102940000FE0882011F030FA504603E0882011F0A3
:102950002BFA584611F044FA4EA23946642000F092
:102960000BFF607C012801D028B10FE0882011F016
:102970001BFA504603E0882011F016FA584611F071
:102980002FFA45A239468C2000F0F6FEA07C0128E3
:1029900001D028B10FE0882011F006FA504603E07C
:1029A000882011F001FA584611F01AFA3BA2394674
:1029B000B42000F0E1FEE07C012801D028B10FE056
:1029C000882011F0F1F9504603E0882011F0ECF96D
:1029D000584611F005FA32A23946DC2000F0CCFE50
:1029E000207D012801D028B10FE0882011F0DCF90A
:1029F000504603E0882011F0D7F9584611F0F0F95D
:102A000028A23946284600F0B7FE607D012802D092
:102A100030B110E0C6E1882011F0C6F9504603E05D
:102A2000882011F0C1F9584611F0DAF91EA2394692
:102A3000304600F0A1FEA07D012801D028B140E081
:102A4000882011F0B1F9504634E02FE01003012046
:102A500093551700303031003030320030303300C1
:102A60003030340030303500303036003030370010
:102A70003030380030303900303130003031310002
:102A800030313200303133003031340030313500F4
:102A900030313600303137003031380030313900D4
:102AA000303230003032310030323200882011F0C4
:102AB0007BF9584611F094F9C3A23946484600F014
:102AC0005BFEE07D012801D028B10FE0882011F0E5
:102AD0006BF9504603E0882011F066F9584611F072
:102AE0007FF9BAA23946404600F046FE207E4FF4F8
:102AF000BF77012801D028B10FE0882011F054F9E8
:102B0000504603E0882011F04FF9584611F068F95B
:102B1000AFA23946642000F02FFE607E012801D06C
:102B200028B10FE0882011F03FF9504603E08820DB
:102B300011F03AF9584611F053F9A6A239468C2003
:102B400000F01AFEA07E012801D028B10FE08820F5
:102B500011F02AF9504603E0882011F025F9584673
:102B600011F03EF99CA23946B42000F005FEE07E4B
:102B7000012801D028B10FE0882011F015F9504646
:102B800003E0882011F010F9584611F029F993A2BA
:102B90003946DC2000F0F0FD207F012801D028B16B
:102BA0000FE0882011F000F9504603E0882011F072
:102BB000FBF8584611F014F989A23946284600F06E
:102BC000DBFD607F012801D028B10FE0882011F0E3
:102BD000EBF8504603E0882011F0E6F8584611F073
:102BE000FFF880A23946304600F0C6FDA07F0128DC
:102BF00001D028B10FE0882011F0D6F8504603E04C
:102C0000882011F0D1F8584611F0EAF876A239463A
:102C1000484600F0B1FDE07F012801D028B10FE067
:102C2000882011F0C1F8504603E0882011F0BCF86C
:102C3000584611F0D5F86DA23946404600F09CFD8B
:102C400094F820004FF4FD77012801D028B10FE05F
:102C5000882011F0A9F8504603E0882011F0A4F86C
:102C6000584611F0BDF862A23946642000F084FD98
:102C700094F82100012801D028B10FE0882011F03C
:102C800093F8504603E0882011F08EF8584611F072
:102C9000A7F858A239468C2000F06EFD94F8220067
:102CA000012801D028B10FE0882011F07DF85046AE
:102CB00003E0882011F078F8584611F091F84EA200
:102CC0003946B42000F058FD94F82300012801D0C3
:102CD00028B10FE0882011F067F8504603E0882003
:102CE00011F062F8584611F07BF844A23946DC2016
:102CF00000F042FD94F82400012801D028B10FE033
:102D0000882011F051F8504603E0882011F04CF86B
:102D1000584611F065F83AA23946284600F02CFDD5
:102D200094F82500012801D028B10FE0882011F087
:102D30003BF8504603E0882011F036F8584611F071
:102D40004FF830A23946304600F016FD94F82600C0
:102D5000012801D028B10FE0882011F025F8504655
:102D600003E0882011F020F8584611F039F826A227
:102D70003946484600F000FD94F82700012801D0AC
:102D800028B10FE0882011F00FF8504603E08820AA
:102D900011F00AF8584611F023F81CA239464046B3
:102DA00000F0EAFC1A490120C870FEF7A1FA94F875
:102DB000300030B117A004F015FBBDE8F05F16F04D
:102DC000D9BA17A0F7E700003032330030323400B0
:102DD0003032350030323600303237003032380091
:102DE000303239003033300030333100303332008C
:102DF0003033330030333400303335003033360075
:102E0000303337003033380030333900303430005D
:102E1000C00100204368616E6E656C2073657400AC
:102E2000CDA8B5C0C9E8D6C30000000070B50446FF
:102E30001A481D4D00EB840010ED010A184800EB04
:102E4000840050ED010A174800EB840030EE600A60
:102E500050ED010AB4EEE00AF1EE10FA09D313487E
:102E600000EB840050ED010AB4EEE00AF1EE10FA36
:102E700005DD0D48503890F82C00012807D0882136
:102E80006FF07F4010F096FF0020285570BD88211C
:102E90004FF47F0010F08EFF0120F6E77C0901203F
:102EA000F0FF0020E8030020600301204803002019
:102EB00070B5374905460024086810F0450FFBD06F
:102EC000410702D50324042003E0C00704D00124F5
:102ED000204614F06FFE59E014F0A8FEA8422BD152
:102EE00040F2FF5014F066FE002014F0C1FE2949A4
:102EF00008424BD0002801DA1C2070BD410001D5EA
:102F0000092070BD810001D50A2070BDC10001D526
:102F10000B2070BD010101D50C2070BD410101D510
:102F20000D2070BDC10101D50E2070BD010201D57B
:102F30000F2070BD410201D5102070BD810201D566
:102F4000112070BDC10201D5122070BD010301D551
:102F5000132070BD410301D5142070BD810301D53C
:102F6000152070BDC10301D5162070BD010401D527
:102F7000172070BD410401D5182070BD810401D512
:102F8000192070BD000701D51A2070BD204670BD04
:102F9000342C014008E0FFFD10B50B4A00241168F5
:102FA00011F0450FFBD0480702D50324042003E0AD
:102FB000C80705D00124204614F0FCFD204610BDB2
:102FC00040F2FF50F8E70000342C014070B50C4689
:102FD000194906460025086810F0450FFBD0410747
:102FE00002D50324042003E0C00705D001242046B5
:102FF00014F0E0FD204670BD14F018FEB04212D16E
:1030000040F2FF5014F0D6FD002014F031FE10F411
:10301000604F03D0810404D5132070BD000C2080C4
:1030200007E0410401D5102070BD000401D50F2038
:1030300070BD284670BD0000342C01401CB51F48EF
:103040001FA1214C098841811E4861790088401EDA
:1030500000EB800001EB400000EB800101EBC000C1
:103060001A49014415480D390A30FDF710F918487E
:1030700062788179CDE900124379027915A10F4870
:1030800022F04AFB0D4901F10A00FDF700F90B4857
:1030900014A10A30FDF7FBF808490A220A31134847
:1030A00023F070FFE07030B111A004F09BF9BDE88F
:1030B0001C4012F03BBC11A0F7E70000280A0120D9
:1030C000303A00002C000020A8010020F42A012042
:1030D0009C0200202F2530326425303264253032A6
:1030E000642564002E786C7300000000D01A012063
:1030F000B4B4BDA8CAA7B0DC00000000B4B4BDA839
:10310000CEC4BCFEB3C9B9A60000000010B50B4682
:103110000C0601F07F0202EB820100EBC10102D537
:1031200001F58E7101E001F55D710A70DA094A70EE
:1031300021F027FA002010BD0A4610B5090602F05A
:103140007F0306D503EB830100EBC10101F58E710E
:1031500005E002EB820100EBC10101F55D71002485
:103160008C700B70D2094A7021F0F2F9002010BD6A
:1031700010B50A0604D501F07F0121F025FB01E01E
:1031800021F004FB002010BD70B50D460E0601F0C5
:103190007F0404EB840100EBC10102D501F58E71BF
:1031A00001E001F55D71ED090C704D708A60CB7026
:1031B00000D0CC80022B01D100220A7121F094F9B9
:1031C000002070BD10B501F07F0404EB840100EB1A
:1031D000C101C1F88833C1F880230023C1F88C33C2
:1031E00081F8753381F87443C37801F55D71012B63
:1031F00000D10A6114F0FF0F03D021F001FA002082
:1032000010BD21F002F9FAE70069002261F30A1209
:1032100001681143016070470A4610B5090602F0C3
:103220007F0306D503EB830100EBC10101F58E712D
:1032300005E002EB820100EBC10101F55D710124A3
:103240008C700B70D2094A7021F0C2F9002010BDB9
:1032500070B511F07F0404EB840100EBC1014FF065
:10326000010581F81D5181F81C41C1F82821C1F8E0
:103270002C2101F58E714FF00002C1E9053203D017
:1032800021F0BEF9002070BD21F0BFF8FAE7000080
:103290002DE9F0410646002421F0DFFA074655E00B
:1032A000F80751D03069E1B20369426BCA4006EBBE
:1032B000810102F00102896943EAC2128D6815405A
:1032C000E9071AD00125426B05FA04F18A434263EB
:1032D00006EB8400806985601F48E1B2006842689F
:1032E00030469047F078012807D134B996F811019B
:1032F000042802D1304621F0E5F8280704D506EB72
:103300008400082580698560E80604D506EB840002
:10331000102580698560680604D506EB8400402589
:1033200080698560A80704D506EB840002258069C2
:103330008560280608D52146304600F06CF906EB7A
:1033400084018020896988607F08641C002FA7D1D0
:103350000120BDE8F0810000700000202DE9F0415F
:103360000546002421F07FFA0746DFF8988043E005
:10337000F8073FD0E1B2284621F07BFA0646C007A5
:1033800025D005EB84000126416D8E60E978012986
:103390000CD1406D016904EB840005EBC000C1F362
:1033A0001201D0F87C23511AC0F88C13D8F8000011
:1033B000E1B2026828469047E878012807D134B97D
:1033C00095F81101052802D1284621F07BF8B007B5
:1033D00004D505EB84000226406D8660300709D5D0
:1033E000D8F8000081682846884705EB840108204A
:1033F000496D88607F08641C002FB9D10120BDE8A9
:10340000F08100007000002070B50546C068816939
:1034100021F010018161E868066A06F00F0000EBF8
:10342000800005EBC004C6F3434004F55D74072833
:1034300021D2DFE800F0202004202020150047F6EC
:10344000F070064217D0C6F30A1632462846E168E5
:1034500021F017FAE0683044E060A069304409E0E8
:10346000082205F2CC51284621F00BFAA069C6F3D8
:103470000A110844A061E868816941F01001816186
:10348000012070BD38B5044600208DF8000094F886
:1034900012018DF8000015480068416920468847F0
:1034A00020698068E2684FF400615161A17AD1B16E
:1034B000C00718D094F81501012814D19DF8000018
:1034C000032810D1D4F80C01016841F0010101601A
:1034D000D4F80C01016841F003010160044801685F
:1034E00041F006010160012038BD0000700000209D
:1034F00010ED00E070B50446006900250126416822
:1035000021F0010141602946204621F05DF90020AB
:10351000FF2206E004EB80018B699A60496D8A60A6
:10352000401C61788142F5D821694FF0FF308861F5
:103530002846216966F30F0066F31F40C8612169C0
:1035400045F00B0048612169C1F88400216945F00C
:103550000B000861216948642069016821F4FE615B
:103560000160204620F0AEFFE1684FF480504861D2
:1035700003480068016920468847012070BD0000AB
:103580007000002070B5044621F08CF90120002362
:1035900084F8120184F814311A46402510E002EB39
:1035A000820104EBC10181F81D0181F81C21A1F801
:1035B000222181F81F31C1E94953521CC1F8303131
:1035C00061789142EBD8002010E000EB800104EB21
:1035D000C10181F8753381F87403A1F87A0381F889
:1035E0007733C1E9DF53401CC1F8883361788142E9
:1035F000EBD8204620F0E4FE204620F0C1FD00215B
:10360000204621F0AFF9204620F0FAFD2046BDE823
:10361000704021F0B3B82DE9F0470E4601EB86016A
:1036200000EBC1048046D4E94C01401AD4F82411BF
:1036300004F58E74814200D20846C01C870808EB4E
:1036400086091EE0451AA068A84200D20546E81C7B
:103650008708ABB2F2B24046E16821F098F9E06821
:103660002844E060A0692844A0616169884208D3C9
:10367000207801218140D8F81000426B8A434263D0
:103680000BE0D9F81800806980B2B84205D9D4E9B6
:103690000501814201D20028D4D10120BDE8F08784
:1036A0002DE9F04115460C468046154E4FF4207723
:1036B00019E0802A0BD21348B061214640460FF032
:1036C0002DFFB0696D1C8088204484B20BE00E4849
:1036D000B0612A462146404600F0C2F9B069AD1CEF
:1036E0008088204484B2BC4208D22A78002A05D0BF
:1036F000B0698088011989B28142DAD2BDE8F081CF
:1037000018020020E8020020280300202DE9F041E3
:1037100015460C468046154E4FF4207719E0802A56
:103720000BD21348B061214640460FF0F7FEB06956
:103730006D1C8088204484B20BE00E48B0612A469C
:10374000214640460FF000FFB069AD1C8088204440
:1037500084B2BC4208D22A78002A05D0B069808899
:10376000011989B28142DAD2BDE8F0811802002045
:10377000E0020020180300202DE9F04115460C4618
:103780008046154E4FF4207719E0802A0BD213485B
:10379000B061214640460FF0C1FEB0696D1C8088C3
:1037A000204484B20BE00E48B0612A4621464046D0
:1037B00000F0FCF8B069AD1C8088204484B2BC42A3
:1037C00008D22A78002A05D0B0698088011989B208
:1037D0008142DAD2BDE8F08118020020D002002038
:1037E000300300202DE9F04F334EDFF8D0A0DFF892
:1037F000D080DFF8D09085B0002443F2FF3B8821D1
:10380000084610F0D7FAC4EBC40000EB800000F1CA
:1038100028052023C822294646200FF0EBFF8821E7
:10382000584610F0C7FA621C27A103A821F074FFC4
:10383000284603AA0A210FF0ABFE284623A2322114
:103840000FF0A6FE7079671C874202D15146002016
:1038500001E08821504610F0ADFAB8F8000000EB06
:10386000800004EB400000EB800101EBC00101EBA4
:10387000090228464621823A0FF08AFEFCB20A2C41
:10388000BDD38821504610F095FAB379B8F80020DE
:103890000FA1684621F040FF6A464FF4FA714FF4D9
:1038A000C8700FF075FE0C490D20087008F084F9FF
:1038B00005B0BDE8F08F0000A801002000FFFF0068
:1038C0002C000020303A0120256400002E0000006A
:1038D00025642F2564000000430200202DE9F047F5
:1038E0002A4EDFF8AC90DFF8AC80DFF8ACA086B0F1
:1038F00000248821484610F05DFA621C27A103A825
:1039000021F00AFFC4EBC40000EB8000283005461C
:1039100003AA0A210FF03CFE284621A232210FF013
:1039200037FE7079671C874202D14946002001E0CA
:103930008821484610F03EFAB8F8000000EB8000FD
:1039400004EB400000EB800101EBC00101EB0A0237
:1039500028464621823A0FF01BFEFCB20A2CC8D33F
:103960008821484610F026FA3379B8F800200DA1D6
:10397000684621F0D1FE6A464FF4FA714FF4C870E0
:103980000FF006FE06B0BDE8F0870000A801002099
:1039900000FFFF002C000020F42A01202564000015
:1039A0002E00000025642F25640000002DE9F04161
:1039B00016460F46804600240D4D0FE032788A42AD
:1039C0000AD105EB400271785078814204D1394622
:1039D0004046921C0FF084FE641CA4B204EB440029
:1039E00000EB041015F810108029E7D8BDE8F0812D
:1039F00061F005082DE9F04115460C468046154E4C
:103A00004FF4207719E0802A0BD21348B061214689
:103A100040460FF083FDB0696D1C8088204484B25D
:103A20000BE00E48B0612A462146404600F018F8E7
:103A3000B069AD1C8088204484B2BC4208D22A7888
:103A4000002A05D0B0698088011989B28142DAD292
:103A5000BDE8F081180200200003002020030020B0
:103A60002DE9F04116460F46804600240C4D0EE02D
:103A700032788A4209D1421971785078814204D152
:103A800039464046921C0FF02BFE641CA4B204EB96
:103A90008400C0EB8410295C8029E9D8BDE8F0815E
:103AA0001CD305082DE9F04115460C468046154EFD
:103AB0004FF4207719E0802A0BD21348B0612146D9
:103AC00040460FF02BFDB0696D1C8088204484B205
:103AD0000BE00E48B0612A4621464046FFF7C0FF82
:103AE000B069AD1C8088204484B2BC4208D22A78D8
:103AF000002A05D0B0698088011989B28142DAD2E2
:103B0000BDE8F081180200200803002020030020F7
:103B10002DE9F041204E15460C4680466BB3012B33
:103B200038D18821084610F045F9282390224146D3
:103B300020460FF05FFEBDE8F04188216FF07F4026
:103B400010F038B9802A0BD21448B06121464046A3
:103B50000FF0E4FCB0696D1C8088204484B20EE054
:103B60000F48B0612A46214640460FF0EDFCB0698F
:103B7000AD1C8088204484B201E04FF42077BC4221
:103B800008D22A78002A05D0B0698088011989B244
:103B90008142D7D2BDE8F08118020020F002002057
:103BA000180300202DE9F041204E15460C468046B2
:103BB0006BB3012B38D18821084610F0FBF81C2389
:103BC0006022414620460FF015FEBDE8F0418821F5
:103BD0006FF07F4010F0EEB8802A0BD21448B0612D
:103BE000214640460FF09AFCB0696D1C8088204445
:103BF00084B20EE00F48B0612A46214640460FF0DD
:103C0000A3FCB069AD1C8088204484B201E04FF46D
:103C10002077BC4208D22A78002A05D0B069808873
:103C2000011989B28142D7D2BDE8F0811802002083
:103C3000F8020020180300202DE9F041204E15461F
:103C40000C4680466BB3012B38D18821084610F012
:103C5000B1F814233222414620460FF0CBFDBDE8D7
:103C6000F04188216FF07F4010F0A4B8802A0BD279
:103C70001448B061214640460FF050FCB0696D1CFD
:103C80008088204484B20EE00F48B0612A46214665
:103C900040460FF059FCB069AD1C8088204484B2C6
:103CA00001E04FF42077BC4208D22A78002A05D0E0
:103CB000B0698088011989B28142D7D2BDE8F0810C
:103CC00018020020D80200201803002010B501219E
:103CD000CC05204611F00EFD2046BDE81040002125
:103CE00011F008BD034A0146002052680A4200D084
:103CF0000120704700B0024030B52A4B00241968FB
:103D0000294A114019601968026811431960596BFA
:103D100021F007015963596B4268114359634168A7
:103D200041B301292DD0022930D00329C16832D0F6
:103D30000A01016944690902240385682143154386
:103D40000D43996B0D439D638169D963196C6FF3C2
:103D50000D011964196CC26911431964818C5A6C84
:103D600002F040425A645A6C006A024342EA01423D
:103D70005A6430BDC168047D0A02018A0904240620
:103D8000DBE7C1680A02018A0904D6E7C1684A0173
:103D90000169C902D1E74A01016944698902E40362
:103DA000CBE7000000B00240FCE0FCFF02480168E5
:103DB00041F001010160704700B0024014F038BECC
:103DC000074A904201D2074801E005481038064AE8
:103DD0008B0001EA020101D5C16070478160704724
:103DE00010640240006002407D0F7D0F00290168D1
:103DF00002D041F0010101E021F0010101607047B2
:103E00002DE9F043016821F001010160002101600A
:103E100041608160C1600161212141613C493C4AAE
:103E20003D251039904202D18D60BDE8F083384ABB
:103E30004FF474661832904201D18E60F5E7344A2F
:103E40004FF474173032904201D18F60EDE7304A61
:103E50004FF0746C4832904202D1C1F808C0E4E7D8
:103E60002B4B2C4A6033984201D1CA60DDE7284CC5
:103E7000294B7834A04201D1CB60D6E7DFF890809F
:103E8000264C08F19008404501D1CC60CDE7DFF821
:103E900080804FF03D5908F1A808404502D1C1F893
:103EA0000C90C2E71E49DFF878800839404501D1FF
:103EB0000D60BAE71A4D1835A84201D10E60B4E77B
:103EC000174D3035A84201D10F60AEE7144D48358B
:103ED000A84202D1C1F800C0A7E7114D10496035D2
:103EE000091FA84201D10A609FE70D4A783290422B
:103EF00001D10B6099E70A4A9032904201D10C60DF
:103F000093E7074AA83290428FD1C1F800908CE71E
:103F1000106002403D000020400F002000003D20C6
:103F2000106402400029016802D041F0200101E044
:103F300021F02001016070470B0607D5436912B1DB
:103F400043F0800301E023F080034361802908D01F
:103F5000002A026801F01E0101D00A4300E08A43F2
:103F60000260704730B50368124ACC6813400A6893
:103F70002243D1E905452C432243CC6922430C6AF4
:103F800022434C6A22438C6A22434C6B22438C6B43
:103F900022431A430260426922F00703D1E90B244D
:103FA00022431A4342610A6942604A688260896812
:103FB000C16030BD3F801CF00548C07A052803D0A1
:103FC000062801D0082802D102A023F069BC70475E
:103FD000380200202E0000002DE9F04FF84CF94D7A
:103FE0002146E07A91F80CC09FB00D282ED2DFE870
:103FF00010F0300041132D002D00DC0BD30D7E148A
:104000002D00A5112D002D002D000D0095F8330079
:10401000082802D0102802D004E0102000E0082078
:1040200085F8330015F0A6F96FF07F400FF0D8FE49
:1040300088200FF0B9FE95F83320E3A1684621F0FF
:104040006BFB6A46AA2132200FF0A2FA1FB0BDE82E
:10405000F08FDB484FF4CD764FF48177417BD94820
:104060004FF4BF794FF4FD7A90F82D2090F8273067
:104070001E93C37F1D93C37D1C93C37B1B9390F83A
:1040800026301A93837F1993837D1893837B17932C
:1040900090F825301693437F1593437D1493437B0B
:1040A000139390F824301293037F1193037D1093A0
:1040B000037B0F9390F823300E93C37E0D93C37C44
:1040C0000C93C37A0B9390F822300A93837E099362
:1040D000837C0893837A079390F821300693437E7C
:1040E0000593437C0493437A039390F820E090F87F
:1040F00018B0037C007ABCF1290FA7D2DFE81CF0CE
:104100002900C50048012F02B40249031A04AB0478
:10411000410553069106D0060D074C078E07D007C0
:10412000160858088208B008DA0806093409620936
:104130009009BC09D409EC09040A1D0A370A510A7E
:104140006B0A840A9D0AB60ACF0AE90A040B1F0B00
:104150003A0B9F480FF044FE88200FF025FE95F89B
:104160002900022812D0012812D0032812D00428D6
:1041700012D0052812D0062812D0072812D00828FD
:1041800012D0092812D00B2812D016E091A210E00C
:1041900092A20EE093A20CE094A20AE095A208E09D
:1041A00096A206E097A204E098A202E099A200E09D
:1041B0009AA264212F200FF0EBF995F82D0020B181
:1041C000012835D002284FD04AE0607B40B1012859
:1041D0000BD002280ED0032811D0042814D01CE0E4
:1041E000287823F08BF98FA213E0287A23F086F940
:1041F0008DA20EE0287C23F081F98CA209E0287EB4
:1042000023F07CF98AA204E095F8200023F076F9E7
:1042100088A20A2164200FF0F1F995F8300028B146
:1042200085A003F0DFF8012001F0BDBA85A0F8E712
:10423000607B10B1012805D020E0287823F05EF9DA
:1042400078A203E0287E23F059F979A20A2164209C
:10425000FFF75CFA12E07BA000E077A003F0C2F861
:10426000012005F03DF9F1E6607B38B9287823F0AC
:1042700045F96CA20A216420FFF77EFA0120207321
:1042800095F830000028E8D1E5E74E4F02263F7848
:1042900032B1012A4FD0022AE2D100296AD082E24B
:1042A00041B101290BD002290DD0032910D00429D6
:1042B00013D0F4E7384623F0E9F85AA211E023F0CE
:1042C000E5F859A20DE0184623F0E0F857A208E0FF
:1042D000584623F0DBF856A203E0704623F0D6F8E8
:1042E00054A20A2164200FF089F9607B40B10128B3
:1042F0000BD002280ED0032811D0042814D0CEE70A
:10430000687823F0FBF852A213E0687A23F0F6F8FD
:1043100050A20EE0687C23F0F1F84FA209E0687E1D
:1043200023F0ECF84DA204E095F8210023F0E6F824
:104330004BA20A218FE211B101290DD0AFE7384617
:1043400023F0A4F837A20A216420FFF7DFF9687888
:1043500023F0D4F83EA20BE0584623F097F834A29D
:104360000A216420FFF7D2F9687E23F0C7F83BA248
:104370000A21F1E3384623F089F82AA20A216420B1
:10438000FFF7FAF9687823F0B9F831A20A21F7E3C8
:104390000C480326407832B1012A10D0022A7FF45B
:1043A00013AF51B17BE749B1012960D0022964D034
:1043B000032968D004296CD071E7BFE052E09AE08D
:1043C0003802002010030120253033640000000073
:1043D00000FFFF0054432D4B0000000054432D54B8
:1043E0000000000054432D4A0000000054432D4EAD
:1043F0000000000054432D450000000054432D539D
:104400000000000054432D520000000054432D4290
:10441000000000005054313030000000317E35562D
:1044200000000000303031003030390030313700CA
:1044300030323500303333004368616E6E656C2076
:1044400073657400CDA8B5C0C9E8D6C300000000EC
:104450003030320030313000303138003032360008
:104460003033340023F012F8AFF21C0216E0039848
:1044700023F00CF8AFF2240210E0049823F006F8C1
:10448000AFF22C020AE0059823F000F8AFF23402F4
:1044900004E0069822F0FAFFAFF23C020A21B420B1
:1044A0000FF0ACF8607B40B101280BD002280ED091
:1044B000032811D0042814D0F1E6A87823F01EF8C0
:1044C000FDA213E0A87A23F019F8FCA20EE0A87C64
:1044D00023F014F8FAA209E0A87E23F00FF8F9A25D
:1044E00004E095F8220023F009F8F7A20A217EE201
:1044F0000FF084F8D3E611B101290DD0CFE622F0F8
:10450000C5FFAFF2B4020A218C20FFF7FFF8A878AC
:1045100022F0F4FFE8A20CE0059822F0B7FFAFF21A
:10452000C4020A218C20FFF7F1F8A87E22F0E6FFF2
:10453000E4A20A21EDE3FFF7E9F8B0E622F0A6FFD6
:10454000AFF2F4020A218C20FFF716F9A87822F0C6
:10455000D5FFD9A20A21F5E3FFF70EF99FE6DB4864
:104560000426807832B1012A53D0022A7FF42CAE7F
:1045700089B394E641B101290AD002290DD003295B
:1045800010D0042913D08AE622F080FFCAA212E0DC
:10459000079822F07BFFC9A20DE0089822F076FF71
:1045A000C7A208E0099822F071FFC6A203E00A98AA
:1045B00022F06CFFC4A20A214FF482700FF01EF8A3
:1045C000607B48B101280CD002280FD0032812D0FC
:1045D000042815D063E63AE0E87822F08FFFBCA209
:1045E00013E0E87A22F08AFFBAA20EE0E87C22F01B
:1045F00085FFB9A209E0E87E22F080FFB7A204E0BF
:1046000095F8230022F07AFFB5A20A214FF4AA7090
:104610006EE711B101290CD041E622F037FFA6A2C6
:104620000A21B420FFF772F8E87822F067FFA8A209
:104630000BE0099822F02AFFA2A20A21B420FFF77A
:1046400065F8E87E22F05AFFA4A20A21F0E322F0E6
:104650001DFF99A20A21B420FFF78EF8E87822F016
:104660004DFF9BA20A21F7E39848C07832B1012A96
:1046700059D0022A7FF4F7ADF1B375E041B10129B9
:104680000AD002290DD0032910D0042913D01BE031
:1046900022F0FCFE8EA212E00B9822F0F7FE8DA213
:1046A0000DE00C9822F0F2FE8BA208E00D9822F0AB
:1046B000EDFE8AA203E00E9822F0E8FE88A20A210D
:1046C0004FF4AA700EF09AFF00200FF089FB854886
:1046D0000FF06AFB95F8290002286FD001286ED0F0
:1046E00003286DD004286CD005286BD006286AD02A
:1046F000072869D0082800E03AE06FD009286ED07A
:104700000B286DD003E064212F200EF041FF95F8B7
:10471000300008B174A000E078A002F063FE07F05A
:10472000FFFB0020A5E211B101290CD01CE022F012
:10473000ADFE67A20A21DC20FEF7E8FF287922F00F
:10474000DDFE72A20BE00D9822F0A0FE63A20A210A
:10475000DC20FEF7DBFF287F22F0D0FE6CA20A21CE
:104760004FF48270FEF7D2FF012004F0B9FE68E238
:1047700022F08CFE56A20A21DC20FEF7FDFF2879EC
:1047800022F0BCFE61A20A214FF48270FEF7F4FF12
:10479000EAE74E480626007932B1012A5DD0022AA6
:1047A0007FF412ADD9B305E379B1012911D0022903
:1047B00017D003291AD004291DD0FBE266E268E273
:1047C0006AE26CE26EE270E272E222F05FFE4FA2F9
:1047D00015E00F9822F05AFE4EA210E06BE26DE257
:1047E0006FE2109822F052FE4BA208E0119822F0DE
:1047F0004DFE47A203E0129822F048FE47A24FF474
:10480000A57164200EF0FAFE607B48B101280CD03F
:1048100002280FD0032812D0042815D0CAE23CE0A9
:10482000687922F06BFE3EA213E0687B22F066FE00
:104830003CA20EE0687D22F061FE3BA209E0687FA9
:1048400022F05CFE39A204E095F8250022F056FE25
:1048500037A24FF4A571B4204AE611B101290DD059
:10486000A8E222F013FE29A20A214FF48270FEF77B
:104870004DFF687922F042FE29A20CE0119822F047
:1048800005FE23A20A214FF48270FEF73FFF687FE6
:1048900022F034FE25A20A21AAE322F0F7FD1BA292
:1048A0000A214FF48270FEF767FF687922F026FE36
:1048B0001BA20A21AFE30000303033003031310059
:1048C00030313900303237003033350010030120E9
:1048D0003030340030313200303230003032380085
:1048E0003033360000FFFF00546865726D6F636FF0
:1048F00075706C65206D6F64656C0000C8C8B5E7A5
:10490000C5BCD0CDBAC5D1A1D4F10000303035003E
:10491000303239003031330030323100303337003B
:104920003030360030313400303232003033300035
:1049300030333800F7480726407932B1012A59D080
:10494000022A7FF441ACB1B3FAE341B101290BD0A3
:1049500002290FD0032913D0042917D0F0E322F045
:1049600095FDAFF2440216E0139822F08FFDAFF2EE
:104970004C0210E0149822F089FDAFF254020AE0D4
:10498000159822F083FDAFF25C0204E0169822F045
:104990007DFDAFF264024FF4A571B4200EF02EFE3F
:1049A000607B48B101280CD002280FD0032812D018
:1049B000042815D0C4E33FE0A87922F09FFDD6A2D9
:1049C00013E0A87B22F09AFDD4A20EE0A87D22F08D
:1049D00095FDD3A209E0A87F22F090FDD1A204E0CA
:1049E00095F8260022F08AFDCFA24FF4A5714FF46E
:1049F00082707DE511B101290ED0A1E322F046FDC0
:104A0000AFF2E4020A214FF49670FEF77FFEA87918
:104A100022F074FDC0A20DE0159822F037FDAFF230
:104A2000F4020A214FF49670FEF770FEA87F22F080
:104A300065FDBCA20A211DE322F028FDAFF2201281
:104A40000A214FF49670FEF797FEA87922F056FDE2
:104A5000B1A20A2121E3AF48807932B1012A57D0AF
:104A6000022A7FF4FDAB91B388E041B101290AD05D
:104A700002290DD0032910D0042913D07EE022F0A2
:104A800005FDA5A212E0179822F000FDA3A20DE0FB
:104A9000189822F0FBFCA2A208E0199822F0F6FC7C
:104AA000A0A203E01A9822F0F1FC9FA24FF4A57196
:104AB0004FF482700EF0A2FD607B48B101280CD04B
:104AC00002280FD0032812D0042815D056E044E065
:104AD000E87922F013FD95A213E0E87B22F00EFDA9
:104AE00093A20EE0E87D22F009FD92A209E0E87FA2
:104AF00022F004FD90A204E095F8270022F0FEFCCD
:104B00008EA24FF4A5714FF4AA700EF077FD35E038
:104B100011B101290DD031E022F0B8FC7EA20A21AA
:104B20004FF4AA70FEF7F2FDE87922F0E7FC7FA2CD
:104B30000CE0199822F0AAFC7AA20A214FF4AA707C
:104B4000FEF7E4FDE87F22F0D9FC7BA20A214FF4B6
:104B5000BE70FEF7DBFD11E04FE122F097FC6EA284
:104B60000A214FF4AA70FEF707FEE87922F0C6FC8E
:104B70006EA20A214FF4BE70FEF7FEFD0820D4E2BB
:104B80004CE16448C07932B1012A5CD0022A7FF43A
:104B90005DAA91B301E141B101290AD002290DD0EA
:104BA000032910D0042913D04BE022F06FFC5FA240
:104BB00012E01B9822F06AFC5DA20DE01C9822F026
:104BC00065FC5CA208E01D9822F060FC5AA203E09C
:104BD0001E9822F05BFC59A24FF4A5714FF4AA7005
:104BE0000EF00CFD607B48B101280DD0022811D0D9
:104BF000032815D0042819D023E065E0287922F095
:104C00007DFCAFF2F82217E0287B22F077FCAFF2B0
:104C1000FC2211E0287D22F071FCAFF204320BE09F
:104C2000287F22F06BFCAFF2183205E095F82400E3
:104C300022F064FCAFF21C324FF4A57164200EF038
:104C4000DDFC052015E0C1B10129A0D11D9822F09D
:104C50001DFC39A20A214FF4BE70FEF757FD287ED5
:104C600022F04CFCAFF638020A216420FEF74EFD1C
:104C7000012020731FB0BDE8F08F22F007FC2BA2AB
:104C80000A214FF4BE70FEF741FD1DE5AFF6BC02F0
:104C900039E5AFF6B80236E5AFF6B80233E5AFF660
:104CA000B40230E5AFF6B4022DE5AFF6B0022AE566
:104CB000AFF6B00227E5AFF6AC0224E5AFF6AC02E2
:104CC00021E5AFF6A8021EE522F0E0FB17A20A21BB
:104CD0004FF4BE70FEF750FD00200FF081F8184829
:104CE0000FF062F895F8290002282CD001282DD069
:104CF00003282ED004282FD0052830D0062831D004
:104D0000072832D0082833D0092834D00B2835D0D2
:104D10003AE0B2E010030120303037003031350086
:104D20003032330030333100303339003030380026
:104D3000303136003032340030333200303430001D
:104D400000FFFF00AAE0AFF6741219E0AFF674128C
:104D500016E0AFF6701213E0AFF6701210E0AFF687
:104D60006C120DE0AFF66C120AE0AFF6681207E0C5
:104D7000AFF6681204E0AFF6641201E0AFF6641219
:104D800064212F200EF004FC95F8300040B1AFF202
:104D9000A84002F027FB0020207307F0C1F869E764
:104DA000AFF2A840F5E70A26012A04D0022A7FF4D0
:104DB00057AA29B3C4E111B101290ED0C0E122F0F4
:104DC00065FBAFF69C12D2216420FEF79FFC687A47
:104DD00022F094FBAFF684120EE0704622F056FBF0
:104DE000AFF6B012D2216420FEF790FC95F82100B6
:104DF00022F084FBAFF69812D2218C20FFF79BBBE8
:104E000022F044FBAFF6E01286216420FEF7B4FCEA
:104E1000687A22F073FBAFF6C41286218C20FFF76C
:104E20009BBB0B26012A04D0022AC0D139B387E1EB
:104E300060E011B1012910D082E1039822F026FB35
:104E4000AFF6F012D2218C20FEF760FCA87A22F097
:104E500055FBAFF298520FE05DE0069822F016FB8A
:104E6000AFF60422D2218C20FEF750FC95F82200E8
:104E700022F044FBAFF2B052D221B420BEE7039837
:104E800022F004FBAFF6342286218C20FEF774FC5E
:104E9000A87A22F033FBAFF2DC528621B420BEE7C1
:104EA0000C26012A03D0022ABFD129B348E111B14F
:104EB00001290FD044E1079822F0E8FAAFF204622A
:104EC000D221B420FEF722FCE87A22F017FBAFF2E1
:104ED000FC520EE00A9822F0D9FAAFF21462D22105
:104EE000B420FEF713FC95F8220022F007FBAFF286
:104EF0001062D221DC2081E7079822F0C7FAAFF2D6
:104F000044628621B420FEF737FCE87A22F0F6FAF4
:104F1000AFF240628621DC2081E70D26012A03D012
:104F2000022AC1D131B30BE111B101290FD007E140
:104F30000B9822F0ABFAAFF26462D221DC20FEF7CC
:104F4000E5FB287B22F0DAFAAFF238620EE00E9829
:104F500022F09CFAAFF27862D221DC20FEF7D6FB79
:104F600095F8240022F0CAFAAFF25062D2214FF431
:104F7000827043E70B9822F089FAAFF2A86286218B
:104F8000DC20FEF7F9FB287B22F0B8FAAFF27C6256
:104F900086214FF4827042E70E26012A03D0022AAE
:104FA000BFD141B3CCE011B1012910D0C8E00F98B6
:104FB00022F06CFAAFF2A462D2214FF48270FEF7B5
:104FC000A5FB687B22F09AFAAFF2A8620FE0129874
:104FD00022F05CFAAFF2BC62D2214FF48270FEF78D
:104FE00095FB95F8250022F089FAAFF2BC62D22138
:104FF0004FF4967002E70F9822F048FAAFF2EC6295
:1050000086214FF48270FEF7B7FB687B22F076FAB8
:10501000AFF2F06286214FF4967000E70F26012A66
:1050200003D0022ABCD141B38AE011B1012910D0CA
:1050300086E0139822F02AFAAFF21872D2214FF4C8
:105040009670FEF763FBA87B22F058FAAFF2343279
:105050000FE0169822F01AFAAFF22C72D2214FF418
:105060009670FEF753FB95F8260022F047FAAFF250
:105070004832D2214FF4AA70C0E6139822F006FA03
:10508000AFF2607286214FF49670FEF775FBA87B35
:1050900022F034FAAFF27C3286214FF4AA70BEE6D9
:1050A000012A03D0022ABDD151B33DE011B101293B
:1050B00010D039E0179822F0E9F9AFF2A032D221EE
:1050C0004FF4AA70FEF722FBA87B22F017FAAFF28A
:1050D000A0320FE01A9822F0D9F9AFF2B432D221FF
:1050E0004FF4AA70FEF712FB95F8270022F006FA9B
:1050F000AFF2B832D2214FF4BE70FEF707FB13E0D7
:10510000179822F0C3F9AFF2EC3286214FF4AA705F
:10511000FEF732FBE87B22F0F1F9AFF2EC328621A8
:105120004FF4BE70FEF728FB10203CE30926012A4D
:1051300003D0022AB7D149B302E021B1012912D02C
:105140002673FFF78DB81B9822F0A0F9AFF220422A
:10515000D2214FF4BE70FEF7D9FA287A22F0CEF9A8
:10516000AFF63C520FE01E9822F090F9AFF23442B5
:10517000D2214FF4BE70FEF7C9FA95F8200022F054
:10518000BDF9AFF65052D221642037E61B9822F0C9
:105190007DF9AFF2644286214FF4BE70FEF7ECFA5F
:1051A000287A22F0ABF9AFF680528621642036E6E9
:1051B0004FF01208012A03D0022AC2D189B136E188
:1051C000184622F063F9AFF69C5231466420FEF790
:1051D0009DFA687C22F092F9AFF6845231468C2019
:1051E00028E0184622F052F9AFF6C0523946642042
:1051F000FEF7C2FA687C22F081F9AFF6A452394674
:105200008C202AE04FF01308012A03D0022A98D1FB
:1052100099B10CE1049822F039F9AFF6C452314645
:105220008C20FEF773FAA87C22F068F9AFF67012B2
:105230003146B420FEF76AFAF9E0049822F026F924
:10524000AFF6EC5239468C20FEF796FAA87C22F095
:1052500055F9AFF694123946B420FEF78DFAE6E020
:105260004FF01408012A03D0022AA6D189B1DEE04A
:10527000089822F00BF9AFF6B8123146B420FEF7C9
:1052800045FAE87C22F03AF9AFF6B4123146DC2058
:10529000D0E7089822F0FAF8AFF6DC123946B420CD
:1052A000FEF76AFAE87C22F029F9AFF6D412394603
:1052B000DC20D2E74FF01508012A03D0022AA6D13C
:1052C00091B1B4E00C9822F0E1F8AFF6F412314657
:1052D000DC20FEF71BFA287D22F010F9AFF6C81289
:1052E00031464FF48270A5E70C9822F0CFF8AFF664
:1052F00018223946DC20FEF73FFA287D22F0FEF81E
:10530000AFF6EC1239464FF48270A6E74FF016085C
:10531000012A03D0022AA8D199B188E0109822F07E
:10532000B5F8AFF60C2231464FF48270FEF7EEF975
:10533000687D22F0E3F8AFF6102231464FF4967004
:1053400078E7109822F0A2F8AFF6342239464FF4ED
:105350008270FEF711FA687D22F0D0F8AFF638229D
:1053600039464FF4967078E74FF01708012A03D0BA
:10537000022AA4D199B15AE0149822F087F8AFF626
:10538000582231464FF49670FEF7C0F9A87D22F0FE
:10539000B5F8AFF2746231464FF4AA704AE7149838
:1053A00022F074F8AFF6802239464FF49670FEF77B
:1053B000E3F9A87D22F0A2F8AFF29C6239464FF4DF
:1053C000AA704AE74FF01808012A03D0022AA2D196
:1053D00099B12CE0189822F059F8AFF2BC6231462E
:1053E0004FF4AA70FEF792F9E87D22F087F8AFF249
:1053F000BC6231464FF4BE701CE7189822F046F8A4
:10540000AFF2E46239464FF4AA70FEF7B5F9E87DD1
:1054100022F074F8AFF2E46239464FF4BE701CE734
:105420004FF01108012A05D0022AA2D199B184F8BF
:105430000C8086E61C9822F029F8AFF208723146FB
:105440004FF4BE70FEF762F9287C22F057F8F74A55
:1054500031466420EEE61C9822F018F8AFF22C7268
:1054600039464FF4BE70FEF787F9287C22F046F8E3
:10547000EE4A39466420F0E6022ADAD191B958465C
:1054800022F004F8E94A4E46121D49466420FEF710
:1054900073F9687E22F032F8E44A314630328C20CB
:1054A000FEF76AF91A207EE1022AC2D191B9059865
:1054B00021F0ECFFDD4A4E46303249468C20FEF7A3
:1054C0005BF9A87E22F01AF8AFF608423146B42004
:1054D000FEF752F91B2066E1022AAAD191B9099878
:1054E00021F0D4FFAFF624424E464946B420FEF7E1
:1054F00043F9E87E22F002F8AFF620423146DC2084
:10550000FEF73AF91C204EE1022A92D199B90D9882
:1055100021F0BCFFAFF63C424E464946DC20FEF788
:105520002BF9287F21F0EAFFAFF61C4231464FF4F9
:105530008270FEF721F91D2035E1022A9DD1A1B923
:10554000119821F0A3FFAFF638424E4649464FF47A
:105550008270FEF711F9687F21F0D0FFAFF6344278
:1055600031464FF49670FEF707F91E201BE1022A20
:105570009BD1A1B9159821F089FFAFF650424E4654
:1055800049464FF49670FEF7F7F8A87F21F0B6FF72
:10559000AFF6700231464FF4AA70FEF7EDF81F2007
:1055A00001E1022A99D1A1B9199821F06FFFAFF654
:1055B0008C024E4649464FF4AA70FEF7DDF8E87FAC
:1055C00021F09CFFAFF6900231464FF4BE70FEF71B
:1055D000D3F82020E7E0022A97D199B91D9821F04D
:1055E00055FFAFF6AC024E4649464FF4BE70FEF78B
:1055F000C3F8287E21F082FF8C4A3146121D6420B8
:10560000FEF7BAF81920CEE0022A97D199B9704670
:1056100021F03CFF854A5646083251466420FEF789
:10562000ABF895F8210021F069FF804A3146343209
:105630008C20FEF7A1F82220B5E0022A98D199B972
:10564000069821F023FF794A5646343251468C2081
:10565000FEF792F895F8220021F050FFAFF698522D
:105660003146B420FEF788F823209CE0022A99D125
:1056700099B90A9821F00AFFAFF6B452564651463E
:10568000B420FEF779F895F8230021F037FFAFF644
:10569000B0523146DC20FEF76FF8242083E0022A66
:1056A0009AD1A1B90E9821F0F1FEAFF6CC52564630
:1056B0005146DC20FEF760F895F8240021F01EFF2B
:1056C000AFF6A85231464FF48270FEF755F8252008
:1056D00069E0022A99D1A9B9129821F0D7FEAFF654
:1056E000C452564651464FF48270FEF745F895F87D
:1056F000250021F003FFAFF6C85231464FF49670F3
:10570000FEF73AF826204EE0022A97D1A9B916985A
:1057100021F0BCFEAFF6E852564651464FF4967063
:10572000FEF72AF895F8260021F0E8FEAFF60822E9
:1057300031464FF4AA70FEF71FF8272033E0022A03
:1057400095D1A9B91A9821F0A1FEAFF624225646A8
:1057500051464FF4AA70FEF70FF895F8270021F094
:10576000CDFEAFF6282231464FF4BE70FEF704F8A6
:10577000282018E0022A93D1A1B91E9821F086FEB4
:10578000AFF64822564651464FF4BE70FDF7F4FF7F
:1057900095F8200021F0B2FE244A314608326420F8
:1057A000FDF7EAFF21202073CBE44FF4FA76BCF139
:1057B000320F71D016DCBCF12C0F48D0BCF12D0F8C
:1057C0006BD0BCF12E0F69D0BCF1310F7FF452AA1F
:1057D00021F07EFE95F82E00C0B301286FD002287C
:1057E0006ED078E1BCF15F0F6BD0BCF1610F69D076
:1057F000BCF1620FEAD121F06BFE95F83B3095F8D1
:105800003A200BA1684630351FF086FF6A46962184
:10581000F8200DF0BDFE687927F0CCF92878D0B3D8
:1058200006A001F0DFFD3320FFF723BA2C44000867
:1058300025302E32643A25302E3264005265636F73
:10584000726420696E74657276616C002DE121F0DE
:105850003FFE95F82C00002895F830001FD018B3B3
:10586000F7A2962132200DF093FE21F057FE95F815
:105870002A00002895F8300018D0E0B1F0A2962157
:105880005A200DF085FE95F83000B0B1EDA001F082
:10589000A9FD2D20C8E706E144E114E05EE008B16F
:1058A000ECA2DEE7ECA2DCE7EDA2DAE708B1E9A2C0
:1058B000E5E7E9A2E3E7EAA2E1E7EBA0E7E7FBE03F
:1058C00001E195E0C5E021F003FE95F82A000028EB
:1058D00095F8300026D050B3D9A296215A200DF069
:1058E00057FEE44801460EF065FA1F2318227F2177
:1058F00096200DF07FFF95F82B00052819D004287D
:105900004FF000001FD00EF06BFADBA29B217F202E
:105910000DF03EFE95F83000F0B1D8A001F062FD28
:105920002E2081E708B1CBA2D7E7CBA2D5E7CCA246
:10593000D3E700200EF054FAD6A296217F20FDF77F
:105940001BFFD5A2E2E70EF04BFAD2A296217F20F0
:10595000FDF712FFBEA2D9E7D0A0DFE788210846F5
:105960000EF028FA1F2318227F2196200DF042FF07
:1059700095F82B0005281FD00428BE4826D00EF02D
:105980002FFABDA29B217F200DF002FE21F0C6FD63
:1059900095F83600002895F8300020D020B3A8A252
:1059A0009621AA200DF0F4FD95F83000F0B1BFA0CB
:1059B00001F018FD5F2037E7AE480EF011FAB5A2EE
:1059C00096217F20FDF7D8FEB3A2DBE70EF008FAA0
:1059D000B0A296217F20FDF7CFFE9DA2D2E708B1AD
:1059E0009CA2DDE79CA2DBE79DA2D9E7B2A0DFE79E
:1059F00021F06EFD95F83600002895F830001FD094
:105A000018B38FA29621AA200DF0C2FD21F086FDC9
:105A100095F8393095F83820AFF2EC1168463035FA
:105A20001FF07AFE6A469621D0200DF0B1FD28784D
:105A300068B1A4A001F0D6FC012060706120F3E6FB
:105A400008B184A2DEE784A2DCE785A2DAE79FA0A2
:105A5000F0E721F03DFD95F8393095F83820AFF2A8
:105A60003021684630351FF057FE6A469621D02017
:105A70000DF08EFD21F052FDEB7AAA7AAFF25021A3
:105A800068461FF049FE6A469621F8200DF080FD19
:105A9000287830B191A001F0A5FC0120607062204F
:105AA000C2E68FA0F7E792A0BBE695F8300008B1F8
:105AB00093A20CE094A20AE095F8300008B194A2F9
:105AC00005E094A203E095F8300090B193A231462E
:105AD00032200DF05DFD21F021FD95F82F0050B131
